:1000000010C100003FC100003DC100003BC1000025
:1000100039C1000037C1000035C1000033C1000004
:1000200031C100002FC100002DC100002BC1000014
:1000300029C1000027C1000025C1000023C1000024
:1000400021C100001FC100001DC100001BC1000034
:1000500019C1000017C1000015C100000C944C2FFD
:1000600011C100000C944C320C9482320BC1000080
:1000700009C1000007C1000005C1000003C1000064
:1000800001C10000FFC00000FDC00000FBC0000077
:100090000C94D8320C940E33F5C000000C942B2E27
:1000A000F1C00000EFC00000EDC00000EBC0000098
:1000B000E9C00000E7C00000E5C00000E3C00000A8
:1000C000E1C00000DFC000000C9405260C946433EE
:1000D0000C949A33D7C000000C94F0330C9426345F
:1000E000D1C00000084AD73B3BCE016E84BCBFFDA7
:1000F000C12F3D6C74319ABD56833DDA3D00C77FF8
:1001000011BED9E4BB4C3E916BAAAABE0000008090
:100110003F0000000A0B02090C0D0E080703040142
:1001200000000000000000000000000000000000CF
:10013000000000000000000000000000000012119C
:10014000100000000000000000000000000000009F
:10015000000000000000000001021020200808102C
:100160002040102040800201020108040201010227
:100170000408102040808040201008040201800400
:10018000020180402010080402010804020101025B
:10019000040810204080010204081020408005055A
:1001A0000505070508080808020202020A0A0808ED
:1001B000040404040101010101010101030303031B
:1001C00003030303040707070C0C0C0C0C0C0C0CAA
:1001D0000202020206060606060606060B0B0B0BBB
:1001E0000B0B0B0B00002200250028002B002E001B
:1001F0003100340002010000050108010B0100007C
:100200002100240027002A002D00300033000101C6
:100210000000040107010A01962BAB323733C333C8
:100220004F3411241FBECFEFD1E2DEBFCDBF00E0BF
:100230000CBF13E0A0E0B2E0EEEFF9E600E00BBF88
:1002400002C007900D92AC31B107D9F729E0ACE1BB
:10025000B3E001C01D92A33AB207E1F711E0C1E19A
:10026000D1E000E006C021970109802FFE010E9425
:10027000CC34CC30D10780E00807A9F70E940E27C4
:100280000C94FD34BDCE611102C00C94B9306130C4
:10029000E1F362E0FACF662319F061E00C94F530E7
:1002A00060E0FCCFCF92DF92EF92FF926B017C0176
:1002B000C114D104E104F10469F4809100028111B8
:1002C00009C080910202909103020E94072B81E0F5
:1002D00080930002C601880F991F880F991F8050D4
:1002E0009E4FFF90EF90DF90CF900895009781F0A0
:1002F000FC012181211104C040EA56E861E070E070
:10030000FC01828193810E94162B90E080E0089589
:1003100088E090E008954F925F926F927F928F9263
:100320009F92AF92BF92CF92DF92EF92FF920F9384
:100330001F93CF93DF930097C9F1280139017A0108
:10034000EC01402F8A819B810E94942B8A819B81A2
:10035000DC01ED91FC910084F185E02D1995892B4C
:1003600001F16701812C912C54018A819B81DC0170
:10037000ED91FC910084F185E02D1995892B91F187
:1003800084149504A604B70469F18A819B81DC0179
:10039000ED91FC910284F385E02D19958F3F98072C
:1003A000C1F484E0F70111928A95E9F788E090E0C2
:1003B000DF91CF911F910F91FF90EF90DF90CF9041
:1003C000BF90AF909F908F907F906F905F904F9075
:1003D0000895FFEF8F1A9F0AAF0ABF0AD6018D93C7
:1003E0006D01C3CF90E080E0E3CF8F929F92AF92F8
:1003F000BF92CF92DF92EF920F931F93CF93DF9331
:100400000097F1F06A01EC018A819B810E94192B0F
:100410008A819B81DC01ED91FC910280F381E02DCA
:10042000A801B60119958A819B8160E0E11001C0A5
:1004300061E00E94232B882389F08250823088F06B
:1004400088E090E0DF91CF911F910F91EF90DF90C6
:10045000CF90BF90AF909F908F90089590E080E0F4
:10046000F1CF84E090E0EECF90E080E008950F932C
:100470001F93009709F485C06115710509F481C0C7
:10048000009148021091490220914A0230914B029A
:100490000E3F1F4F2F4F3F4F09F064C04FEF5FEFEC
:1004A000BA01409348025093490260934A02709304
:1004B0004B02409148025091490260914A0270916A
:1004C0004B02DC011296ED91FC9180819181A28119
:1004D000B3818093A0039093A103A093A203B09350
:1004E000A30384819581A681B78180939C03909317
:1004F0009D03A0939E03B0939F0380859185A28561
:10050000B3858093980390939903A0939A03B09333
:100510009B0384859585A685B785809394039093E6
:100520009503A0939603B0939703109290031092B3
:10053000910310929203109293030E94800C85EA1B
:100540009CE090931D0380931C030E947F0B0097F7
:1005500031F421E030E03093A5032093A4031F91F0
:100560000F910895009148021091490220914A028A
:1005700030914B02DB010D931D932D933C93139708
:1005800098CF8FEF9FEFEBCF8F929F92AF92BF925A
:10059000CF92DF92EF92FF921F93CF93DF934B01A5
:1005A0005C011091A70382E090E09093A5038093F3
:1005B000A40381149104A104B10441F48091A70320
:1005C000811104C08091A603C1E08111C0E0C12C5B
:1005D000D12C76018091A703811106C08091A603DA
:1005E000811102C0CC23D9F083E090E09093A50361
:1005F0008093A403CC2381F1CCE9DFEF111102C079
:100600000E940910CE01DF91CF911F91FF90EF90D2
:10061000DF90CF90BF90AF909F908F9008956AE049
:1006200070E080E090E00E94BB2F80E1C80E87E27E
:10063000D81EE11CF11C8FEF88169806A806B80694
:1006400031F0C1E08C149D04AE04BF0408F0C0E09A
:1006500080E00E94AB0BBECFD0E0C0E0CFCFCF9206
:10066000DF92EF92FF921F93CF93DF938F3F91051D
:1006700011F008F042C02091A4033091A50323306B
:10068000310539F02091A4033091A50321303105C3
:1006900031F424E030E03093A5032093A4036A01F1
:1006A0007B01EC01892BB1F011E0AE01C701B6016D
:1006B0000E947E0BAB01BC0190E080E01123F9F0B9
:1006C000CE01DF91CF911F91FF90EF90DF90CF90FF
:1006D0000C941E1280911C0390911D03892B21F311
:1006E0000E942512029701F7E0911C03F0911D036F
:1006F00090E080E01995182FD8CF8FEF9FEFDF9112
:10070000CF911F91FF90EF90DF90CF90089580E000
:100710000C94AB0BCF93DF9386E090E09093A5030E
:100720008093A4030E94040CEC0110921D0310920C
:100730001C030E94A10F1092A5031092A403CE01E6
:10074000DF91CF9108958091A603089580918F0342
:100750000895609348027093490280934A029093EF
:100760004B0290E080E008952F923F924F925F926B
:100770006F927F928F929F92AF92BF92CF92DF92B1
:10078000EF92FF920F931F93CF93DF93CDB7DEB716
:10079000AC970FB6F894DEBF0FBECDBF80917E0937
:1007A0008150823008F0E6C383E080937E09809117
:1007B00086098150823008F0DFC383E08093860988
:1007C000809185098150823008F0D8C383E08093FE
:1007D0008509C0900D02D0900E02E0900F02F090BB
:1007E0001002A701960160911D0970911E09809168
:1007F0001F09909120090E941328882341F0C0927C
:100800001D09D0921E09E0921F09F09220098BE386
:100810008F87C12CEE24E39401E010E020E030E06B
:10082000AE01415F5F4F68E670E0809113099091DF
:100830001409DBDD8F878111A3C3CC24C394E12C81
:1008400006E010E020E030E0AE014F5F5F4F68E669
:1008500070E080911309909114095DDD86E0FE013E
:100860003196DE01179601900D928A95E1F78F81FE
:1008700098859F83888789859A8599878A878B85BC
:100880009C858D879E879B878C876F817885072EB7
:10089000000C880B990B0E94AD2820E030E040E866
:1008A00058E30E948D296B017C0169857A85072EAA
:1008B000000C880B990B0E94AD2820E030E040E846
:1008C00058E30E948D294B015C016B857C85072EC6
:1008D000000C880B990B0E94AD2820E030E040E826
:1008E00058E30E948D299B01AC010E948D292B01A8
:1008F0003C01A7019601C701B6010E948D29A30101
:1009000092010E9487270E94F4299B01AC01C50136
:10091000B4010E9417280E94EB2720E030E044E356
:1009200053E40E948D292BED3FE049E450E40E94FE
:10093000172821EE3AE744E15FE30E9486272091E1
:1009400025023091260240912702509128020E94F0
:100950008D29688B798B8A8B9B8B209171093091C3
:10096000720940917309509174096091210270914C
:10097000220280912302909124020E948D299B01E2
:10098000AC01688979898A899B890E94872760934D
:100990008709709388098093890990938A09A50132
:1009A0009401C501B4010E948D29A30192010E9406
:1009B00087270E94F4299B01AC01C701B60190581A
:1009C0000E9417280E94EB2720E030E044E353E424
:1009D0000E948D292BED3FE049E450E40E94172846
:1009E00021E73DE34AEC5FE30E948727209135022F
:1009F0003091360240913702509138020E948D2981
:100A00006B017C012091750930917609409177093D
:100A100050917809609131027091320280913302D5
:100A2000909134020E948D299B01AC01C701B6014F
:100A30000E94872760938B0970938C0980938D099E
:100A400090938E098091790990917A09A0917B0900
:100A5000B0917C0980938F0990939009A09391099C
:100A6000B0939209C0901102D0901202E09013024C
:100A7000F0901402A70196016091090970910A098A
:100A800080910B0990910C090E941328882341F052
:100A9000C0920909D0920A09E0920B09F0920C0960
:100AA00083E48F87C12CEE24E39401E010E020E082
:100AB00030E0AE01415F5F4F68E670E08091FF0873
:100AC0009091000992DC8F87811161C2CC24C3947C
:100AD000E12C06E010E020E030E0AE014F5F5F4F18
:100AE00068E670E08091FF089091000914DC86E0D0
:100AF000FE013196DE01179601900D928A95E1F77D
:100B00008F8198859F83888789859A8599878A8729
:100B10008B859C858D879E879B878C87C0904102A3
:100B2000D0904202E0904302F09044026F817885B9
:100B3000072E000C880B990B0E94AD28A701960187
:100B40000E948D291B018C01CB01D8018093930950
:100B500090939409A0939509B093960969857A8535
:100B6000072E000C880B990B0E94AD28A701960157
:100B70000E948D296C8B788F8C8F9D8FCB01AC8DD3
:100B8000BD8D8093970990939809A0939909B0938C
:100B90009A096B857C85072E000C880B990B0E94A7
:100BA000AD28A70196010E948D296E8F7F8F88A3A3
:100BB00099A3CB01A8A1B9A180939B0990939C090B
:100BC000A0939D09B0939E09C0906802D0906902DD
:100BD000E0906A02F0906B02A7019601C701B6018E
:100BE0000E948D294B015C01AC019B01C701B6013C
:100BF0000E948D29A50194010E9486272B013C01AA
:100C000020E030E040E85FE30E94822918160CF0F3
:100C1000C5C1A7019601B101C8010E948D29688B49
:100C2000798B8A8B9B8B9B01AC01C701B6010E941B
:100C30008D296AA37BA38CA39DA3A5019401B10177
:100C4000C8010E948D292AA13BA14CA15DA10E944F
:100C50008627A30192010E9417286EA37AA78BA76B
:100C60009CA7288939894A895B896AA17BA18CA1C3
:100C70009DA10E948627A30192010E9417282B01A3
:100C80003C0180916C0290916D02A0916E02B09136
:100C90006F02888B998BAA8BBB8B9C01AD01CD0118
:100CA000B9010E948D294B015C01A3019201C7018A
:100CB000B6010E948D292EA13AA54BA55CA50E94E4
:100CC00087279B01AC01B101C8010E9486276EA352
:100CD0007FA388A799A7A5019401688979898A8942
:100CE0009B890E948D29A50194010E9486276B0192
:100CF0007C0120E030E040E85FE30E948229181682
:100D00000CF051C1288939894A895B896C89788DB1
:100D10008C8D9D8D0E948D296AA37BA38CA39DA39E
:100D20009B01AC01688979898A899B890E948D29F8
:100D30002B013C01A50194016C89788D8C8D9D8DD2
:100D40000E948D29A30192010E948627A701960186
:100D50000E941728362E272E8C012AA13BA14CA1D8
:100D60005DA1C301B2010E948627A70196010E94DE
:100D700017286B017C0140907002509071026090C6
:100D8000720270907302A3019201C301B2010E942A
:100D90008D294B015C01A7019601688979898A89AF
:100DA0009B890E948D29232D322DA8010E9487271F
:100DB0009B01AC016C89788D8C8D9D8D0E9486275E
:100DC000688F798F8A8F9B8FA5019401C301B2012F
:100DD0000E948D29A50194010E9486276B017C0148
:100DE00020E030E040E85FE30E94822918160CF012
:100DF000DFC0A30192016E8D7F8D88A199A10E9411
:100E00008D29688B798B8A8B9B8B9B01AC01C301ED
:100E1000B2010E948D296C8B7D8B8E8B9F8BA501DF
:100E200094016E8D7F8D88A199A10E948D292C89B6
:100E30003D894E895F890E948627A70196010E94FD
:100E400017284B015C01288939894A895B896C899B
:100E50007D898E899F890E948627A70196010E941D
:100E600017286B017C01A7019601C301B2010E9402
:100E70008D299401A5010E9487279B01AC016E8DED
:100E80007F8D88A199A10E9486274B015C018091EA
:100E90007D0980939F09811190C081E08093A00912
:100EA00001E061E010E083E3F6D9602F84E3F3D939
:100EB0006091A00985E3EFD9612F82E3ECD980919D
:100EC0007D0990914702890F83708F8720E030E081
:100ED000A901609161097091620980916309909103
:100EE00064090E94822918160CF085C08BE68D8754
:100EF00060910502709106028091070290910802AC
:100F00000E947F286E87C12CE12C02E010E020E0D7
:100F100030E0AE01435F5F4F68E670E080913709D3
:100F20009091380962DA8CE18D87609109027091A5
:100F30000A0280910B0290910C020E947F286E871A
:100F400002E010E020E030E0AE01435F5F4F68E672
:100F500070E0809127099091280947DA80917E09F5
:100F6000882309F444C0833009F4F7C0082E000C2C
:100F7000990B3FC080E019CC80E020CC80E027CCEA
:100F800018861F821A8619861C861B867ECC1886B8
:100F90001F821A8619861C861B86C0CD2EA23AA6F1
:100FA0000BA71CA76ECE3C88288C0C8D1D8DE3CE24
:100FB0008E8C9F8CA8A0B9A056CF813031F480933D
:100FC000A00901E060E011E06ECF823031F481E0F1
:100FD0008093A00900E061E0F6CF833021F4109205
:100FE000A00901E0F8CF81E08093A009FACF82E068
:100FF00090E080937E092091190230911A0240916D
:101000001B0250911C026EA17FA188A599A50E9488
:101010008D29209171093091720940917309509185
:1010200074090E94872760937109709372098093F5
:101030007309909374092091290230912A024091FA
:101040002B0250912C02688D798D8A8D9B8D0E9488
:101050008D29209175093091760940917709509139
:1010600078090E94872760937509709376098093A9
:101070007709909378092091390230913A02409192
:101080003B0250913C02C501B4010E948D29209180
:10109000790930917A0940917B0950917C090E942D
:1010A00087276093790970937A0980937B099093DD
:1010B0007C098F8590910402981710F48091450265
:1010C00080937D0910926109109262091092630960
:1010D0001092640960916A0370916B0380916C03B4
:1010E00090916D036F5F7F4F8F4F9F4F60936A03A7
:1010F00070936B0380936C0390936D030E94AB28F5
:101100009B01AC0160916E0370916F03809170033D
:10111000909171030E948D29609366037093670319
:101120008093680390936903AC960FB6F894DEBF82
:101130000FBECDBFDF91CF911F910F91FF90EF9028
:10114000DF90CF90BF90AF909F908F907F906F90E7
:101150005F904F903F902F90089581E090E049CFAD
:101160003F924F925F926F927F928F929F92AF9237
:10117000BF92CF92DF92EF92FF920F931F93CF9384
:10118000DF93E0E5F3E080E090E0A0E8BFEB82A32E
:1011900093A3A4A3B5A38AE097EDA3EABCE3868F4B
:1011A000978FA0A3B1A387E494E9A0E1B7EB848370
:1011B0009583A683B78387EE9AE4A1E7BEE1808793
:1011C0009187A287B3878AEB9EE5ABE5BBE3848773
:1011D0009587A687B78787E99BECA0ECB0EA808B60
:1011E000918BA28BB38BA4E4B3E0B383A283EEE133
:1011F000F3E01196FC93EE9385E692E09183808371
:101200009383828395838483978386839187808762
:10121000938782872EE739E03587248737872687AB
:10122000318B208B938B828B958B848B26E839E0D6
:10123000378B268B25E839E0318F208F24E839E081
:10124000338F228F23E839E0358F248F22E839E06D
:10125000378F268F21E839E031A320A393A382A3FF
:1012600095A384A384E693E015969C938E9314979C
:1012700084E593E013969C938E93129786E693E011
:1012800017969C938E931697C9EFD8E004E012E06E
:10129000F801818D928DA38DB48D80937109909307
:1012A0007209A0937309B093740981A592A5A3A5AF
:1012B000B4A58093750990937609A0937709B093AC
:1012C000780981AD92ADA3ADB4AD809379099093C7
:1012D0007A09A0937B09B0937C09809146028093A0
:1012E0007D0981899289A389B4898093610990934A
:1012F0006209A0936309B0936409412C80E5582EDC
:1013000083EC682E88E4782E40923D0950923E0985
:1013100060923F09709240091FAE1EAE18AE1DAE1E
:10132000C12CD12C7601C394C9AEDAAEEBAEFCAEC3
:1013300050E040E060E070E0CB010E9452019FAFBE
:101340008EAF20EA822E26E8922EAA24A394B12CF6
:101350008092390990923A09A0923B09B0923C09D7
:1013600040EA56E861E070E00E947601332433944D
:101370003DAE4CAA5DAA6EAA7FAA1FA61EA618A6FD
:101380001DA6C9A6DAA6EBA6FCA650E040E060E0E8
:1013900070E0CB010E9452019FA78EA788AA99AA4C
:1013A000AAAABBAA40EA56E861E070E00E94760172
:1013B0003DA648A259A26AA27BA21B8E1A8E1C8A45
:1013C000F80181859285A385B4858CA39DA3AEA3E6
:1013D000BFA3198ECD8ADE8AEF8AF88E50E040E0F6
:1013E00060E070E0CB010E9452019B8F8A8F8C8E4F
:1013F0009D8EAE8EBF8E40EA56E861E070E00E949E
:101400007601398E4C865D866E867F861F821E82AF
:101410001882F80185859685A785B089888B998B78
:10142000AA8BBB8B1D82C982DA82EB82FC8250E0E0
:1014300040E060E070E0CB010E9452019F838E8308
:1014400088869986AA86BB8640EA56E861E070E005
:101450000E9476013D8210925909C0925A09D09299
:101460005B09E0925C09F0925D0961E083E30E9410
:10147000430130925E0910925109C0925209D092F4
:101480005309E0925409F092550961E084E30E9407
:1014900043013092560910924909C0924A09D092EC
:1014A0004B09E0924C09F0924D0961E085E30E94FE
:1014B000430130924E0910924109C0924209D092E4
:1014C0004309E0924409F092450961E082E30E94F9
:1014D000430130924609DF91CF911F910F91FF9008
:1014E000EF90DF90CF90BF90AF909F908F907F90C4
:1014F0006F905F904F903F9008954F925F926F92E0
:101500007F928F929F92AF92BF92CF92DF92EF9293
:10151000FF920F931F93F89440908303509084039D
:101520006090850370908603C0907703D090780315
:10153000E0907903F0907A03452B09F0A4C09B0159
:10154000AC01241935094609570929013A010091CE
:101550007F03109180032091810330918203480121
:101560005901840C951CA61CB71C80169106A20676
:10157000B306A0F400917B0310917C0320917D03BE
:1015800030917E030F5F1F4F2F4F3F4F00937B0320
:1015900010937C0320937D0330937E0380927F031E
:1015A00090928003A0928103B092820300917B030A
:1015B00010917C0320917D0330917E0380928703FC
:1015C00090928803A0928903B0928A0300938B03C0
:1015D00010938C0320938D0330938E0360938303C9
:1015E000709384038093850390938603A0E2BEE406
:1015F000A30192010E94D4346C0D7D1D8E1D9F1D90
:1016000060937703709378038093790390937A03C0
:10161000009148021091490220914A0230914B02F8
:101620000F3F1F4F2F4F3F4FF1F000914802109195
:10163000490220914A0230914B020E3F1F4F2F4F1B
:101640003F4F89F0C0904802D0904902E0904A0292
:10165000F0904B0221E08C149D04AE04BF0408F40A
:1016600020E020938F0378941F910F91FF90EF90CB
:10167000DF90CF90BF90AF909F908F907F906F90B2
:101680005F904F9008954B015C0184189508A6085F
:10169000B708A3019201261B370B480B590B6415A1
:1016A000750586059705D0F082169306A406B50643
:1016B00040F420E030E0A90181149104A104B104B8
:1016C00091F4A0E2BEE40E94D434A7019601261B47
:1016D000370B480B590BCA01B901C5CF82169306C7
:1016E000A406B50670F7A0E2BEE4A50194010E942D
:1016F000D4346C0D7D1D8E1D9F1DB5CFFECECF93B6
:10170000DF9300D01F92CDB7DEB71C821B821A82F6
:101710001982BE016F5F7F4FCE0103960E94D325D1
:1017200069817A818B819C810E94061F009761F4F8
:10173000BE016F5F7F4FCE0103960E94DF25698156
:101740007A818B819C8126D50F900F900F900F90FE
:10175000DF91CF910895FF920F931F93CF93DF9363
:10176000082F60E070E0CB010E94BB2FFF24F394B0
:101770000E94EF1DEC01892B89F010E0CE3F8FEF26
:10178000D80769F0002361F160E070E0CB010E94AE
:10179000BB2F81E090E0892B59F322C011E01DD5C9
:1017A000EC01892B21F0CE3F8FEFD80759F71111AB
:1017B0001EC011E0229609F410E00E949F1DEC016A
:1017C000892B21F0CE3F8FEFD807E1F6111111C020
:1017D00011E0CE3F8FEFD80709F410E001110BC0E4
:1017E000CE01DF91CF911F910F91FF90089511E0ED
:1017F000E4CF11E0F3CF60E070E0CB010E94BB2F9B
:101800001F25812F90E0C7CFCF93DF931ED6D0E066
:10181000C0E0892B71F06AE070E080E090E00E9407
:10182000BB2F81E098DF11D62196C03D27E0D2077B
:1018300081F710D60E945A1F1092A7031092A60398
:101840001092A0031092A1031092A2031092A3037E
:1018500010929C0310929D0310929E0310929F037E
:10186000109298031092990310929A0310929B037E
:10187000109294031092950310929603109297037E
:10188000109290031092910310929203109293037E
:101890004EEF5FEF6FEF7FEF4093480250934902A6
:1018A00060934A0270934B0210928F03E7E8F3E0D3
:1018B00028E0DF011D922A95E9F710928303109228
:1018C0008403109285031092860310927F03109276
:1018D0008003109281031092820310927B03109276
:1018E0007C0310927D0310927E0310927703109276
:1018F00078031092790310927A03DF91CF910895C3
:101900001092B3031092B4031092B5031092B60371
:101910001092B2038091BB039091BC039093B103EA
:101920008093B0031092AF031092AE031092AA03FB
:101930001092AB031092AC031092AD031092B80357
:101940001092B70390E080E00895CF92DF92EF927B
:10195000FF920F931F93CF938C01892B09F055C0F1
:101960002091BB033091BC038091B0039091B103EF
:101970004091BB035091BC035093B1034093B0031B
:101980002817390781F01092AF031092AE0310921E
:10199000AA031092AB031092AC031092AD03109205
:1019A000B8031092B7038091BB039091BC030197D9
:1019B00061F58091B7039091B803892B21F4809150
:1019C0004C02811112C08091B7039091B803019726
:1019D000E1F48091AA039091AB03A091AC03B09184
:1019E000AD030197A105B10581F41092AA031092ED
:1019F000AB031092AC031092AD0310924C0282E044
:101A000090E09093B8038093B7038091BB039091CB
:101A1000BC03019709F01CC18091D1039091D203BE
:101A20008017910709F014C18091CD039091CE03E6
:101A3000A091CF03B091D003009709F409C1209180
:101A4000CC0321110DC04091CD035091CE03609184
:101A5000CF037091D003452B462B472B09F4F8C0D8
:101A60002091B7033091B8032230310509F0F0C05E
:101A70002091AE032111ECC0FC01C080D180E28036
:101A8000F3808091B203882309F4D3C08091BE0310
:101A90009091BF03892B09F4FDC02091BE033091C2
:101AA000BF0381E02230310509F080E02091BE03C0
:101AB0003091BF03C1E02130310549F02091BE03D0
:101AC0003091BF03C1E02230310509F0C0E0882326
:101AD00009F456C02091C8033091C9034091CA034C
:101AE0005091CB03C701B6010E94822987FD14C023
:101AF0002091C8033091C9034091CA035091CB0390
:101B00006091B3037091B4038091B5039091B603D3
:101B10000E94132887FD22C02091C8033091C90379
:101B20004091CA035091CB03C701B6010E9482299C
:101B3000181634F52091C8033091C9034091CA03A7
:101B40005091CB036091B3037091B4038091B503BE
:101B50009091B6030E941328811112C08091C00396
:101B60009091C103A091C203B091C303892B8A2B2A
:101B70008B2B19F481E08093AF0381E08093AE0357
:101B8000CC2309F456C02091C8033091C903409179
:101B9000CA035091CB03C701B6010E94132887FFE7
:101BA00014C02091C8033091C9034091CA035091D9
:101BB000CB036091B3037091B4038091B50390910E
:101BC000B6030E94822987FF22C02091C80330916A
:101BD000C9034091CA035091CB03C701B6010E94CB
:101BE0001328811126C02091C8033091C903409168
:101BF000CA035091CB036091B3037091B4038091F9
:101C0000B5039091B6030E948229181694F480912E
:101C1000C0039091C103A091C203B091C303892B6B
:101C20008A2B8B2B19F481E08093AF0381E08093A2
:101C3000AE0381E09091AE03911180E08093B203F6
:101C4000C092B303D092B403E092B503F092B6030E
:101C5000012B09F067C18091B7039091B803892BDC
:101C6000D9F41092BD031092AE0380914C028823E8
:101C700079F082E090E09093B8038093B7031092DC
:101C80004C022091BB033091BC0381E0232BE9F08F
:101C900080E01BC081E00ACF10924C028091BD030E
:101CA000882349F01092AF031092B8031092B70343
:101CB0001092BD03EDCF8091BB039091BC03892BA3
:101CC000E1F08091AE031092AE032091B703309102
:101CD000B8032230310509F45EC088F421153105BE
:101CE00009F448C02130310509F4F3C01092AF0364
:101CF0001092AE031092BD0338C081E0E6CF2330CE
:101D0000310509F4B1C02430310581F74091AA03AF
:101D10005091AB036091AC037091AD034115510537
:101D20006105710561F041505109610971094093E4
:101D3000AA035093AB036093AC037093AD0340913F
:101D4000AA035091AB036091AC037091AD03452B96
:101D5000462B472BD9F42091B9033091BA03213097
:101D6000310509F046C01092AF031092B8031092EB
:101D7000B7030CC080914C02882341F082E090E0D0
:101D80009093B8038093B70310924C021092A8036B
:101D90008091AF03CEC08823C9F38091C003909196
:101DA000C103A091C203B091C303181619061A0605
:101DB0001B060CF07DC08091BB039091BC03019782
:101DC00009F076C08091C0039091C103A091C20335
:101DD000B091C3038093AA039093AB03A093AC0389
:101DE000B093AD0383E090E09093B8038093B70382
:101DF000CDCF4091C4035091C5036091C60370914B
:101E0000C703452B462B472BA9F01092AF038091B7
:101E1000C4039091C503A091C603B091C7038093FA
:101E2000AA039093AB03A093AC03B093AD0381E0FE
:101E300090E0DACF882399F080914D0290914E0284
:101E4000A0914F02B09150028093AA039093AB03EC
:101E5000A093AC03B093AD0384E090E0C5CF1092A3
:101E6000AF0382E090E0C0CF8091AA039091AB03D2
:101E7000A091AC03B091AD030097A105B10559F055
:101E80000197A109B1098093AA039093AB03A09392
:101E9000AC03B093AD038091AA039091AB03A091E2
:101EA000AC03B091AD03892B8A2B8B2B09F06ECF3D
:101EB00080914D0290914E02A0914F02B09150023C
:101EC000892B8A2B8B2B09F44ECF81E08093AF03B3
:101ED000B3CF4091AA035091AB036091AC037091D2
:101EE000AD03411551056105710561F0415051097E
:101EF000610971094093AA035093AB036093AC034B
:101F00007093AD034091AA035091AB036091AC0371
:101F10007091AD03452B462B472B09F037CF81112C
:101F2000C7CF9FCF8091A803882309F431CF809138
:101F3000A903CF911F910F91FF90EF90DF90CF9069
:101F400008951092B3031092B4031092B503109247
:101F5000B6031092B2031092B8031092B703109216
:101F6000B1031092B0031092D2031092D1031092D9
:101F7000AF031092AE031092AA031092AB0310921B
:101F8000AC031092AD031092A9031092A803109213
:101F9000CD031092CE031092CF031092D003109273
:101FA000CC031092C8031092C9031092CA03109276
:101FB000CB0388EE93E0A0E0B0E080934D029093D5
:101FC0004E02A0934F02B09350021092C40310929D
:101FD000C5031092C6031092C7031092C00310925B
:101FE000C1031092C2031092C3031092BF03109258
:101FF000BE0381E080934C021092BD031092BC039B
:102000001092BB031092BA031092B90390E080E0E3
:1020100008958091BB039091BC03892B19F58091A1
:102020004C02882351F08091BD03811106C081E0EC
:102030008093A9038093A80308952091BD03309154
:102040004C0281E090E0332311F090E080E030E03A
:1020500082239323892B21F01092A90381E0EACFF8
:102060001092A803089582E090E0FA0191838083A2
:102070008FEF9FEF0895CF93DF93EA01009711F060
:102080000E9471201982188290E080E0DF91CF9148
:102090000895DB01009719F48FEF8C9308952EEFCC
:1020A0002C93FC013F96EF30F10508F034C08827EF
:1020B000E35AFF4E8F4F0C94CC3489108710851053
:1020C000831081107D107F107B10791077107410B1
:1020D00070106C1072108B1080E311968C93089521
:1020E00089E2FBCF82E2F9CF11961C92089583E238
:1020F000F4CF81E2F2CF81E1F0CF87E2EECF8AE246
:10210000ECCF80E1EACF84E2E8CF88E2E6CF86E256
:10211000E4CF81E3E2CF80E2E0CF8091DF039091D2
:10212000E00308959093E0038093DF030895809186
:10213000DE0308959091DE03892B8093DE030895DA
:10214000982F90958091DE0389238093DE03089574
:102150008091DD0308958091DB039091DC03089565
:102160006115710559F0FB0130E020E070E060E09E
:102170002417350719F06115710511F0CB01089589
:10218000A081B181A817B90709F4BF012F5F3F4FA4
:102190003696EECF8091E10381111CC041D247D227
:1021A0009093D4038093D3030E94E2190E94F41900
:1021B0009093D8038093D7030E94071D0E940E1DA1
:1021C0009093D6038093D50381E08093E10390E060
:1021D00080E0089584EF9FEF08958F929F92AF92D1
:1021E000BF92CF92DF92EF92FF920F931F93CF9304
:1021F000DF9300D000D000D01F92CDB7DEB71A8693
:10220000198618861F821E821D821C821B821A82DA
:1022100019828091E10307EF1FEF882309F48BC037
:102220008E010D5F1F4F9E012B5F3F4FAE01495F37
:102230005F4FBE01675F7F4F90E080E00E948B1E82
:102240008C01009721F00596029708F0C7C0898598
:102250009A85009709F4EFC0ED80FE802B813C81C8
:102260002E0D3F1D4F8158854217530708F4E3C0D8
:10227000E80EF91ED7014C912091DF033091E00365
:10228000232B09F494C0413F08F069C08CE1840F0E
:102290008D3008F483C08DE2840F803108F481C052
:1022A00088E3840F8B3008F47FC099E4C92E90E155
:1022B000D92EE3E3F0E16D817E81AE014F5F5F4F88
:1022C00089859A8519955C01C114D104A1F1898091
:1022D0009A808114910479F18B819C8188159905EC
:1022E00008F484C010E000E04B815C8170E060E0A5
:1022F000C7010E94F63401151105E9F449815A819C
:1023000069857A858D819E81680F791FC501F601E7
:102310001995E980FA800D811E812F8138854985C4
:102320005A856FEF7FEF81E090E00E94261E8C01BE
:10233000892B09F053C0C8012A960FB6F894DEBF66
:102340000FBECDBFDF91CF911F910F91FF90EF9006
:10235000DF90CF90BF90AF909F908F90089530E026
:1023600020E0220F331FF901ED52FC4F0190F08164
:10237000E02D309709F499CF842F90E019950097BC
:1023800009F493CFDC011296ED91FC91139714960A
:10239000CD90DC90309709F08ECF1EC021E030E068
:1023A000E0CF22E030E0DDCF23E030E0DACFD12C07
:1023B000C12CEBE3F0E14F3F09F07DCFE091D30377
:1023C000F091D403309719F404EF1FEF0CC08FEF96
:1023D00090E019950097B1F604EF1FEF89859A8573
:1023E000009709F4A8CF0E947120A5CF0E94551F25
:1023F0008C0189859A850E94712070E060E0C4019B
:102400000E94EE1E98878F830E94231E9E838D83D9
:102410006F8178856115710559F0C8010E94072206
:102420009A87898706EF1FEF892B09F05BCF5CCF76
:1024300008EF1FEF59CF08EF1FEFD0CF2091E10336
:102440002111D7C787EF9FEF08958091DF03909107
:10245000E00308950E94131D0E946D1CEDD0E3ED72
:10246000F3E088E0DF011D928A95E9F71092E1031D
:1024700090E080E0089586E090E0FA019183808307
:1024800090E080E0089547E050E064E772E068CEB5
:10249000DF92EF92FF920F931F93CF93DF938A0106
:1024A000EC01C60FD71FE090E503F090E603D9805A
:1024B0000E943D1FD816190678F082E090E0F801DE
:1024C000918380838EEF9FEFDF91CF911F910F91CA
:1024D000FF90EF90DF900895EF2841F482E090E0C4
:1024E000F8019183808384EF9FEFEECF8981809301
:1024F000E40390E00196F8019183808390E080E00E
:10250000E3CFCF93DF93EA010E94811B882321F060
:102510000E944A1F0E94821B82E090E09983888378
:102520008BEF9FEFDF91CF910895CF93DF93EB0176
:1025300086E0FB0111928A95E9F78FEF8883F7DD3A
:10254000898306DE8A8307DE9D838C83DF91CF91AA
:102550000895CF93DF93EA010E94841B811109C083
:1025600082E090E09983888385EF9FEFDF91CF91A0
:10257000089590E080E0D6DD81E090E09983888343
:1025800090E080E0F3CF0F931F93CF93DF93EA01A6
:102590008C01060F171F0E94841B81110BC082E063
:1025A00090E09983888385EF9FEFDF91CF911F9112
:1025B0000F910895F8018181823038F082E090E037
:1025C000998388838EEF9FEFF0CF81E090E0AADDC2
:1025D00088E090E09983888390E080E0E6CFCF9315
:1025E000DF930097D1F4EB01FB01329686E0DF0127
:1025F0001D928A95E9F78FEF888385E089831A8297
:102600000E943D1F8B830E943C1F9D838C8381E031
:102610008E838F83DF91CF910895DF91CF9139CD54
:1026200083E492E19093E3038093E2030895809121
:10263000E2039091E30308951092E3031092E20302
:1026400008958091E5039091E6030895411105C036
:10265000611571058105910561F06093E503709343
:10266000E6038093E7039093E8034093E90381E056
:10267000089580E00895FF920F931F93CF93DF9307
:102680008A01EC01C60FD71FF9800E943D1FF81682
:10269000190668F082E090E0F801918380838EEF64
:1026A0009FEFDF91CF911F910F91FF9008956C8163
:1026B0007D818E819F814B81C9DF811108C082E0BD
:1026C00090E0F8019183808384EF9FEFEACF8981C6
:1026D0008093E40390E00196F8019183808390E079
:1026E00080E0DFCFCF93DF93EA01FC01E60FF71F15
:1026F00064817581868197814381A8DF811109C03A
:1027000082E090E09983888384EF9FEFDF91CF91FF
:10271000089581E090E09983888390E080E0F6CF8F
:10272000E5EEF3E04081518162817381480F511DD4
:10273000611D711D40835183628373830895CF931C
:10274000C091E4034C2F50E06091E5037091E603E3
:1027500001960E94ED348C2FE3DF1092E403CF91B9
:102760000895009799F48091E5039091E6032FEF87
:10277000FB012083892B59F02091E40330E02F5F87
:102780003F4F2417350719F4CB01D9CF82CC0895D8
:10279000009799F48091E5039091E6032FEFFB01F8
:1027A0002083892B59F02091E40330E02F5F3F4FC5
:1027B0002417350719F4CB01C2CF6BCC08952DE057
:1027C000AC01249FC001259F900D1124E091EE03E0
:1027D000F091EF03E80FF91F238134812250310972
:1027E00081E02230310508F080E008950F931F93B7
:1027F000CF93DF930091F0031091F103D0E0C0E09C
:1028000080E00C171D0749F491E0811190E0892FB9
:10281000DF91CF911F910F9108958111F5CFCE01D6
:10282000CEDF2196EECFA091EE03B091EF0310978B
:1028300029F12091F0033091F10382179307F0F40E
:102840005DE0589F9001599F300D1124A20FB31FD6
:10285000ED91FC911197309789F012968C91681741
:1028600068F485E0689FE00DF11D1124808191815D
:10287000892B21F081E09281491708F080E00895CA
:10288000EF92FF920F931F93CF93DF93EA01FC0126
:10289000E60FF71F02811381E480F5804F2D6E2D26
:1028A000C801C1DF81110DC082E090E09983888367
:1028B0008EEF9FEFDF91CF911F910F91FF90EF90DF
:1028C0000895C8017CDF882339F082E090E0998385
:1028D000888388EF9FEFEECF109358020093570242
:1028E000E0925902F0925A0281E090E09983888345
:1028F00090E080E0DFCFCF92DF92EF92FF920F93D4
:102900001F93CF93DF937A01EC01C60FD71FC090BE
:102910005702D09058020091590210915A02412F4B
:10292000602FC60180DF811110C082E090E0F701C6
:10293000918380838AEF9FEFDF91CF911F910F9159
:10294000FF90EF90DF90CF900895C60138DF882385
:1029500041F082E090E0F7019183808388EF9FEF60
:10296000EBCF4C815D816E817F819A8189818F3F20
:1029700041F082E090E0F701918380838EEF9FEF3A
:10298000DBCFEDE0EC9D9001ED9D300D1124E09149
:10299000EE03F091EF03E20FF31F0190F081E02DC1
:1029A00025E0029FE00DF11D11240190F081E02D42
:1029B00027E0129FE00DF11D1124808391838B810C
:1029C000828343835483658376831F5F10935A0207
:1029D00081E090E0F7019183808390E080E0ACCFCC
:1029E000EF92FF920F931F93CF93DF937A018C01A5
:1029F000060F171FC091EE03D091EF03209781F0CF
:102A000021E030E0F801828193814091F003509100
:102A1000F1038417950710F030E020E0232B71F4C8
:102A200082E090E0F701918380838EEF9FEFDF914A
:102A3000CF911F910F91FF90EF9008954DE0489F27
:102A40009001499F300D1124C20FD31FB8DE882397
:102A500041F082E090E0F7019183808388EF9FEF5F
:102A6000E6CFF8012481358120383105C8F6878109
:102A70008111D6CF4181842F90E08F7E009741F065
:102A800082E090E0F7019183808386EF9FEFCFCFC4
:102A90004F833E832D83268128871986223010F4A8
:102AA00021E0288721E030E0F70131832083BFCF88
:102AB00088E090E0FA019183808390E080E00895BF
:102AC000FB018FEF808381E181838FEF9FEF938301
:102AD000828380E890E0958384831682178208952C
:102AE000FB018FEF808391E09183828393838483C2
:102AF00084E3858381E090E09783868308954BE0AB
:102B000050E06EE972E02CCB8F929F92BF92CF92F1
:102B1000DF92EF92FF920F931F93CF93DF93EA011F
:102B2000FC01E60FF71F828193810481B580E0915B
:102B3000EE03F091EF03309791F482E090E09983F7
:102B400088838CEF9FEFDF91CF911F910F91FF90C2
:102B5000EF90DF90CF90BF909F908F90089520913D
:102B6000F0033091F1038217930738F082E090E090
:102B7000998388838EEF9FEFE6CF2DE0289F600139
:102B8000299FD00C1124EC0DFD1DE080F180E11493
:102B9000F10499F28281081748F785E0089F8001C7
:102BA0001124E00EF11EF70180819181892B29F615
:102BB000BB20E1F2F7E0BF9E40011124C4010E9456
:102BC0002620F70191838083E091EE03F091EF03DB
:102BD000EC0DFD1D0190F081E02DE00FF11F8081D3
:102BE0009181009739F482E090E0998388838DEF9A
:102BF0009FEFA9CFA40170E060E00E94F6348091BD
:102C0000EE039091EF03C80ED91EF60180819181E9
:102C1000080F191FF801B28281E090E09983888340
:102C200090E080E090CFAF92BF92CF92DF92FF9280
:102C30000F931F93CF93DF93EA01FC01E60FF71F79
:102C400082819381F4800091EE031091EF030115CE
:102C5000110581F482E090E0998388838CEF9FEFE7
:102C6000DF91CF911F910F91FF90DF90CF90BF9098
:102C7000AF9008952091F0033091F10382179307EC
:102C800038F082E090E0998388838EEF9FEFE8CF61
:102C90002FEF2F0D2C3FA8F72DE0289F6001299FD3
:102CA000D00C11240C0D1D1DF80180819181892B00
:102CB00089F6F5E0FF9E50011124C5010E942620EF
:102CC000F80191838083E091EE03F091EF03EC0D26
:102CD000FD1D80819181009739F482E090E0998315
:102CE00088838DEF9FEFBCCFA50170E060E00E946C
:102CF000F634E091EE03F091EF03EC0DFD1DF2824E
:102D000081E090E09983888390E080E0A9CFCF9222
:102D1000DF92EF92FF920F931F93CF93DF93860F73
:102D2000971FFC01028113818091EE039091EF03C4
:102D3000892B81F082E090E0FA01918380838CEF0F
:102D40009FEFDF91CF911F910F91FF90EF90DF9058
:102D5000CF900895C801B0E0A0E00197A109B109A2
:102D60008F3F9F4FA105B10540F082E090E0FA014E
:102D7000918380838EEF9FEFE4CF7A018DE0809F77
:102D80006001819FD00C1124C6010E942620EC0115
:102D9000009741F482E090E0F701918380838DEF0A
:102DA0009FEFCFCFA60170E060E00E94F634D09391
:102DB000EF03C093EE031093F1030093F00390E050
:102DC00080E02FEF3FEF8017910741F481E090E022
:102DD000F7019183808390E080E0B3CF3C872B871D
:102DE00001962D96F0CFCF92DF92EF92FF920F9344
:102DF0001F93CF93DF93EC01D12CC12C10E000E0A6
:102E0000F12CE12C8A818017110609F0BCF4AE0187
:102E1000455F5F4F63E070E0C7010E949D2000970F
:102E200021F02FEF3FEF3C872B87DF91CF911F9150
:102E30000F91FF90EF90DF90CF900895E881F98196
:102E4000EC0DFD1D23813481C90101960115110589
:102E500019F44F8144FD049661E070E0BFD7E81695
:102E6000F90608F47C010F5F1F4F85E0C80ED11CE6
:102E7000C9CFF8942091EC033091ED0381E0211546
:102E8000310509F080E0232B09F0789408954F92E2
:102E90005F926F927F928F929F92AF92BF92CF92EA
:102EA000DF92EF92FF920F931F93CF93DF933C013A
:102EB000660E771EF301828193814C01B12CA12C07
:102EC000C091EE03D091EF03209769F021E030E04C
:102ED0006091F0037091F1038617970710F030E0CE
:102EE00020E0232BC1F482E090E0FA0191838083FB
:102EF0008EEF9FEFDF91CF911F910F91FF90EF9099
:102F0000DF90CF90BF90AF909F908F907F906F9009
:102F10005F904F90089580925B0290925C02A09225
:102F20005D02B0925E026DE0689F9001699F300D76
:102F30001124C20FD31FF3018181833040F082E05E
:102F400090E0FA019183808386EF9FEFD3CF2A012F
:102F50002B813C81232BF1F4288139819F8191FFC2
:102F60002EC0232B09F464C02091F3039A81422FD1
:102F7000490F5527551FBA0141E050E061387105EE
:102F800014F050E040E0452B09F452C02A87920F1C
:102F90009093F3038150823008F476C06ADF88236F
:102FA00009F4C5C0F3018181813009F480C008F4BF
:102FB00070C0823009F4B3C090E080E08EC0232B53
:102FC000B9F12091F2039A81E22FE90FFF27FF1F49
:102FD00041E050E0ED3FF10514F050E040E0452BBA
:102FE00039F12A87920F9093F203D4CFA081B18157
:102FF000A20FB31F11966C91060F111D0196295F48
:103000003F4F8417950794F3C114D104C9F48F81FD
:1030100084FF16C031D721E0A8014B5F5F4F8417B2
:10302000950708F420E0A7014B5F5F4F21110EC008
:1030300082E090E0F2019183808387EF9FEF5ACF87
:103040001BD721E0A8014F5F5F4FE9CF88819981AD
:10305000E80EF91EF70114830383FFEFCF1ADF0A8E
:103060007A018A818C151D0409F00CF497CFE88150
:10307000F981EE0DFF1D428150E030E020E010E0CC
:1030800000E090E080E0BDCFF12CE12CD12CC12CF0
:10309000E8CF81E090E09C838B83A8DB882309F450
:1030A0008BCF81E090E03ED880E44AD885CF8B85F5
:1030B0009C85019651F083E090E09C838B8382E0B5
:1030C00090E030D880E436D877CF89288A288B28BA
:1030D00079F4CE0188DE009771F3789422E030E035
:1030E000F20131832083892BF9F08DEF9FEF02CF1E
:1030F0002D813E818091510290915202281739070B
:10310000D1F66091550270915602AE01455F5F4F56
:1031100080915302909154020E94C621DCCF82E03C
:1031200090E09C838B8348CF90E080E0E3CE82E008
:1031300090E0F2019183808385EF9FEFDBCE8F9249
:103140009F92AF92BF92CF92DF92EF92FF920F9336
:103150001F93CF93DF93EA018C01060F171FF8012D
:103160008181833098F082E090E09983888386EFB4
:103170009FEFDF91CF911F910F91FF90EF90DF9024
:10318000CF90BF90AF909F908F9008958091EE0365
:103190009091EF03892B61F081E090E02091F003A2
:1031A0003091F103232B11F490E080E0892B39F466
:1031B00082E090E0998388838EEF9FEFDACF59DE2B
:1031C000882309F4D5C0F8018181813009F48BC0CE
:1031D000E8F0823099F42091F0033091F103E0910E
:1031E000EE03F091EF0390E080E041E050E028171B
:1031F000390709F0B3C0FADA811117C0789481E079
:1032000090E09983888390E080E0B3CF2091F00331
:103210003091F103E091EE03F091EF0390E080E054
:1032200041E050E02817390741F481E090E00E9426
:10323000921080E40E94A010E1CF63817481672B1B
:1032400011F05483438301963D96ECCFE091EE0359
:10325000F091EF03E00FF11F23813481223031051B
:1032600061F4238534852F3F3F4F39F4C114D104D5
:10327000E104F10409F5CF01B6DDEFEFCE1ADE0A65
:10328000EE0AFE0A035F1F4F4091F0035091F103D5
:1032900070E060E0C416D506E606F70664F5009710
:1032A000A9F27894892B09F4AACF82E090E099835F
:1032B00088838DEF9FEF5DCF45815681209151022C
:1032C0003091520242175307C1F6AF01455F5F4F7D
:1032D0006091550270915602809153029091540270
:1032E0000E94C621CACF10E000E090E080E0C12C2F
:1032F000D12C7601C9CF0097A1F610E000E0812C17
:10330000912C540183E0E82EF12C1AC0E091EE03D9
:10331000F091EF03E00FF11F83819481029749F44C
:10332000F482E38282E090E00E94921080E40E94A6
:103330009A10FFEF8F1A9F0AAF0ABF0A035F1F4F51
:103340008091F0039091F103B0E0A0E08816990617
:10335000AA06BB06DCF290E080E0A3CF6381748113
:103360006230710511F45483438301963D963FCF3B
:1033700082E090E09983888385EF9FEFFACE0097F3
:10338000B9F48FEFFB01808320915B0230915C02E6
:103390004DE0429FC001439F900D1124E091EE0348
:1033A000F091EF03E80FF91F8285FB0181830895F7
:1033B0000C94491088E090E0FA019183808390E0BA
:1033C00080E008951092ED031092EC03EEEEF3E02E
:1033D00086E0DF011D928A95E9F78FE795E19093EA
:1033E000EB038093EA0308958091EA039091EB0345
:1033F00008952F923F924F925F926F927F928F9299
:103400009F92AF92BF92CF92DF92EF92FF920F9373
:103410001F93CF93DF93CDB7DEB762970FB6F894C3
:10342000DEBF0FBECDBFF8942091EC033091ED03C9
:103430002F5F3F4F3093ED032093EC03789420915E
:10344000EE033091EF033B832A83232B09F456C10B
:103450002091F0033091F103232B09F44FC14D87E4
:103460005E876F87788B9C878B878A819B819A8BFD
:10347000898BD12CC12C198210E000E08091F003DF
:103480009091F103C816D90618F43981332329F134
:10349000F8948091EC039091ED0301979093ED03E4
:1034A0008093EC037894C80162960FB6F894DEBF5F
:1034B0000FBECDBFDF91CF911F910F91FF90EF9085
:1034C000DF90CF90BF90AF909F908F907F906F9044
:1034D0005F904F903F902F900895B60190E080E06C
:1034E00029D38887A989BA8917968C91179781FD66
:1034F0008DC013968D919C911497039709F086C007
:103500001596ED91FC91FF83EE832B853C85E217A8
:10351000F30709F07BC0712C612C512C412C63C046
:1035200092D39A87898710E04114510431F4A98914
:10353000BA8917961C9112951170A989BA89ED91D3
:10354000FC91E60DF71D23803480111169C0BFEF97
:103550002B1A3B0A61E070E0C10140D45C01A989EB
:10356000BA891B968D919C918F3F980709F45CC096
:10357000B5014DD74C01009709F4BBC0E985FA8528
:10358000E80FF91FA989BA891A968C91840D808356
:1035900011114DC08F010F5F1F4F8091510290910B
:1035A0005202AE81BF81A817B90709F09DC081E022
:1035B00090E0B885BB2311F090E080E071010985AF
:1035C0001A859501A401B6019195819591093ED383
:1035D0008C01892B11F0C40184D58FEF481A580A49
:1035E00095E0690E711CA989BA8912968C9184158F
:1035F000150429F024F0B981BB2309F491CFE885A3
:10360000EE2321F0B60190E080E096D2FFEFCF1AD2
:10361000DF0A29893A89235F3F4F3A8B298B2ECFC6
:10362000E5E02E0E311C96CFC50110D5A3CF8D85B8
:103630009E85AF85B88981839283A383B4838F01EC
:103640000B5F1F4FAACFE080F180EC81FD81EE0E71
:10365000FF1ED70113966D917C9114978C918F3F2B
:10366000E1F1E1E0F0E002C0EE0FFF1F8A95E2F722
:10367000CF01092E000CAA0BBB0BFB01408151812D
:103680006281738184239523A623B72321E0892BAC
:103690008A2B8B2B09F420E0D8012C93D7011196AB
:1036A0008C91080F111DEA81FB813196FB83EA831F
:1036B0002C813D81295F3F4F3D832C83A989BA89A5
:1036C000ED91FC91E60DF71D82812A813B818217E5
:1036D000130611F00CF0B7CF6ACFF701418150E02B
:1036E000C8010E94ED34DACF1D821C821B821A822F
:1036F000E5CF31E0398306EF1FEF6FCF10E000E038
:10370000C7CEB7CB789408952F923F924F925F9295
:103710006F927F929F92AF92BF92CF92DF92EF9281
:10372000FF920F931F93CF93DF9300D000D0CDB7BC
:10373000DEB70091EE031091EF03992493940115E5
:10374000110509F43EC0A090F003B090F10391DBA5
:10375000982E8823B1F11092EF031092EE0310928D
:10376000F1031092F0031092F2031092F3038FEF23
:103770009FEFDC0180935B0290935C02A0935D025B
:10378000B0935E0278947AD31E830D83C12CD12C22
:103790007601C501B0E0A0E089839A83AB83BC8346
:1037A00022242A94322C89819A81AB81BC81C8164B
:1037B000D906EA06FB06F4F0C80193D480E40E941F
:1037C000A010892D26960FB6F894DEBF0FBECDBF90
:1037D000DF91CF911F910F91FF90EF90DF90CF90ED
:1037E000BF90AF909F907F906F905F904F903F9071
:1037F0002F900895C114D104E104F10409F5D80112
:103800001B968D919C918F3F980709F040D5F80148
:1038100034862386ED81FE8180819181B12CA12C9B
:10382000412C512C3201892B69F5BFEFCB1ADB0AF1
:10383000EB0AFB0AED81FE813D96FE83ED83B3CF5B
:10384000AD81BE8115962D913C91169780915102C4
:103850009091520228173907E9F61B968D919C9199
:10386000C4D5D8CF8A0D9B1DDC018D919C9100970A
:1038700009F037D4BFEF4B1A5B0A6B0A7B0AE5E00D
:10388000AE0EB11CAD81BE818D919C9111971296A7
:103890004C9150E070E060E04416550666067706ED
:1038A0000CF31FD4C2CFCF93DF93EA012DDF811138
:1038B00009C082E090E09983888385EF9FEFDF91D4
:1038C000CF91089581E090E00E94921081E090E015
:1038D0009983888390E080E0F2CF16DF1092EB03AB
:1038E0001092EA03089542E050E060EE72E00C941A
:1038F000B010FF920F931F93CF93DF938A01EC01D7
:10390000C60FD71FF980B9D20897F816190671F0BB
:1039100068F082E090E0F801918380838EEF9FEF62
:10392000DF91CF911F910F91FF9008956C817D8160
:103930008E819F814B810E942613811108C082E0F5
:1039400090E0F8019183808384EF9FEFE9CFF980C5
:103950000E9421134F2D50E0BE01685F7F4F0E94EF
:10396000ED3489810E94901381E090E0F801918309
:10397000808390E080E0D4CFDF92EF92FF920F93AC
:103980001F93CF93DF938A01EC01C60FD71F0E94CC
:1039900021137C01D98071D2DD2059F0029721E0FA
:1039A00030E0D816190619F010F030E020E0232B93
:1039B00079F482E090E0F801918380838EEF9FEFAD
:1039C000DF91CF911F910F91FF90EF90DF900895BD
:1039D000EF2841F482E090E0F8019183808384EF46
:1039E0009FEFEECFF9800E9421134F2D50E0BE01D2
:1039F0006E5F7F4F0E94ED3489810E94901381E0B9
:103A000090E0F8019183808390E080E0D9CF83E754
:103A10009CE19093F5038093F40308958091F4035F
:103A20009091F50308950895FC011182108293830B
:103A300082830895DB011D921C92DC011296ED91A8
:103A4000FC9113977183608313967C936E93129706
:103A50000895FC0180819181DB018D939C93A0816D
:103A6000B181109741F08D919C9191838083892B36
:103A700011F4F383E2830895FC0180819181DB01DD
:103A80008D939C93892B11F473836283718360837C
:103A90000895FC0111821082938382830895CF934D
:103AA000DF931F921F92CDB7DEB71A821982F89466
:103AB000BE016F5F7F4F8BEF93E0CBDF89819A81EF
:103AC000009709F00ED389819A81892B89F7BE016D
:103AD0006F5F7F4F8FEF93E0BCDF89819A81009702
:103AE00009F0FFD289819A81892B89F778940F9008
:103AF0000F90DF91CF910895CF93DF931F921F9284
:103B0000CDB7DEB71A821982F894BE016F5F7F4F7E
:103B100087EF93E09EDF89819A81009709F0E1D2D7
:103B200089819A81892B89F778940F900F90DF9182
:103B3000CF91089581E0089590E080E00895EF929C
:103B4000FF920F931F93CF93DF931F921F92CDB7D6
:103B5000DEB71A8219828091F60307EF1FEF8823E0
:103B6000A1F1F894BE016F5F7F4F8FEF93E071DF9B
:103B7000789489819A81EE24E394F12C892B51F475
:103B8000F894BE016F5F7F4F8BEF93E062DF789414
:103B9000F12CE12C89819A810EEF1FEF0097A9F09B
:103BA000FC014281538164E070E031D68C01892BA5
:103BB00061F0F89469817A81C701880F991F880F95
:103BC000991F85509C4F58DF7894C8010F900F9033
:103BD000DF91CF911F910F91FF90EF9008950F9378
:103BE0001F93CF93DF9300D01F92CDB7DEB71C8217
:103BF0001B821A8219828091F60307EF1FEF882338
:103C0000C1F0AE014D5F5F4F64E070E0CE01019600
:103C100071D68C01892B69F4E981FA818B819C81B1
:103C200093838283F89469817A8187EF93E002DF3E
:103C30007894C8010F900F900F900F90DF91CF9163
:103C40001F910F91089576D7049608958F929F92B1
:103C5000AF92BF92CF92DF92EF92FF920F931F939A
:103C6000CF93DF931F921F92CDB7DEB71A821982CE
:103C7000BC016F5F7F4F6330710598F0AA24AA944E
:103C8000BA2CC5010F900F90DF91CF911F910F912A
:103C9000FF90EF90DF90CF90BF90AF909F908F906C
:103CA00008954115510551F3480159018A016C01EC
:103CB000CADF8815990511F7E114F104F9F28E0DA8
:103CC0009F1DA816B906D0F28091F6038823F1F063
:103CD000F894B501645071099701AE014F5F5F4FD1
:103CE000C80104969CD65C01892B71F489819A8164
:103CF000F80193838283C601880F991F880F991F4B
:103D0000B80185509C4F96DE7894BBCF87EFA82EE4
:103D1000BB24BA94B6CFAF92BF92CF92DF92EF920C
:103D2000FF920F931F93CF93DF931F921F92CDB7F4
:103D3000DEB71A821982892B09F047C06115710517
:103D400009F443C04115510509F43FC0211531055F
:103D500009F43BC001151105C1F18091F6038823D8
:103D6000B9F179016A015B01F894BE016F5F7F4F81
:103D700087EF93E06EDE789489819A81009759F1FC
:103D8000DC0112966D917C91A801049661D68C019C
:103D9000E981FA81D501ED93FC93828193810496A8
:103DA000F601918380834FDFD7018D939C93C801E7
:103DB0000F900F90DF91CF911F910F91FF90EF9097
:103DC000DF90CF90BF90AF9008950FEF1FEFEFCF30
:103DD00007EF1FEFECCF0EEF1FEFE9CFCF93DF938D
:103DE000EC01672B71F4AFD68C179D0760F0A2D65B
:103DF0002496C80FD91FA1D68C0F9D1FDF91CF919C
:103E000008959ED6F1CF90E080E0F8CF0F931F93F6
:103E1000CF93DF932091F60321112BC08B01EC018E
:103E20008BEF93E001DE8FEF93E0FEDD87EF93E011
:103E3000FBDD86D00097C1F486D670E060E0CEDF6F
:103E40004FE552E062E070E078D1009769F480912C
:103E50005F029091600289D6B801CE01BED400976E
:103E600019F421E02093F603DF91CF911F910F9178
:103E7000089584EF9FEFF8CF63C665C6CF93DF93B5
:103E800065D6EC01892B11F40ADE36DECE01DF9116
:103E9000CF910895CF93DF9359D6EC01892B09F484
:103EA000FEDDCE01DF91CF91089580915F02909168
:103EB00060020895CF93DF938091F603D0E0C0E0D5
:103EC0008823D1F057D6EC01892BB1F4E8DD14DE5C
:103ED00080915F0290916002DAD1E9D2EC01892BE6
:103EE00059F48BEF93E0D5DD8FEF93E0D2DD87EFD0
:103EF00093E0CFDD1092F603CE01DF91CF910895CC
:103F0000CF93DF930097A1F4DF91CF910895EC0157
:103F10001A821982A883309711F0928381832F5FD0
:103F20003F4FFC01860F971F4217530781F7ECCFD5
:103F300030E020E0F0E0E0E0AFEF6F5F7F4FF4CFE4
:103F4000CF92DF92EF92FF920F931F93CF93DF9365
:103F50000DE115E00C7F8CEEE82E82E0F82E92EF5A
:103F6000C92E92E0D92EC4E7D5E0D7014D915D91DD
:103F70007D01F601619171916F01198308835D8361
:103F80004C835B834A837F836E839B012F5F3F4F0C
:103F9000249FC001259F900D349F900D1124998777
:103FA0008887C801ADDF88859985080F191F2A9673
:103FB000F2EFEF16F2E0FF06C1F6E5E0F4E085E18E
:103FC00091E0DF019C011D9221503040E1F71092F9
:103FD000040410920304109293051092920510921B
:103FE00097051092960510929505109294051092DF
:103FF00099051092980510929B0510929A051092BF
:104000009D0510929C051092A1051092A00510929A
:104010009F0510929E051092A3051092A205109282
:10402000A5051092A40510927105109270051092CA
:1040300073051092720590E080E0DF91CF911F919F
:104040000F91FF90EF90DF90CF900895009761F16E
:10405000F8948131910550F480917605909177051F
:10406000892B31F020E090E080E011C08197D8F4F6
:104070008091800590918105892BC9F480918A05F2
:1040800090918B05892B79F022E082E090E0EAE0C4
:10409000E89FD001E99FB00D1124AC58BA4F8D9123
:1040A0009C91009741F4789490E080E0089521E09D
:1040B00081E090E0ECCFE29FF0011124EC58FA4F40
:1040C000DC0111964D915C91518340834281538173
:1040D0004150510953834283FC012193CF017894CD
:1040E0000895009749F1DC018E91853041F4E0910B
:1040F0007205F09173053097F9F0CD011994853070
:10410000D8F4282F30E0F8948FEF8C938AE0829FC8
:10411000F001839FF00D1124EC58FA4F80819181BA
:1041200012969C938E931197B183A0838281938181
:1041300001969383828378940895CF92DF92EF92D1
:10414000FF920F931F93CF93DF939C0188E094E03D
:104150008C7F4115510509F497C02115310509F4EB
:1041600093C06115710509F48FC07A01AB01B901E3
:104170006D5F7F4F6C7F9B012F5F3F4F249F8001BE
:10418000259F100D349F100D1124F8942091920555
:1041900030919305232B59F420919A0530919B057A
:1041A0002115310569F12017310708F056C020911B
:1041B0009C0530919D05232B91F420919A05309117
:1041C0009B05820F931F2091A4053091A505211511
:1041D000310509F43FC02017310708F052C0789428
:1041E000CFEFDFEF86EF9FEFF701D183C083DF9141
:1041F000CF911F910F91FF90EF90DF90CF90089596
:10420000C3E0D0E0C0900304D090040422E131E088
:104210002C193D092017310710F32AE02C9FF001DB
:104220002D9FF00D1124EC58FA4F91838083558314
:10423000448353834283778366831187008760DEDC
:104240000C0D1D1D1093040400930304789490E05A
:1042500080E0CACFC4E0D0E0D5CFC3E0D0E02AE010
:104260002C9FF0012D9FF00D1124EC58FA4F9183F3
:10427000808355834483538342837783668340DE00
:10428000E5CFC4E0D0E0EBCF8FEF9FEFB0CFFF9250
:104290000F931F93CF93DF939C012350310922305A
:1042A000310508F070C0EC01F89484E09AE09C9F1E
:1042B000D0019D9FB00D1124A458BA4F082F10E0D3
:1042C000909FF001919FF00D1124EC58FA4F20813E
:1042D0003181C017D10714F1FF24F394232B41F54A
:1042E0002AE0209FF001219FF00D1124EC58FA4F95
:1042F000809103049091040440855185841B950BA3
:1043000090930404809303042C9FF0012D9FF00DE3
:104310001124EC58FA4F118610861CC0232B39F457
:104320002D913C911197232BA9F48150C7CFF12CEB
:104330008AE08C9FF0018D9FF00D1124EC58FA4F0C
:104340004085518570E060E0808191810E94F63463
:10435000F110C6CF8AE08C9FF0018D9FF00D1124E3
:10436000EC58FA4F11821082158214821382128245
:1043700017821682789490E080E0DF91CF911F91B0
:104380000F91FF9008958FEF9FEFF7CF41155105E3
:1043900049F1009739F16115710521F1F8942091E7
:1043A000700530917105232BB9F42091720530917D
:1043B0007305232B89F49093710580937005709396
:1043C000730560937205789425E030E090E080E01A
:1043D000FA0131832083089578942FEF3FEF86EF21
:1043E0009FEFF6CF8FEF9FEF0895059769F4F8944C
:1043F000109271051092700510927305109272055B
:10440000789490E080E008958FEF9FEF0895611514
:10441000710519F4F0E0E0E011C08530910581F4F8
:10442000E0917005F09171053097A1F3CB010196F1
:104430001995009779F3FC0185E08193CF010895E8
:104440009C01235031092230310520F72AE0289FB2
:10445000D001299FB00D1124AC58BA4F2D913C9139
:104460001197232BB9F216962D913C911797261789
:10447000370780F2F89412962D913C9113972115ED
:10448000310529F0ED91FC911197309711F4789452
:10449000C1CF4181528111965C934E9321503109D5
:1044A00013963C932E93129781937894C7CFEAE1A9
:1044B000F5E086E5DF011D928A95E9F7E5E0F4E095
:1044C00085E191E0DF019C011D9221503040E1F730
:1044D0001092040410920304E4E7F5E082E3DF01A4
:1044E0001D928A95E9F7E0E7F5E084E0DF011D928F
:1044F0008A95E9F790E080E00895CF93DF93C0912B
:104500006102D0916202CF3FDC0759F4E0D390936F
:1045100062028093610297FF09C0D0936202C09348
:10452000610284EF9FEFDF91CF91089590E080E0EA
:10453000FACF8230910528F48093A60590E080E0C0
:1045400008958FEF9FEF08954F925F926F927F9241
:10455000AF92BF92CF92DF92EF92FF920F931F9391
:10456000CF93DF931F921F92CDB7DEB71A821982C5
:10457000009709F479C06115710509F475C020919F
:1045800061023091620207EF1FEF2F3F3F4F09F4A6
:1045900045C06B015C01412C512C3201F12CE12C06
:1045A00010E000E09E012F5F3F4FA6014E195F090A
:1045B000B5016E0D7F1D8091610290916202EBD377
:1045C000892B09F04BC089819A81009741F4E1144D
:1045D000F10429F42091A605222309F442C0E80E33
:1045E000F91EEC14FD04D0F480E8481684E858065F
:1045F0008EE16806710420F560E070E0CB010E9456
:10460000BB2F2AE0420E511C611C711C0A3F4FEF68
:10461000140721F0043F8FEF1807A1F4C8010F9091
:104620000F90DF91CF911F910F91FF90EF90DF904E
:10463000CF90BF90AF907F906F905F904F90089514
:1046400001EF1FEF81E090E0013F2FEF120711F023
:1046500090E080E0892B09F4A5CFE0CF04EF1FEFB5
:10466000DDCF0AEF1FEFDACF0FEF1FEFD7CF4F925B
:104670005F926F927F92AF92BF92CF92DF92EF9252
:10468000FF920F931F93CF93DF931F921F92CDB78B
:10469000DEB71A821982009709F479C06115710595
:1046A00009F475C0209161023091620207EF1FEF9B
:1046B0002F3F3F4F09F445C06B015C01412C512C49
:1046C0003201F12CE12C10E000E09E012F5F3F4F02
:1046D000A6014E195F09B5016E0D7F1D8091610223
:1046E000909162020BD3892B09F04BC089819A818A
:1046F000009741F4E114F10429F42091A605222346
:1047000009F442C0E80EF91EEC14FD04D0F480E870
:10471000481686E9580688E96806710420F560E0C5
:1047200070E0CB010E94BB2F2AE0420E511C611C9D
:10473000711C0E3F4FEF140721F0043F8FEF180755
:10474000A1F4C8010F900F90DF91CF911F910F91AD
:10475000FF90EF90DF90CF90BF90AF907F906F90E1
:104760005F904F90089502EF1FEF81E090E0023FCD
:104770002FEF120711F090E080E0892B09F4A5CF0C
:10478000E0CF04EF1FEFDDCF0EEF1FEFDACF0FEF1B
:104790001FEFD7CF80916102909162028F3F9807FF
:1047A00049F08CD2892B49F48FEF9FEF90936202EE
:1047B0008093610290E080E0089584EF9FEF089578
:1047C000FC01680F791F90E080E0E617F70709F415
:1047D00008952191820F911DF8CF2091A7052111F5
:1047E00013C08BDE009791F41092AD051092AC05CA
:1047F0001092AB051092AA051092A9051092A80577
:1048000021E02093A705089584EF9FEF0895AF92CC
:10481000BF92CF92DF92EF92FF920F931F93CF93AD
:10482000DF93009709F460C04630510508F45CC07E
:104830002091A705C7EFDFEF222309F449C08C01BF
:10484000060F171FF801C080D180C114D10409F4EC
:104850004EC096012A5F3F4F4217530708F447C0E6
:104860007C018091AC059091AD0593838283B60164
:104870006C5F7F4F5801A60EB71EC801A1DFF5017E
:104880009183808364E070E0C8015EDEEC01892BD7
:10489000F9F481E090E04DDEB601C801049654DEE3
:1048A000EC01892B91F462E070E0C5014DDEEC0172
:1048B000892B59F4C70115DC8091AC059091AD05A9
:1048C00001969093AD058093AC0590E080E031DED9
:1048D000CE01DF91CF911F910F91FF90EF90DF906C
:1048E000CF90BF90AF900895CFEFDFEFF1CFC9EF3A
:1048F000DFEFEECF6F927F928F929F92AF92BF9237
:10490000CF92DF92EF92FF920F931F93CF93DF939B
:1049100000D01F92CDB7DEB7009709F47AC04115D9
:10492000510509F476C02091A70507EF1FEF222358
:1049300009F44DC03A017B015C0164E070E0CE01F6
:10494000019695DE8C01892B09F041C009811A81FD
:104950000115110509F45AC0480186E0880E911C22
:10496000B701680D791D80916302909164024FDD5B
:104970006C01009709F450C0A70170E060E00E944C
:10498000F63489819A81AB81BC81EC0CFD1CF70166
:1049900081939193A193B1937F0181E090E0C9DD70
:1049A000B801C70164DE892B31F562E070E0C70110
:1049B000800F911F5CDE8C01892BE9F490E080E090
:1049C000B8DDF501D182C082F30191828082C801F5
:1049D0000F900F900F900F90DF91CF911F910F913B
:1049E000FF90EF90DF90CF90BF90AF909F908F900F
:1049F0007F906F90089590E080E09BDDF50111823B
:104A00001082F30111821082C6016BDB09EF1FEFE8
:104A1000DECF0FEF1FEFDBCF06EF1FEFD8CF0097F2
:104A2000A1F04115510589F02115310571F0F90109
:104A300036966E177F0748F0DC012D933C93DA0120
:104A4000ED93FC9390E080E008958FEF9FEF089541
:104A5000AF92BF92CF92DF92EF92FF920F931F938C
:104A6000CF93DF93009709F45FC04115510509F416
:104A70005BC06530710508F457C02091A705C7EFEA
:104A8000DFEF222391F1DC01CD90DC90119712969B
:104A9000ED91FC9196012A5F3F4FC9EFDFEF26179A
:104AA000370719F5C091A805D091A905209749F5B8
:104AB00021E030E03093A9052093A8057A018C010C
:104AC000F093AB05E093AA055601B4E0AB0EB11C20
:104AD000B50176DE0A0D1B1DF80120813181821798
:104AE000930729F5D701CD92DC92CE01DF91CF91CA
:104AF0001F910F91FF90EF90DF90CF90BF90AF90FC
:104B000008952091AA053091AB052F5F3F4FCCEF60
:104B1000DFEFE217F30790F2CBEFDFEF2E173F073F
:104B200068F2D0E0C0E0CACFCFEFDFEFDECFC3EF57
:104B3000DFEFDBCF84E090E0089582E090E008951D
:104B40008CEF9FEF089580E290E008951092AD05FC
:104B50001092AC051092AB051092AA051092A9050F
:104B60001092A80590E080E00895909364028093ED
:104B7000630208958091A705882391F00BDE0097CA
:104B800089F41092AD051092AC051092AB0510920D
:104B9000AA051092A9051092A8051092A7050895DC
:104BA00090E080E00895009749F06115710531F0BB
:104BB000FC0111821082FB01118210820895F3CF53
:104BC00040E052EC61E070E090E080E000C08130B5
:104BD000910579F01CF4892B39F008958230910504
:104BE00061F0039771F0089526E085E896E00C9453
:104BF000EC3126E082E297E0FACF26E08FEB97E0F7
:104C0000F6CF26E08CE598E0F2CF1F920F920FB618
:104C10000F9211240BB60F922F933F934F935F93F4
:104C20006F937F938F939F93AF93BF93EF93FF9374
:104C30008EE19BEF9093250180932401C0D0FF91DA
:104C4000EF91BF91AF919F918F917F916F915F9104
:104C50004F913F912F910F900BBE0F900FBE0F9071
:104C60001F9018958EE19BEF90932501809324016E
:104C7000A3E7B0E08C918E7F8C93E0E2F1E080813D
:104C80008C7F8083E1E2F1E08081877E8083808178
:104C90008460808380818C7F80838C9181608C9301
:104CA0000895E3E7F0E0808190819E7F908381709A
:104CB000089581E008951092AE05089568EE73E0BE
:104CC00080E090E00E94BB2F90E080E0089526E015
:104CD00040E050E16EE070E085E896E00E94EC3143
:104CE00085E896E00E942231892B29F085E896E03C
:104CF0000E943C31F5CF90E080E00895CF92DF92A2
:104D0000EF92FF920F931F93CF93DF936B017A0182
:104D1000E9011982188285E896E00E942231892BE8
:104D200079F18601CC24C39482E0D82E8091AE051F
:104D3000811111C085E896E00E943C310297B1F7DD
:104D4000C092AE05F801D1928F01888199810196B8
:104D500099838883EBCF888199818E159F0580F494
:104D600085E896E00E943C318F3F9807A1F3F80157
:104D700081938F0188819981019699838883EBCFF4
:104D800090E080E0DF91CF911F910F91FF90EF9025
:104D9000DF90CF9008950F931F93CF93DF93EA0195
:104DA000890185E896E00E947C34F801D183C083B4
:104DB00090E080E0DF91CF911F910F910895CF9205
:104DC000DF92EF92FF928091AF0591E0980F909360
:104DD000AF05882369F021E030E03093B1052093DE
:104DE000B0058093AF05FF90EF90DF90CF900895CE
:104DF0007894E0916602F0916702C28CD38CE48CC7
:104E0000F58C0E94B403B701A60190E080E00E94F7
:104E10002F03F8948091AF058150E3CFCF93DF93B8
:104E20001092A2091092A1090E94F12FC9DEC0912F
:104E30006602D0916702198218826FEF7FEFCB0173
:104E40000E94A90370E060E090E080E00E943402DC
:104E5000009799F50E94B008F8947894BE016E5DB1
:104E60007F4F8A819B810E943702892B59F46FEF13
:104E70007FEFCB010E94C4020E94A303882311F09C
:104E800081E08EA3F894EEDE0E94A603811104C097
:104E90000E94A30391E0811190E09093A10978947E
:104EA0000E948D10EC0178948091A109811108C0B5
:104EB0000E948A03F89490E080E0DF91CF910895FA
:104EC0000E9487030E94A60391E0811106C00E9400
:104ED000A30391E0811101C090E09093A209909109
:104EE000A20981E0911180E08093A1098091A2093B
:104EF0008111D7DE219729F40E948D10892B09F4A6
:104F0000DADE0E948D10EC01D4DECECF5058BB27E4
:104F1000AA270ED0BDC1AED130F0B3D120F031F40C
:104F20009F3F11F41EF47EC10EF4E095E7FB74C1BF
:104F3000E92FBFD180F3BA1762077307840795077B
:104F400018F071F49EF5D7C10EF4E0950B2EBA2F30
:104F5000A02D0B01B90190010C01CA01A00111247F
:104F6000FF27591B99F0593F50F4503E68F11A162B
:104F7000F040A22F232F342F4427585FF3CF4695BC
:104F800037952795A795F0405395C9F77EF41F16DE
:104F9000BA0B620B730B840BBAF09150A1F0FF0FA8
:104FA000BB1F661F771F881FC2F70EC0BA0F621F94
:104FB000731F841F48F4879577956795B795F79584
:104FC0009E3F08F0B3CF9395880F08F09927EE0F16
:104FD000979587950895DF93DD27B92FBF7740E830
:104FE0005FE31616170648075B0710F4D92F8ED11A
:104FF0009F938F937F936F9335D2E4EEF0E015D1BA
:1050000047D12F913F914F915F9193D1DD2349F08B
:105010009058A2EA2AED3FE049EC5FE3D0785D27A3
:1050200087DFDF9135C1D4D008F481E008950CD03A
:105030002FC127D140F01ED130F021F45F3F19F08D
:10504000EBC0511159C1EEC034D198F39923C9F383
:105050005523B1F3951B550BBB27AA27621773077E
:10506000840738F09F5F5F4F220F331F441FAA1F32
:10507000A9F333D00E2E3AF0E0E830D091505040F2
:10508000E695001CCAF729D0FE2F27D0660F771FA0
:10509000881FBB1F261737074807AB07B0E809F082
:1050A000BB0B802DBF01FF2793585F4F2AF09E3F17
:1050B000510568F0B1C020C15F3FECF3983EDCF3CE
:1050C000869577956795B795F7959F5FC9F7880F90
:1050D000911D9695879597F90895E1E0660F771FE2
:1050E000881FBB1F621773078407BA0720F0621B73
:1050F000730B840BBA0BEE1F88F7E0950895E1D08F
:1051000088F09F5790F0B92F9927B751A0F0D1F0B0
:10511000660F771F881F991F1AF0BA95C9F712C03A
:10512000B13081F0E8D0B1E00895E5C0672F782F65
:105130008827B85F39F0B93FCCF3869577956795A6
:10514000B395D9F73EF490958095709561957F4F12
:105150008F4F9F4F0895E89409C097FB3EF49095B8
:105160008095709561957F4F8F4F9F4F9923A9F040
:10517000F92F96E9BB279395F695879577956795CF
:10518000B795F111F8CFFAF4BB0F11F460FF1BC013
:105190006F5F7F4F8F4F9F4F16C0882311F096E9A6
:1051A00011C0772321F09EE8872F762F05C0662354
:1051B00071F096E8862F70E060E02AF09A95660F0D
:1051C000771F881FDAF7880F9695879597F90895C6
:1051D000990F0008550FAA0BE0E8FEEF1616170608
:1051E000E807F907C0F012161306E407F50798F070
:1051F000621B730B840B950B39F40A2661F0232B89
:10520000242B252B21F408950A2609F4A140A69504
:105210008FEF811D811D089597F99F6780E870E0E9
:1052200060E008959FEF80EC0895DF93CF931F9384
:105230000F93FF92EF92DF927B018C01689405C07F
:10524000DA2EEF0176D0FE01E894A59125913591F3
:1052500045915591AEF3EF016BDEFE019701A80178
:10526000DA9479F7DF90EF90FF900F911F91CF9133
:10527000DF91089500240A941616170618060906E9
:10528000089500240A9412161306140605060895BC
:10529000092E0394000C11F4882352F0BB0F40F444
:1052A000BF2B11F460FF04C06F5F7F4F8F4F9F4F84
:1052B000089557FD9058440F551F59F05F3F71F006
:1052C0004795880F97FB991F61F09F3F79F087956D
:1052D0000895121613061406551FF2CF4695F1DFF6
:1052E00008C0161617061806991FF1CF8695710586
:1052F000610508940895E894BB2766277727CB01BA
:1053000097F9089565DF08F48FEF08959B01AC01CC
:1053100060E070E080E89FE38ACE0BD0B9CFAADFCF
:1053200028F0AFDF18F0952309F076CF7BCF11245A
:10533000E3CFBFDFA0F3959FD1F3950F50E0551F4A
:10534000629FF001729FBB27F00DB11D639FAA27DA
:10535000F00DB11DAA1F649F6627B00DA11D661F29
:10536000829F2227B00DA11D621F739FB00DA11D4A
:10537000621F839FA00D611D221F749F3327A00D04
:10538000611D231F849F600D211D822F762F6A2FA0
:1053900011249F5750408AF0E1F088234AF0EE0F25
:1053A000FF1FBB1F661F771F881F91505040A9F732
:1053B0009E3F510570F030CF9FCF5F3FECF3983E9A
:1053C000DCF3869577956795B795F795E7959F5F99
:1053D000C1F7FE2B880F911D9695879597F9089533
:1053E00011F40EF41FCF41C06CDFD0F39923D9F331
:1053F000CEF39F57550B87FF46D00024A0E640EA26
:10540000900180585695979528F4805C660F771F19
:10541000881F20F026173707480730F4621B730BEC
:10542000840B202931294A2BA6951794079420250F
:1054300031254A2758F7660F771F881F20F0261757
:105440003707480730F4620B730B840B200D311DB6
:10545000411DA09581F7B901842F9158880F969529
:10546000879508959B01AC0158CF9F3F31F0915033
:1054700020F4879577956795B795880F911D969538
:10548000879597F9089591505040660F771F881FB0
:10549000D2F7089590E080E008958091E60590911C
:1054A000E705891B990B08959091E7058091E60522
:1054B0002FEF3FEF981748F4E92FF0E0E851FA4F4B
:1054C000208130E09F5F9093E705C9010895E09146
:1054D000E7058091E605E81730F4F0E0E851FA4F6F
:1054E000808190E008958FEF9FEF08950895CF9306
:1054F000DF93EC01E091BE05F091BF053097F1F02C
:105500009091E7058091E6059817C0F090E0292F6B
:1055100030E02617370754F4DE01A20FB31F4C9179
:1055200028513A4FD9014C939F5FF1CF1092E70574
:105530006093E605CB01DF91CF911994DF91CF9174
:105540000895E091C005F091C105309729F01092BF
:10555000C4051092C30519940895CF93DF931F9249
:10556000CDB7DEB769832091C2052223F9F02091DF
:10557000C305203258F021E030E0FC013383228360
:1055800090E080E00F90DF91CF9108958091C40565
:10559000E82FF0E0EB53FA4F998190838F5F80936F
:1055A000C4058093C30581E090E0ECCF61E0CE01BB
:1055B000019607D1F8CFCF92DF92EF92FF920F932F
:1055C0001F93CF93DF937C01CB018A012091C20509
:1055D000222389F0EB016B01C40ED51ECC15DD052D
:1055E00061F06991D701ED91FC910190F081E02D7E
:1055F000C7011995F3CF642FE4D0C801DF91CF9193
:105600001F910F91FF90EF90DF90CF90089510922F
:10561000E7051092E6051092C4051092C30597D0D5
:1056200081EA9AE2FAD087E79AE2F2C0CB01BA01A6
:10563000B5C081E08093C2056093E5051092C40572
:105640001092C30508950F93062F21E04091C305E2
:1056500065EC75E08091E505DCD11092C4051092EF
:10566000C3051092C2050F9108954F925F926F92F9
:105670007F92AF92BF92CF92EF92FF920F931F93C0
:10568000CF93DF935C01F62ED42F28013901EE2051
:1056900009F1CFDFCE2DC43008F0C3E0C150B8F01F
:1056A00028E0C29FC0011124A301920104C05695B5
:1056B0004795379527958A95D2F7B901D501ED9190
:1056C000FC910190F081E02DC5011995E7CF60E0D4
:1056D000C501B9DF4D2FD13208F040E22C2D68EE24
:1056E00075E08F2DB9D01092E7058093E605DF9124
:1056F000CF911F910F91FF90EF90CF90BF90AF90FF
:105700007F906F905F904F900895CF92EF920F939C
:105710001F93C22EE12C00E010E09801A6DF1F913C
:105720000F91EF90CF90089521E0EFCFE2EBF5E0FD
:105730001382128288EE93E0A0E0B0E08483958328
:10574000A683B7838CEF92E09183808308951092B3
:105750007B0681E0809379061092780661E084E10F
:1057600044D561E085E141D5E9EBF0E080818E7FB1
:10577000808380818D7F808388E48093B80085E476
:105780008093BC000895ECEBF0E080818A7B8083FD
:1057900060E084E12AD560E085E127C59B01AC018A
:1057A00060E074E284EF90E00E94AA342051310955
:1057B0004109510956954795379527952093B8008B
:1057C000089520912A06260F3327331F21323105F1
:1057D000ECF420917B06FC0190E080E0243069F03D
:1057E00082E00895A0912A062191AC01445D594FB1
:1057F000A40FB52FB11D2C930196861798F38091B5
:105800002A06680F60932A0680E0089581E00895D3
:1058100090936F0680936E0608959093710680931F
:105820007006089585EC8093BC0010927B06089565
:10583000CF93DF9391E090937306882351F0C0914A
:10584000B800D091BA009FDF82DFD093BA00C09336
:10585000B800DF91CF9108954F925F926F927F923F
:105860008F929F92AF92BF92CF92DF92EF92FF9270
:105870000F931F93CF93DF93D82F162F072FC42F8B
:10588000B22E413208F09DC051D36B017C01809152
:105890007B06811173C081E080937B06B09279060C
:1058A0009FEF9093080610924D069C0F90934C0624
:1058B00080937A0680917A06DD0FD82BD0937A06F2
:1058C00080917806813009F07EC0109278062ED340
:1058D0006B017C0180917A068093BB0080917406F5
:1058E00090917506A0917606B0917706892B8A2B48
:1058F0008B2B99F01BD38090740690907506A09026
:105900007606B09077066C197D098E099F09861678
:105910009706A806B90608F451C08091BC0083FD23
:10592000D9CF85EC8093BC0001D36B017C018091C1
:105930007B06813009F449C080914D068C1710F424
:10594000C0914D06AEE4B6E0912FE12FF02F8E2FDF
:10595000891B8C1708F45AC08C2FDF91CF911F91AF
:105960000F91FF90EF90DF90CF90BF90AF909F90FE
:105970008F907F906F905F904F9008958091740604
:1059800090917506A0917606B0917706892B8A2BA7
:105990008B2B09F47CCFCAD24090740650907506C8
:1059A00060907606709077066C197D098E099F09C4
:1059B000461657066806790608F069CF8091720688
:1059C00037DFC0E0C9CF85EEADCF809174069091EE
:1059D0007506A0917606B0917706892B8A2B8B2BC2
:1059E00009F4A5CFA3D28090740690907506A0907C
:1059F0007606B09077066C197D098E099F09861688
:105A00009706A806B90608F092CFD8CF8D9181935A
:105A10009ECF4F925F926F927F928F929F92AF92A2
:105A2000BF92EF92FF920F931F93CF93DF93413278
:105A300008F0D2C0F22ED42FE72E162FC82F76D220
:105A40004B015C0180917B0681116DC082E08093E7
:105A50007B06009379068FEF8093080610924D061F
:105A6000D0934C06912FAEE4B6E0E12FFE2D8E2FA1
:105A7000891B8D1708F48AC010927A0680917A06E5
:105A8000CC0FC82BC0937A0680917806813009F03C
:105A900080C0109278064AD24B015C0180917A0650
:105AA0008093BB008091740690917506A091760654
:105AB000B0917706892B8A2B8B2B99F037D20091E6
:105AC0007406109175062091760630917706681954
:105AD00079098A099B09061717072807390708F467
