:10000000B6C00000E5C00000E3C00000E1C0000091
:10001000DFC00000DDC00000DBC00000D9C0000070
:10002000D7C00000D5C00000D3C00000D1C0000080
:10003000CFC00000CDC00000CBC00000C9C0000090
:10004000C7C00000C5C00000C3C00000C1C00000A0
:10005000BFC00000BDC00000BBC000000C94732AEC
:10006000B7C000000C94A42C0C94DA2CB1C0000092
:10007000AFC00000ADC00000ABC00000A9C00000D0
:10008000A7C00000A5C00000A3C00000A1C00000E0
:100090000C94302D0C94662D9BC0000099C000007C
:1000A00097C0000095C0000093C0000091C0000000
:1000B0008FC000008DC000008BC0000089C0000010
:1000C00087C0000085C000000C94EF230C94BC2D69
:1000D0000C94F22D7DC000000C94482E0C947E2EC2
:1000E00077C0000007634236B79BD8A71A39685615
:1000F00018AEBAAB558C1D3CB7CC5763BD6DEDFD4A
:10010000753EF6177231BF000000803F0800000006
:10011000BE922449123EABAAAA2ABECDCCCC4C3EFC
:1001200000000080BEABAAAAAA3E00000000BF00EB
:100130000000803F0000000000084178D3BB4387E7
:10014000D1133D190E3CC3BD4282AD2B3E68EC82FB
:1001500076BED98FE1A93E4C80EFFFBE01C4FF7F80
:100160003F0000000000032D8F2D1B2EA72E112411
:100170001FBECFEFD1E2DEBFCDBF00E00CBF14E069
:10018000A0E0B2E0EEEAFEE500E00BBF02C007909F
:100190000D92A836B107D9F729E0A8E6B4E001C06E
:1001A0001D92A33DB207E1F710E0C7EBD0E000E0FD
:1001B00006C021970109802FFE010E94242FC33B16
:1001C000D10780E00807A9F70E94F1240C94552F6D
:1001D00017CF90E080E008950F931F93009709F4E4
:1001E00085C06115710509F481C00091D702109195
:1001F000D8022091D9023091DA020E3F1F4F2F4FC3
:100200003F4F09F064C04FEF5FEFBA014093D70250
:100210005093D8026093D9027093DA024091D702CA
:100220005091D8026091D9027091DA02DC011296E5
:10023000ED91FC9180819181A281B3818093E3044F
:100240009093E404A093E504B093E604848195813F
:10025000A681B7818093DF049093E004A093E1042A
:10026000B093E20480859185A285B3858093DB04F9
:100270009093DC04A093DD04B093DE04848595851F
:10028000A685B7858093D7049093D804A093D9040A
:10029000B093DA041092D3041092D4041092D504CF
:1002A0001092D6040E94670A8CE89AE09093690441
:1002B000809368040E946609009731F421E030E0E1
:1002C0003093E8042093E7041F910F910895009163
:1002D000D7021091D8022091D9023091DA02DB01C5
:1002E0000D931D932D933C93139798CF8FEF9FEF12
:1002F000EBCF8F929F92AF92BF92CF92DF92EF920D
:10030000FF921F93CF93DF934B015C011091EA049E
:1003100082E090E09093E8048093E70481149104D4
:10032000A104B10441F48091EA04811104C08091D8
:10033000E904C1E08111C0E0C12CD12C760180918B
:10034000EA04811106C08091E904811102C0CC2326
:10035000D9F083E090E09093E8048093E704CC2305
:1003600079F1CCE9DFEF111102C00E94F00DCE014E
:10037000DF91CF911F91FF90EF90DF90CF90BF90D2
:10038000AF909F908F9008956AE070E080E090E0D9
:100390000E94E22A80E1C80E87E2D81EE11CF11C0F
:1003A0008FEF88169806A806B80631F0C1E08C14C5
:1003B0009D04AE04BF0408F0C0E080E0B3D7BFCF17
:1003C000D0E0C0E0D0CFCF92DF92EF92FF921F93A8
:1003D000CF93DF938F3F910511F008F041C020913A
:1003E000E7043091E8042330310539F02091E70427
:1003F0003091E8042130310531F424E030E03093CD
:10040000E8042093E7046A017B01EC01892BA9F041
:1004100011E0AE01C701B60158D7AB01BC0190E0B5
:1004200080E01123F9F0CE01DF91CF911F91FF9071
:10043000EF90DF90CF900C9405108091680490911C
:100440006904892B29F30E940C10029709F7E091A7
:100450006804F091690490E080E01995182FD9CFD5
:100460008FEF9FEFDF91CF911F91FF90EF90DF9083
:10047000CF90089580E056C7CF93DF9386E090E059
:100480009093E8048093E704A6D7EC0110926904E6
:10049000109268040E94880D1092E8041092E704FC
:1004A000CE01DF91CF9108958091E9040895809164
:1004B000D20408956093D7027093D8028093D90232
:1004C0009093DA0290E080E008952F923F924F924D
:1004D0005F926F927F928F929F92AF92BF92CF92D4
:1004E000DF92EF92FF920F931F93CF93DF93CDB7DD
:1004F000DEB7A0970FB6F894DEBF0FBECDBF8091D8
:10050000550990915609A0915709B09158098093C7
:10051000B9099093BA09A093BB09B093BC09809321
:100520008D0990938E09A0938F09B0939009E9E506
:10053000F9E021E939E03C872B878DE499E09A873F
:10054000898781E899E0D901419151916191719137
:100550004D935D936D937D938E179F07A9F7409000
:100560008109509082096090830970908409C0903D
:100570008509D0908609E0908709F090880920913C
:100580009B0230919C0240919D0250919E02C301BA
:10059000B2010E947F2920E030E0A9010E944E268E
:1005A0004B015C012091A3023091A4024091A5026D
:1005B0005091A602C701B6010E947F299B01AC01A0
:1005C000C501B4010E944E264B015C018092BD0919
:1005D0009092BE09A092BF09B092C00980924509CD
:1005E00090924609A0924709B092480920919F0233
:1005F0003091A0024091A1025091A202C301B20128
:100600000E947F2920E030E0A9010E944E262B01A4
:100610003C012091A7023091A8024091A90250917B
:10062000AA02C701B6010E947F299B01AC01C30148
:10063000B2010E944E266B017C01C092C109D0928A
:10064000C209E092C309F092C409C0924909D0924C
:100650004A09E0924B09F0924C09209189093091A6
:100660008A0940918B0950918C09C501B4010E94FF
:100670004D266B8B7C8B8D8B9E8B2091BF02309196
:10068000C0024091C1025091C202C701B6010E944E
:100690004D266F8B788F898F9A8F8090A7049090CA
:1006A000A804A090A904B090AA042091410230911E
:1006B000420240914302509144026B897C898D89AA
:1006C0009E890E947F296B017C0120914502309117
:1006D000460240914702509148026F89788D898D7A
:1006E0009A8D0E947F299B01AC01C701B6010E942F
:1006F0004E266D837E838F83988720917902309177
:100700007A0240917B0250917C02C501B4010E94A3
:100710006A2520E030E0A9010E94C526811130C081
:10072000C0904D09D0904E09E0904F09F0905009CB
:100730006091960270E090E080E00E9493279B0118
:10074000AC01C701B6010E94C52687FF19C020E091
:1007500030E0A901C501B4010E94C526882381F0BB
:1007600020E030E040E85FE3C701B6010E944E267A
:1007700060934D0970934E0980934F0990935009EF
:10078000712C612C1F86188A198A1A8A8BC0B301B2
:10079000072C000C880B990B0E94952720E030E075
:1007A00040E85FE30E944E26362E272E2C01A7013B
:1007B00096010E940B2918160CF49CC320E030E02F
:1007C00040E05FE3C701B6010E947F299B01AC01B5
:1007D000632D722DC2010E940B2918160CF05CC308
:1007E000232D322DA201C701B6010E944D268B0197
:1007F00088A39F8F20E030E04AE754E4B80188A145
:100800009F8D0E940B2918160CF478C3980148A1FB
:100810005F8DC701B6010E944D266B8F7C8F8D8F37
:100820009E8F1A821982C12CD12C90E8E92E9FE369
:10083000F92EB80188A19F8D0E946227E981FA8173
:10084000E617F7070CF42DC3C701B6010E940B266B
:100850006B017C01232D322DA20160E070E080E865
:100860009FEB0E94E229FFEF6F1A7F0AEB85FC8560
:1008700081909190A190B190FC87EB87A7019601A0
:100880000E947F29A50194010E947F299B01AC0150
:100890006F85788989899A890E944D266F87788B20
:1008A000898B9A8BC0904D09D0904E09E0904F09EA
:1008B000F0905009C701B6010E94622766167706BC
:1008C0000CF465CF4D805E806F807884E89477F873
:1008D000C0907D02D0907E02E0907F02F090800276
:1008E0006091950270E090E080E00E9493279B0168
:1008F000AC01C301B2010E94E2299B01AC018091CD
:100900008D0290918E02A0918F02B0919002BC0155
:10091000CD0190580E947F290E9436274B015C012F
:10092000A701960160E070E080E89FE30E944D26F9
:10093000A50194010E947F29A70196010E944E26DD
:100940006B017C018090810290908202A0908302D2
:10095000B09084022D813E814F815885C501B4013C
:100960000E94C52687FDD1C2F1E0F983A30192015F
:10097000C501B4010E940B2987FD198261E029811C
:100980002627822F90E09195819591099A838983FA
:100990002091850230918602409187025091880211
:1009A00060E070E080E89FE30E944D26A701960179
:1009B0000E947F292D813E814F8158850E947F2989
:1009C0006D837E838F839887A70196016091910242
:1009D0007091920280919302909194020E94C92694
:1009E0006B017C0129813A81B901330F880B990B86
:1009F0000E9495279B01AC01C701B6010E947F2987
:100A00006B877C878D879E87C0904102D090420281
:100A1000E0904302F090440240904502509046021C
:100A200060904702709048022091590230915A021A
:100A300040915B0250915C02C701B6010E947F2980
:100A40004B015C0120915D0230915E0240915F029A
:100A500050916002C301B2010E947F299B01AC0149
:100A6000C501B4010E944E262B893C894D895E89BF
:100A70000E947F294B015C0120916102309162024A
:100A80004091630250916402C701B6010E947F2920
:100A900069837A838B839C832091650230916602FF
:100AA0004091670250916802C301B2010E947F2900
:100AB0009B01AC0169817A818B819C810E944E26C9
:100AC0002F89388D498D5A8D0E947F299B01AC0159
:100AD000C501B4010E944E262D813E814F8158856B
:100AE0000E944D262B853C854D855E850E944E26B5
:100AF0002F85388949895A890E944E264B015C010D
:100B00002091490230914A0240914B0250914C028F
:100B1000C701B6010E947F296B017C0120914D0223
:100B200030914E0240914F0250915002C301B201E8
:100B30000E947F299B01AC01C701B6010E944E268D
:100B40009B01AC015058C501B4010E94C9262B017C
:100B50003C012091CD093091CE094091CF095091AF
:100B6000D0090E944E262091CF023091D0024091B0
:100B7000D1025091D2020E947F290E94D0270E9468
:100B800062270E9495272091D3023091D402409190
:100B9000D5025091D6020E947F2969837A838B8384
:100BA0009C832F85388949895A8960918D09709174
:100BB0008E0980918F09909190090E944D266B01BA
:100BC0007C012B853C854D855E856D817E818F8185
:100BD00098850E944D269B01AC01C701B6010E9479
:100BE0004E266B017C012091C7023091C8024091D2
:100BF000C9025091CA026B897C898D899E890E94A5
:100C00007F294B015C012091CB023091CC024091B5
:100C1000CD025091CE026F89788D898D9A8D0E9478
:100C20007F299B01AC01C501B4010E944E269B01A6
:100C3000AC01C701B6010E944D266B017C012091D9
:100C4000C3023091C4024091C5025091C602C30153
:100C5000B2010E947F299B01AC01C701B6010E942D
:100C60004D266093550970935609809357099093C8
:100C7000580989E299E0E985FA8544A555A566A554
:100C800077A540AB51AB62AB73AB3497FA87E9877A
:100C90008E179F0781F78091B9099091BA09A091A9
:100CA000BB09B091BC098093590990935A09A0934C
:100CB0005B09B0935C098090810990908209A090B3
:100CC0008309B090840920916D0230916E024091A9
:100CD0006F0250917002C501B4010E947F292B015F
:100CE0003C01C0908509D0908609E0908709F0907A
:100CF00088092091690230916A0240916B025091FB
:100D00006C02C501B4010E947F294B015C01209156
:100D10007102309172024091730250917402C701C6
:100D2000B6010E947F299B01AC01C501B4010E945C
:100D30004E264B015C0120915102309152024091AC
:100D400053025091540269817A818B819C810E9467
:100D50007F299B01AC01C501B4010E944E2660931E
:100D6000810970938209809383099093840920916B
:100D70007502309176024091770250917802C70156
:100D8000B6010E947F29A30192010E944E266B01A9
:100D90007C012091550230915602409157025091AA
:100DA000580269817A818B819C810E947F299B01F5
:100DB000AC01C701B6010E944E266093850970936D
:100DC000860980938709909388092091BF0230910A
:100DD000C0024091C1025091C2026091B70270916D
:100DE000B8028091B9029091BA020E947F292091A5
:100DF000890930918A0940918B0950918C090E9490
:100E00004E266093890970938A0980938B09909389
:100E10008C096091AB047091AC048091AD04909109
:100E2000AE046F5F7F4F8F4F9F4F6093AB04709303
:100E3000AC048093AD049093AE040E9493279B0171
:100E4000AC016091AF047091B0048091B1049091B5
:100E5000B2040E947F296093A7047093A804809332
:100E6000A9049093AA04A0960FB6F894DEBF0FBE13
:100E7000CDBFDF91CF911F910F91FF90EF90DF9049
:100E8000CF90BF90AF909F908F907F906F905F902A
:100E90004F903F902F900895032D122D48A25F8E02
:100EA000A9CCE981FA81BF01FF0F880B990B0E9441
:100EB000952720E030E040E85FE30E944E264B019A
:100EC0005C012B8D3C8D4D8D5E8D0E944E26A501C3
:100ED00094010E94C9269B01AC01C701B6010E9482
:100EE0007F296B017C0129813A812F5F3F4F3A8333
:100EF00029839FCCC12CD12C7601ACCCC12CD12C18
:100F000080E8E82E8FE7F82EA5CCE1E0F0E0FA8348
:100F1000E9833ECD80E090E0A0E8BFEB8093B3048E
:100F20009093B404A093B504B093B6048FE892EC08
:100F3000A5E7BCE38093AF049093B004A093B10401
:100F4000B093B2048DE89AEEAFEDB6EA80939504C3
:100F500090939604A0939704B093980487E495E641
:100F6000A9E3BAE08093990490939A04A0939B0418
:100F7000B0939C0486EF96E5A0E7B3E780939D04C9
:100F800090939E04A0939F04B093A0048EE290EDF2
:100F9000A9E6B4EA8093A1049093A204A093A304C9
:100FA000B093A4048EE694E090937D0480937C0437
:100FB0008AE694E090936F0480936E0484EF92E04D
:100FC00090936B0480936A0490936D0480936C04F7
:100FD00085EA94E0909373048093720485E994E029
:100FE000909371048093700487EA94E09093750461
:100FF000809374044CD08091970290919802A091B4
:101000009902B0919A028093550990935609A09342
:101010005709B09358098091890290918A02A09152
:101020008B02B0918C02E9E5F9E081939193A19351
:10103000B19329E0E138F207C1F78091B3029091B2
:10104000B402A091B502B091B60280938109909349
:101050008209A0938309B0938409809385099093B2
:101060008609A0938709B09388098091BB0290916B
:10107000BC02A091BD02B091BE02809389099093F9
:101080008A09A0938B09B0938C0908950895E09183
:10109000F502F091F60281E08483A0E0B2E0B6832D
:1010A000A583D7961C921E92D6978BE392E09487E5
:1010B000838788EB94E0968B858B148A138A168637
:1010C0001586108A178608954F925F926F927F92CD
:1010D0008F929F92AF92BF92CF92DF92EF92FF9248
:1010E0000F931F93F8944090C6045090C7046090EB
:1010F000C8047090C904C090BA04D090BB04E090BA
:10110000BC04F090BD04452B09F0A4C09B01AC01C8
:10111000241935094609570929013A010091C204E9
:101120001091C3042091C4043091C50448015901B1
:10113000840C951CA61CB71C80169106A206B3064B
:10114000A0F40091BE041091BF042091C00430911E
:10115000C1040F5F1F4F2F4F3F4F0093BE041093EA
:10116000BF042093C0043093C1048092C2049092C3
:10117000C304A092C404B092C5040091BE041091AF
:10118000BF042091C0043091C1048092CA0490929F
:10119000CB04A092CC04B092CD040093CE04109363
:1011A000CF042093D0043093D1046093C60470938D
:1011B000C7048093C8049093C904A8E9BAE3A301C3
:1011C00092010E942C2F6C0D7D1D8E1D9F1D609322
:1011D000BA047093BB048093BC049093BD04009147
:1011E000D7021091D8022091D9023091DA020F3F34
:1011F0001F4F2F4F3F4FF1F00091D7021091D802AF
:101200002091D9023091DA020E3F1F4F2F4F3F4FEE
:1012100089F0C090D702D090D802E090D902F09027
:10122000DA0221E08C149D04AE04BF0408F420E02F
:101230002093D20478941F910F91FF90EF90DF904C
:10124000CF90BF90AF909F908F907F906F905F9066
:101250004F9008954B015C0184189508A608B708C3
:10126000A3019201261B370B480B590B641575051A
:1012700086059705D0F082169306A406B50640F4BD
:1012800020E030E0A90181149104A104B10491F49B
:10129000A8E9BAE30E942C2FA7019601261B370B61
:1012A000480B590BCA01B901C5CF82169306A40693
:1012B000B50670F7A8E9BAE3A50194010E942C2FA6
:1012C0006C0D7D1D8E1D9F1DB5CFFECECF93DF9380
:1012D00000D01F92CDB7DEB71C821B821A82198202
:1012E000BE016F5F7F4FCE0103960E94BD236981CF
:1012F0007A818B819C810E94ED1C009761F4BE0174
:101300006F5F7F4FCE0103960E94C92369817A8166
:101310008B819C8126D50F900F900F900F90DF91BD
:10132000CF910895FF920F931F93CF93DF93082FD0
:1013300060E070E0CB010E94E22AFF24F3940E9457
:10134000D61BEC01892B89F010E0CE3F8FEFD80738
:1013500069F0002361F160E070E0CB010E94E22AB5
:1013600081E090E0892B59F322C011E01DD5EC01FA
:10137000892B21F0CE3F8FEFD80759F711111EC0EE
:1013800011E0229609F410E00E94861BEC01892BE3
:1013900021F0CE3F8FEFD807E1F6111111C011E017
:1013A000CE3F8FEFD80709F410E001110BC0CE013A
:1013B000DF91CF911F910F91FF90089511E0E4CF3D
:1013C00011E0F3CF60E070E0CB010E94E22A1F251C
:1013D000812F90E0C7CFCF93DF931ED6D0E0C0E03F
:1013E000892B71F06AE070E080E090E00E94E22AD0
:1013F00081E098DF11D62196C03D27E0D20781F722
:1014000010D60E94411D1092EA041092E904109235
:10141000E3041092E4041092E5041092E6041092A2
:10142000DF041092E0041092E1041092E2041092A2
:10143000DB041092DC041092DD041092DE041092A2
:10144000D7041092D8041092D9041092DA041092A2
:10145000D3041092D4041092D5041092D6044EEF07
:101460005FEF6FEF7FEF4093D7025093D802609306
:10147000D9027093DA021092D204EAECF4E028E088
:10148000DF011D922A95E9F71092C6041092C70455
:101490001092C8041092C9041092C2041092C3049E
:1014A0001092C4041092C5041092BE041092BF049E
:1014B0001092C0041092C1041092BA041092BB049E
:1014C0001092BC041092BD04DF91CF910895109248
:1014D000F6041092F7041092F8041092F904109296
:1014E000F5048091FE049091FF049093F40480939E
:1014F000F3041092F2041092F1041092ED04109291
:10150000EE041092EF041092F0041092FB0410927B
:10151000FA0490E080E00895CF92DF92EF92FF927C
:101520000F931F93CF938C01892B09F055C0209105
:10153000FE043091FF048091F3049091F4044091F3
:10154000FE045091FF045093F4044093F3042817D1
:10155000390781F01092F2041092F1041092ED0418
:101560001092EE041092EF041092F0041092FB041B
:101570001092FA048091FE049091FF04019761F5A6
:101580008091FA049091FB04892B21F48091DB0275
:10159000811112C08091FA049091FB040197E1F44B
:1015A0008091ED049091EE04A091EF04B091F004CD
:1015B0000197A105B10581F41092ED041092EE049B
:1015C0001092EF041092F0041092DB0282E090E09F
:1015D0009093FB048093FA048091FE049091FF04A1
:1015E000019709F01CC18091140590911505801791
:1015F000910709F014C18091100590911105A091F7
:101600001205B0911305009709F409C120910F0547
:1016100021110DC0409110055091110560911205E6
:1016200070911305452B462B472B09F4F8C02091E8
:10163000FA043091FB042230310509F0F0C020910A
:10164000F1042111ECC0FC01C080D180E280F38064
:101650008091F504882309F4D3C08091010590910D
:101660000205892B09F4FDC0209101053091020586
:1016700081E02230310509F080E0209101053091B0
:101680000205C1E02130310549F02091010530917A
:101690000205C1E02230310509F0C0E0882309F4D9
:1016A00056C020910B0530910C0540910D055091CD
:1016B0000E05C701B6010E940B2987FD14C02091B9
:1016C0000B0530910C0540910D0550910E05609170
:1016D000F6047091F7048091F8049091F9040E9447
:1016E000C52687FD22C020910B0530910C05409145
:1016F0000D0550910E05C701B6010E940B29181661
:1017000034F520910B0530910C0540910D05509159
:101710000E056091F6047091F7048091F8049091A1
:10172000F9040E94C526811112C080910305909191
:101730000405A0910505B0910605892B8A2B8B2BFA
:1017400019F481E08093F20481E08093F104CC23CA
:1017500009F456C020910B0530910C0540910D0500
:1017600050910E05C701B6010E94C52687FF14C01F
:1017700020910B0530910C0540910D0550910E05FF
:101780006091F6047091F7048091F8049091F90447
:101790000E940B2987FF22C020910B0530910C0578
:1017A00040910D0550910E05C701B6010E94C52656
:1017B000811126C020910B0530910C0540910D053B
:1017C00050910E056091F6047091F7048091F80431
:1017D0009091F9040E940B29181694F48091030546
:1017E00090910405A0910505B0910605892B8A2BDF
:1017F0008B2B19F481E08093F20481E08093F10453
:1018000081E09091F104911180E08093F504C09201
:10181000F604D092F704E092F804F092F904012B58
:1018200009F067C18091FA049091FB04892BD9F4E7
:10183000109200051092F1048091DB02882379F068
:1018400082E090E09093FB048093FA041092DB0214
:101850002091FE043091FF0481E0232BE9F080E029
:101860001BC081E00ACF1092DB0280910005882323
:1018700049F01092F2041092FB041092FA041092B4
:101880000005EDCF8091FE049091FF04892BE1F0DB
:101890008091F1041092F1042091FA043091FB043C
:1018A0002230310509F45EC088F42115310509F4B0
:1018B00048C02130310509F4F3C01092F2041092AF
:1018C000F1041092000538C081E0E6CF23303105E5
:1018D00009F4B1C02430310581F74091ED045091F5
:1018E000EE046091EF047091F0044115510561051B
:1018F000710561F041505109610971094093ED048E
:101900005093EE046093EF047093F0044091ED0463
:101910005091EE046091EF047091F004452B462B3A
:10192000472BD9F42091FC043091FD04213031057E
:1019300009F046C01092F2041092FB041092FA04CF
:101940000CC08091DB02882341F082E090E090930C
:10195000FB048093FA041092DB021092EB04809156
:10196000F204CEC08823C9F3809103059091040549
:10197000A0910505B0910605181619061A061B0652
:101980000CF07DC08091FE049091FF04019709F056
:1019900076C08091030590910405A0910505B09152
:1019A00006058093ED049093EE04A093EF04B093AA
:1019B000F00483E090E09093FB048093FA04CDCF91
:1019C00040910705509108056091090570910A053D
:1019D000452B462B472BA9F01092F2048091070566
:1019E00090910805A0910905B0910A058093ED0436
:1019F0009093EE04A093EF04B093F00481E090E0A4
:101A0000DACF882399F08091DC029091DD02A091D9
:101A1000DE02B091DF028093ED049093EE04A09378
:101A2000EF04B093F00484E090E0C5CF1092F2048C
:101A300082E090E0C0CF8091ED049091EE04A091FF
:101A4000EF04B091F0040097A105B10559F001979A
:101A5000A109B1098093ED049093EE04A093EF04E3
:101A6000B093F0048091ED049091EE04A091EF0406
:101A7000B091F004892B8A2B8B2B09F06ECF8091CB
:101A8000DC029091DD02A091DE02B091DF02892B91
:101A90008A2B8B2B09F44ECF81E08093F204B3CFD5
:101AA0004091ED045091EE046091EF047091F004C8
:101AB000411551056105710561F0415051096109F8
:101AC00071094093ED045093EE046093EF0470931A
:101AD000F0044091ED045091EE046091EF04709198
:101AE000F004452B462B472B09F037CF8111C7CF88
:101AF0009FCF8091EB04882309F431CF8091EC04CF
:101B0000CF911F910F91FF90EF90DF90CF900895AC
:101B10001092F6041092F7041092F8041092F9044F
:101B20001092F5041092FB041092FA041092F4043F
:101B30001092F30410921505109214051092F204FD
:101B40001092F1041092ED041092EE041092EF0442
:101B50001092F0041092EC041092EB041092100515
:101B600010921105109212051092130510920F0594
:101B700010920B0510920C0510920D0510920E0597
:101B800088EE93E0A0E0B0E08093DC029093DD0269
:101B9000A093DE02B093DF021092070510920805B1
:101BA0001092090510920A0510920305109204057F
:101BB000109205051092060510920205109201057B
:101BC00081E08093DB02109200051092FF041092D6
:101BD000FE041092FD041092FC0490E080E0089551
:101BE0008091FE049091FF04892B19F58091DB020E
:101BF000882351F080910005811106C081E0809317
:101C0000EC048093EB040895209100053091DB02F1
:101C100081E090E0332311F090E080E030E0822317
:101C20009323892B21F01092EC0481E0EACF1092EB
:101C3000EB04089582E090E0FA01918380838FEFB6
:101C40009FEF0895CF93DF93EA01009711F00E9470
:101C50005B1E1982188290E080E0DF91CF91089599
:101C6000DB01009719F48FEF8C9308952EEF2C93DE
:101C7000FC013F96EF30F10508F034C08827EC5B9B
:101C8000F14F8F4F0C94242F700E6E0E6C0E6A0E57
:101C9000680E640E660E620E600E5E0E5B0E570ED0
:101CA000530E590E720E80E311968C93089589E2BB
:101CB000FBCF82E2F9CF11961C92089583E2F4CF14
:101CC00081E2F2CF81E1F0CF87E2EECF8AE2ECCF82
:101CD00080E1EACF84E2E8CF88E2E6CF86E2E4CF93
:101CE00081E3E2CF80E2E0CF80912205909123054D
:101CF00008959093230580932205089580912105EE
:101D0000089590912105892B809321050895982F9E
:101D100090958091210589238093210508958091D4
:101D20002005089580911E0590911F050895611565
:101D3000710559F0FB0130E020E070E060E024170D
:101D4000350719F06115710511F0CB010895A081D7
:101D5000B181A817B90709F4BF012F5F3F4F36962D
:101D6000EECF8091240581111CC041D247D29093BF
:101D70001705809316050E94C9170E94DB179093E0
:101D80001B0580931A050E94EE1A0E94F51A909383
:101D900019058093180581E08093240590E080E088
:101DA000089584EF9FEF08958F929F92AF92BF9214
:101DB000CF92DF92EF92FF920F931F93CF93DF9317
:101DC00000D000D000D01F92CDB7DEB71A8619869A
:101DD00018861F821E821D821C821B821A82198213
:101DE0008091240507EF1FEF882309F48BC08E0133
:101DF0000D5F1F4F9E012B5F3F4FAE01495F5F4F4D
:101E0000BE01675F7F4F90E080E00E94721C8C01F2
:101E1000009721F00596029708F0C7C089859A853A
:101E2000009709F4EFC0ED80FE802B813C812E0DE0
:101E30003F1D4F8158854217530708F4E3C0E80E51
:101E4000F91ED7014C912091220530912305232BB7
:101E500009F494C0413F08F069C08CE1840F8D30D3
:101E600008F483C08DE2840F803108F481C088E3D8
:101E7000840F8B3008F47FC090E3C92E9EE0D92EEA
:101E8000EAE1FEE06D817E81AE014F5F5F4F8985A3
:101E90009A8519955C01C114D104A1F189809A80B9
:101EA0008114910479F18B819C818815990508F43E
:101EB00084C010E000E04B815C8170E060E0C7010D
:101EC0000E944E2F01151105E9F449815A81698557
:101ED0007A858D819E81680F791FC501F60119955C
:101EE000E980FA800D811E812F81388549855A85C8
:101EF0006FEF7FEF81E090E00E940D1C8C01892B39
:101F000009F053C0C8012A960FB6F894DEBF0FBE81
:101F1000CDBFDF91CF911F910F91FF90EF90DF9098
:101F2000CF90BF90AF909F908F90089530E020E0C9
:101F3000220F331FF901EA5EFA4F0190F081E02D84
:101F4000309709F499CF842F90E01995009709F400
:101F500093CFDC011296ED91FC9113971496CD90DE
:101F6000DC90309709F08ECF1EC021E030E0E0CF4A
:101F700022E030E0DDCF23E030E0DACFD12CC12CFD
:101F8000E2E2FEE04F3F09F07DCFE0911605F091CF
:101F90001705309719F404EF1FEF0CC08FEF90E096
:101FA00019950097B1F604EF1FEF89859A85009780
:101FB00009F4A8CF0E945B1EA5CF0E943C1D8C0196
:101FC00089859A850E945B1E70E060E0C4010E94D2
:101FD000D51C98878F830E940A1C9E838D836F81F6
:101FE00078856115710559F0C8010E94F11F9A8723
:101FF000898706EF1FEF892B09F05BCF5CCF08EFD5
:102000001FEF59CF08EF1FEFD0CF209124052111EA
:10201000D7C787EF9FEF0895809122059091230500
:1020200008950E94FA1A0E94541AEDD0E6E1F5E0F4
:1020300088E0DF011D928A95E9F71092240590E06F
:1020400080E0089586E090E0FA019183808390E03B
:1020500080E0089547E050E062ED73E068CEDF92E3
:10206000EF92FF920F931F93CF93DF938A01EC01BE
:10207000C60FD71FE0902805F0902905D9800E944F
:10208000241DD816190678F082E090E0F8019183BB
:1020900080838EEF9FEFDF91CF911F910F91FF9083
:1020A000EF90DF900895EF2841F482E090E0F8018E
:1020B0009183808384EF9FEFEECF89818093270502
:1020C00090E00196F8019183808390E080E0E3CF77
:1020D000CF93DF93EA010E946819882321F00E94C0
:1020E000311D0E94691982E090E0998388838BEF0B
:1020F0009FEFDF91CF910895CF93DF93EB0186E0BF
:10210000FB0111928A95E9F78FEF8883F7DD8983C8
:1021100006DE8A8307DE9D838C83DF91CF9108954D
:10212000CF93DF93EA010E946B19811109C082E00D
:1021300090E09983888385EF9FEFDF91CF91089599
:1021400090E080E0D6DD81E090E09983888390E0A4
:1021500080E0F3CF0F931F93CF93DF93EA018C01BD
:10216000060F171F0E946B1981110BC082E090E0CF
:102170009983888385EF9FEFDF91CF911F910F9116
:102180000895F8018181823038F082E090E09983EF
:1021900088838EEF9FEFF0CF81E090E0AADD88E0AA
:1021A00090E09983888390E080E0E6CFCF93DF933F
:1021B0000097D1F4EB01FB01329686E0DF011D921E
:1021C0008A95E9F78FEF888385E089831A820E94D8
:1021D000241D8B830E94231D9D838C8381E08E832D
:1021E0008F83DF91CF910895DF91CF9139CD8AE22E
:1021F00090E190932605809325050895809125050B
:1022000090912605089510922605109225050895AF
:1022100080912805909129050895411105C0611507
:1022200071058105910561F060932805709329057A
:1022300080932A0590932B0540932C0581E0089507
:1022400080E00895FF920F931F93CF93DF938A014D
:10225000EC01C60FD71FF9800E94241DF81619063D
:1022600068F082E090E0F801918380838EEF9FEF29
:10227000DF91CF911F910F91FF9008956C817D8127
:102280008E819F814B81C9DF811108C082E090E07F
:10229000F8019183808384EF9FEFEACF8981809357
:1022A000270590E00196F8019183808390E080E01B
:1022B000DFCFCF93DF93EA01FC01E60FF71F6481C4
:1022C0007581868197814381A8DF811109C082E0F1
:1022D00090E09983888384EF9FEFDF91CF910895F9
:1022E00081E090E09983888390E080E0F6CFE8E297
:1022F000F5E04081518162817381480F511D611D5C
:10230000711D40835183628373830895CF93C0917D
:1023100027054C2F50E06091280570912905019602
:102320000E94452F8C2FE3DF10922705CF9108954F
:10233000009799F480912805909129052FEFFB01D2
:102340002083892B59F02091270530E02F5F3F4FE4
:102350002417350719F4CB01D9CF82CC0895009703
:1023600099F480912805909129052FEFFB01208396
:10237000892B59F02091270530E02F5F3F4F24171C
:10238000350719F4CB01C2CF6BCC08952DE0AC0119
:10239000249FC001259F900D1124E0913105F091FB
:1023A0003205E80FF91F238134812250310981E081
:1023B0002230310508F080E008950F931F93CF93EA
:1023C000DF930091330510913405D0E0C0E080E048
:1023D0000C171D0749F491E0811190E0892FDF91DE
:1023E000CF911F910F9108958111F5CFCE01CEDFCE
:1023F0002196EECFA0913105B0913205109729F1C9
:10240000209133053091340582179307F0F45DE095
:10241000589F9001599F300D1124A20FB31FED91C9
:10242000FC911197309789F012968C91681768F497
:1024300085E0689FE00DF11D112480819181892B39
:1024400021F081E09281491708F080E00895EF9231
:10245000FF920F931F93CF93DF93EA01FC01E60FE6
:10246000F71F02811381E480F5804F2D6E2DC80186
:10247000C1DF81110DC082E090E0998388838EEFE7
:102480009FEFDF91CF911F910F91FF90EF900895F3
:10249000C8017CDF882339F082E090E0998388834B
:1024A00088EF9FEFEECF1093E7020093E602E092F1
:1024B000E802F092E90281E090E09983888390E05D
:1024C00080E0DFCFCF92DF92EF92FF920F931F93C6
:1024D000CF93DF937A01EC01C60FD71FC090E602BD
:1024E000D090E7020091E8021091E902412F602F9D
:1024F000C60180DF811110C082E090E0F701918376
:1025000080838AEF9FEFDF91CF911F910F91FF9012
:10251000EF90DF90CF900895C60138DF882341F017
:1025200082E090E0F7019183808388EF9FEFEBCF0B
:102530004C815D816E817F819A8189818F3F41F0DD
:1025400082E090E0F701918380838EEF9FEFDBCFF5
:10255000EDE0EC9D9001ED9D300D1124E0913105F1
:10256000F0913205E20FF31F0190F081E02D25E09C
:10257000029FE00DF11D11240190F081E02D27E074
:10258000129FE00DF11D1124808391838B81828342
:1025900043835483658376831F5F1093E90281E050
:1025A00090E0F7019183808390E080E0ACCFEF92E0
:1025B000FF920F931F93CF93DF937A018C01060F45
:1025C000171FC0913105D0913205209781F021E08D
:1025D00030E0F801828193814091330550913405B8
:1025E0008417950710F030E020E0232B71F482E08F
:1025F00090E0F701918380838EEF9FEFDF91CF9181
:102600001F910F91FF90EF9008954DE0489F90012A
:10261000499F300D1124C20FD31FB8DE882341F02B
:1026200082E090E0F7019183808388EF9FEFE6CF0F
:10263000F8012481358120383105C8F68781811160
:10264000D6CF4181842F90E08F7E009741F082E0C9
:1026500090E0F7019183808386EF9FEFCFCF4F8388
:102660003E832D83268128871986223010F421E0AD
:10267000288721E030E0F70131832083BFCF88E055
:1026800090E0FA019183808390E080E00895FB015F
:102690008FEF808381E181838FEF9FEF938382832C
:1026A00080E890E095838483168217820895FB0169
:1026B0008FEF808391E0918382839383848384E38B
:1026C000858381E090E09783868308954BE050E016
:1026D0006CEF73E02CCB8F929F92BF92CF92DF92E0
:1026E000EF92FF920F931F93CF93DF93EA01FC01C8
:1026F000E60FF71F828193810481B580E091310557
:10270000F0913205309791F482E090E099838883CC
:102710008CEF9FEFDF91CF911F910F91FF90EF9082
:10272000DF90CF90BF909F908F90089520913305B8
:10273000309134058217930738F082E090E0998356
:1027400088838EEF9FEFE6CF2DE0289F6001299FC1
:10275000D00C1124EC0DFD1DE080F180E114F1049A
:1027600099F28281081748F785E0089F80011124BB
:10277000E00EF11EF70180819181892B29F6BB20A3
:10278000E1F2F7E0BF9E40011124C4010E940D1E3A
:10279000F70191838083E0913105F0913205EC0DD2
:1027A000FD1D0190F081E02DE00FF11F80819181EE
:1027B000009739F482E090E0998388838DEF9FEF52
:1027C000A9CFA40170E060E00E944E2F80913105F6
:1027D00090913205C80ED91EF60180819181080FB3
:1027E000191FF801B28281E090E09983888390E01C
:1027F00080E090CFAF92BF92CF92DF92FF920F9383
:102800001F93CF93DF93EA01FC01E60FF71F82814C
:102810009381F48000913105109132050115110565
:1028200081F482E090E0998388838CEF9FEFDF91C1
:10283000CF911F910F91FF90DF90CF90BF90AF90FD
:10284000089520913305309134058217930738F0AD
:1028500082E090E0998388838EEF9FEFE8CF2FEF9F
:102860002F0D2C3FA8F72DE0289F6001299FD00C49
:1028700011240C0D1D1DF80180819181892B89F691
:10288000F5E0FF9E50011124C5010E940D1EF801C4
:1028900091838083E0913105F0913205EC0DFD1DAF
:1028A00080819181009739F482E090E09983888358
:1028B0008DEF9FEFBCCFA50170E060E00E944E2F2E
:1028C000E0913105F0913205EC0DFD1DF28281E0C1
:1028D00090E09983888390E080E0A9CFCF92DF9247
:1028E000EF92FF920F931F93CF93DF93860F971F63
:1028F000FC01028113818091310590913205892B71
:1029000081F082E090E0FA01918380838CEF9FEF69
:10291000DF91CF911F910F91FF90EF90DF90CF90BB
:102920000895C801B0E0A0E00197A109B1098F3F67
:102930009F4FA105B10540F082E090E0FA0191833C
:1029400080838EEF9FEFE4CF7A018DE0809F60015E
:10295000819FD00C1124C6010E940D1EEC0100972E
:1029600041F482E090E0F701918380838DEF9FEF47
:10297000CFCFA60170E060E00E944E2FD0933205C9
:10298000C0933105109334050093330590E080E047
:102990002FEF3FEF8017910741F481E090E0F701BE
:1029A0009183808390E080E0B3CF3C872B870196B2
:1029B0002D96F0CFCF92DF92EF92FF920F931F935D
:1029C000CF93DF93EC01D12CC12C10E000E0F12C6F
:1029D000E12C8A818017110609F0BCF4AE01455F35
:1029E0005F4F63E070E0C7010E94871E009721F0EF
:1029F0002FEF3FEF3C872B87DF91CF911F910F91F6
:102A0000FF90EF90DF90CF900895E881F981EC0D71
:102A1000FD1D23813481C90101960115110519F4A9
:102A20004F8144FD049661E070E0BFD7E816F906D7
:102A300008F47C010F5F1F4F85E0C80ED11CC9CF81
:102A4000F89420912F053091300581E02115310552
:102A500009F080E0232B09F0789408954F925F925B
:102A60006F927F928F929F92AF92BF92CF92DF929E
:102A7000EF92FF920F931F93CF93DF933C01660E6B
:102A8000771EF301828193814C01B12CA12CC0915E
:102A90003105D0913205209769F021E030E0609156
:102AA0003305709134058617970710F030E020E069
:102AB000232BC1F482E090E0FA01918380838EEFB2
:102AC0009FEFDF91CF911F910F91FF90EF90DF90DB
:102AD000CF90BF90AF909F908F907F906F905F90BE
:102AE0004F9008958092EA029092EB02A092EC023D
:102AF000B092ED026DE0689F9001699F300D112446
:102B0000C20FD31FF3018181833040F082E090E057
:102B1000FA019183808386EF9FEFD3CF2A012B8127
:102B20003C81232BF1F4288139819F8191FF2EC0B4
:102B3000232B09F464C0209136059A81422F490F56
:102B40005527551FBA0141E050E06138710514F076
:102B500050E040E0452B09F452C02A87920F909331
:102B600036058150823008F476C06ADF882309F484
:102B7000C5C0F3018181813009F480C008F470C0C0
:102B8000823009F4B3C090E080E08EC0232BB9F10D
:102B9000209135059A81E22FE90FFF27FF1F41E0C1
:102BA00050E0ED3FF10514F050E040E0452B39F1E5
:102BB0002A87920F90933505D4CFA081B181A20FBF
:102BC000B31F11966C91060F111D0196295F3F4F9F
:102BD0008417950794F3C114D104C9F48F8184FF3D
:102BE00016C031D721E0A8014B5F5F4F84179507CE
:102BF00008F420E0A7014B5F5F4F21110EC082E077
:102C000090E0F2019183808387EF9FEF5ACF1BD72B
:102C100021E0A8014F5F5F4FE9CF88819981E80EDD
:102C2000F91EF70114830383FFEFCF1ADF0A7A013D
:102C30008A818C151D0409F00CF497CFE881F98185
:102C4000EE0DFF1D428150E030E020E010E000E09A
:102C500090E080E0BDCFF12CE12CD12CC12CE8CF4D
:102C600081E090E09C838B83A8DB882309F48BCFE1
:102C700081E090E03ED880E44AD885CF8B859C8562
:102C8000019651F083E090E09C838B8382E090E09A
:102C900030D880E436D877CF89288A288B2879F4F1
:102CA000CE0188DE009771F3789422E030E0F201E3
:102CB00031832083892BF9F08DEF9FEF02CF2D8197
:102CC0003E818091E0029091E10228173907D1F608
:102CD0006091E4027091E502AE01455F5F4F809123
:102CE000E2029091E3020E94B01FDCCF82E090E00C
:102CF0009C838B8348CF90E080E0E3CE82E090E03D
:102D0000F2019183808385EF9FEFDBCE8F929F92BC
:102D1000AF92BF92CF92DF92EF92FF920F931F93E9
:102D2000CF93DF93EA018C01060F171FF801818111
:102D3000833098F082E090E09983888386EF9FEF5C
:102D4000DF91CF911F910F91FF90EF90DF90CF9087
:102D5000BF90AF909F908F90089580913105909192
:102D60003205892B61F081E090E0209133053091AC
:102D70003405232B11F490E080E0892B39F482E0B4
:102D800090E0998388838EEF9FEFDACF59DE882316
:102D900009F4D5C0F8018181813009F48BC0E8F0D5
:102DA000823099F42091330530913405E09131055A
:102DB000F091320590E080E041E050E028173907BB
:102DC00009F0B3C0FADA811117C0789481E090E07D
:102DD0009983888390E080E0B3CF209133053091D0
:102DE0003405E0913105F091320590E080E041E05A
:102DF00050E02817390741F481E090E00E94790EF5
:102E000080E40E94870EE1CF63817481672B11F00B
:102E10005483438301963D96ECCFE0913105F091C8
:102E20003205E00FF11F238134812230310561F436
:102E3000238534852F3F3F4F39F4C114D104E10479
:102E4000F10409F5CF01B6DDEFEFCE1ADE0AEE0A86
:102E5000FE0A035F1F4F409133055091340570E027
:102E600060E0C416D506E606F70664F50097A9F2F9
:102E70007894892B09F4AACF82E090E09983888323
:102E80008DEF9FEF5DCF458156812091E00230911B
:102E9000E10242175307C1F6AF01455F5F4F6091F2
:102EA000E4027091E5028091E2029091E3020E94B7
:102EB000B01FCACF10E000E090E080E0C12CD12C20
:102EC0007601C9CF0097A1F610E000E0812C912C8B
:102ED000540183E0E82EF12C1AC0E0913105F09105
:102EE0003205E00FF11F83819481029749F4F48247
:102EF000E38282E090E00E94790E80E40E94810EDD
:102F0000FFEF8F1A9F0AAF0ABF0A035F1F4F80911E
:102F1000330590913405B0E0A0E088169906AA0622
:102F2000BB06DCF290E080E0A3CF63817481623065
:102F3000710511F45483438301963D963FCF82E09F
:102F400090E09983888385EF9FEFFACE0097B9F4DC
:102F50008FEFFB0180832091EA023091EB024DE07C
:102F6000429FC001439F900D1124E0913105F091E3
:102F70003205E80FF91F8285FB01818308950C94C7
:102F8000300E88E090E0FA019183808390E080E049
:102F900008951092300510922F05E1E3F5E086E0E8
:102FA000DF011D928A95E9F786E693E190932E055D
:102FB00080932D05089580912D0590912E050895FB
:102FC0002F923F924F925F926F927F928F929F9239
:102FD000AF92BF92CF92DF92EF92FF920F931F9327
:102FE000CF93DF93CDB7DEB762970FB6F894DEBF0D
:102FF0000FBECDBFF89420912F05309130052F5F83
:103000003F4F3093300520932F0578942091310560
:10301000309132053B832A83232B09F456C120913A
:10302000330530913405232B09F44FC14D875E875A
:103030006F87788B9C878B878A819B819A8B898B02
:10304000D12CC12C198210E000E0809133059091C1
:103050003405C816D90618F43981332329F1F894B8
:1030600080912F05909130050197909330058093C2
:103070002F057894C80162960FB6F894DEBF0FBE94
:10308000CDBFDF91CF911F910F91FF90EF90DF9017
:10309000CF90BF90AF909F908F907F906F905F90F8
:1030A0004F903F902F900895B60190E080E029D393
:1030B0008887A989BA8917968C91179781FD8DC049
:1030C00013968D919C911497039709F086C01596DD
:1030D000ED91FC91FF83EE832B853C85E217F3078E
:1030E00009F07BC0712C612C512C412C63C092D310
:1030F0009A87898710E04114510431F4A989BA896B
:1031000017961C9112951170A989BA89ED91FC91BD
:10311000E60DF71D23803480111169C0BFEF2B1A13
:103120003B0A61E070E0C10140D45C01A989BA8921
:103130001B968D919C918F3F980709F45CC0B50157
:1031400050D74C01009709F4BBC0E985FA85E80F18
:10315000F91FA989BA891A968C91840D808311115F
:103160004DC08F010F5F1F4F8091E0029091E102EF
:10317000AE81BF81A817B90709F09DC081E090E03A
:10318000B885BB2311F090E080E0710109851A85B4
:103190009501A401B6019195819591093ED38C01C9
:1031A000892B11F0C40187D58FEF481A580A95E092
:1031B000690E711CA989BA8912968C91841515041F
:1031C00029F024F0B981BB2309F491CFE885EE23DF
:1031D00021F0B60190E080E096D2FFEFCF1ADF0A2F
:1031E00029893A89235F3F4F3A8B298B2ECFE5E01F
:1031F0002E0E311C96CFC50110D5A3CF8D859E858F
:10320000AF85B88981839283A383B4838F010B5FD9
:103210001F4FAACFE080F180EC81FD81EE0EFF1EF2
:10322000D70113966D917C9114978C918F3FE1F1AA
:10323000E1E0F0E002C0EE0FFF1F8A95E2F7CF0158
:10324000092E000CAA0BBB0BFB014081518162814E
:10325000738184239523A623B72321E0892B8A2B0E
:103260008B2B09F420E0D8012C93D70111968C9177
:10327000080F111DEA81FB813196FB83EA832C81C3
:103280003D81295F3F4F3D832C83A989BA89ED9108
:10329000FC91E60DF71D82812A813B81821713067E
:1032A00011F00CF0B7CF6ACFF701418150E0C801AF
:1032B0000E94452FDACF1D821C821B821A82E5CF25
:1032C00031E0398306EF1FEF6FCF10E000E0C7CE8B
:1032D000B7CB789408952F923F924F925F926F925E
:1032E0007F929F92AF92BF92CF92DF92EF92FF9226
:1032F0000F931F93CF93DF9300D000D0CDB7DEB7ED
:10330000009131051091320599249394011511050E
:1033100009F43EC0A0903305B090340591DB982E9F
:103320008823B1F1109232051092310510923405C4
:103330001092330510923505109236058FEF9FEFEE
:10334000DC018093EA029093EB02A093EC02B0932D
:10335000ED0278947AD31E830D83C12CD12C760193
:10336000C501B0E0A0E089839A83AB83BC832224AB
:103370002A94322C89819A81AB81BC81C816D906E6
:10338000EA06FB06F4F0C80196D480E40E94870E9A
:10339000892D26960FB6F894DEBF0FBECDBFDF9104
:1033A000CF911F910F91FF90EF90DF90CF90BF9042
:1033B000AF909F907F906F905F904F903F902F9035
:1033C0000895C114D104E104F10409F5D8011B9654
:1033D0008D919C918F3F980709F043D5F801348671
:1033E0002386ED81FE8180819181B12CA12C412C1D
:1033F000512C3201892B69F5BFEFCB1ADB0AEB0A9E
:10340000FB0AED81FE813D96FE83ED83B3CFAD8156
:10341000BE8115962D913C9116978091E002909176
:10342000E10228173907E9F61B968D919C91C7D5C3
:10343000D8CF8A0D9B1DDC018D919C91009709F0DE
:103440003AD4BFEF4B1A5B0A6B0A7B0AE5E0AE0E7B
:10345000B11CAD81BE818D919C91119712964C91BA
:1034600050E070E060E044165506660677060CF3FF
:1034700022D4C2CFCF93DF93EA012DDF811109C09F
:1034800082E090E09983888385EF9FEFDF91CF9171
:10349000089581E090E00E94790E81E090E09983A8
:1034A000888390E080E0F2CF16DF10922E05109214
:1034B0002D05089542E050E06EE374E00C94970E01
:1034C000FF920F931F93CF93DF938A01EC01C60FF6
:1034D000D71FF980B9D20897F816190671F068F06D
:1034E00082E090E0F801918380838EEF9FEFDF917F
:1034F000CF911F910F91FF9008956C817D818E81F6
:103500009F814B810E940D11811108C082E090E0E3
:10351000F8019183808384EF9FEFE9CFF9800E94C7
:1035200008114F2D50E0BE01685F7F4F0E94452F6C
:1035300089810E94771181E090E0F8019183808376
:1035400090E080E0D4CFDF92EF92FF920F931F9331
:10355000CF93DF938A01EC01C60FD71F0E94081199
:103560007C01D98071D2DD2059F0029721E030E052
:10357000D816190619F010F030E020E0232B79F46A
:1035800082E090E0F801918380838EEF9FEFDF91DE
:10359000CF911F910F91FF90EF90DF900895EF284A
:1035A00041F482E090E0F8019183808384EF9FEF03
:1035B000EECFF9800E9408114F2D50E0BE016E5FE2
:1035C0007F4F0E94452F89810E94771181E090E012
:1035D000F8019183808390E080E0D9CF8AE59AE179
:1035E0009093380580933705089580913705909121
:1035F000380508950895FC01118210829383828317
:103600000895DB011D921C92DC011296ED91FC9154
:1036100013977183608313967C936E93129708952A
:10362000FC0180819181DB018D939C93A081B1810C
:10363000109741F08D919C9191838083892B11F497
:10364000F383E2830895FC0180819181DB018D93F6
:103650009C93892B11F47383628371836083089533
:10366000FC0111821082938382830895CF93DF93AC
:103670001F921F92CDB7DEB71A821982F894BE014D
:103680006F5F7F4F8EE395E0CBDF89819A81009752
:1036900009F011D389819A81892B89F7BE016F5F67
:1036A0007F4F82E495E0BCDF89819A81009709F021
:1036B00002D389819A81892B89F778940F900F9092
:1036C000DF91CF910895CF93DF931F921F92CDB7D3
:1036D000DEB71A821982F894BE016F5F7F4F8AE3CA
:1036E00095E09EDF89819A81009709F0E4D2898173
:1036F0009A81892B89F778940F900F90DF91CF9161
:10370000089581E0089590E080E00895EF92FF929F
:103710000F931F93CF93DF931F921F92CDB7DEB706
:103720001A8219828091390507EF1FEF8823A1F1D2
:10373000F894BE016F5F7F4F82E495E071DF78946B
:1037400089819A81EE24E394F12C892B51F4F89429
:10375000BE016F5F7F4F8EE395E062DF7894F12CBE
:10376000E12C89819A810EEF1FEF0097A9F0FC01EF
:103770004281538164E070E034D68C01892B61F082
:10378000F89469817A81C701880F991F880F991F62
:10379000825C9A4F58DF7894C8010F900F90DF91A8
:1037A000CF911F910F91FF90EF9008950F931F936A
:1037B000CF93DF9300D01F92CDB7DEB71C821B8260
:1037C0001A8219828091390507EF1FEF8823C1F013
:1037D000AE014D5F5F4F64E070E0CE01019674D69C
:1037E0008C01892B69F4E981FA818B819C81938317
:1037F0008283F89469817A818AE395E002DF789484
:10380000C8010F900F900F900F90DF91CF911F91F3
:103810000F91089579D7049608958F929F92AF9251
:10382000BF92CF92DF92EF92FF920F931F93CF93AD
:10383000DF931F921F92CDB7DEB71A821982BC01A7
:103840006F5F7F4F6330710598F0AA24AA94BA2C59
:10385000C5010F900F90DF91CF911F910F91FF90B5
:10386000EF90DF90CF90BF90AF909F908F90089592
:103870004115510551F3480159018A016C01CADF14
:103880008815990511F7E114F104F9F28E0D9F1DC9
:10389000A816B906D0F2809139058823F1F0F89482
:1038A000B501645071099701AE014F5F5F4FC801C8
:1038B00004969FD65C01892B71F489819A81F80165
:1038C00093838283C601880F991F880F991FB801BF
:1038D000825C9A4F96DE7894BBCF87EFA82EBB24EC
:1038E000BA94B6CFAF92BF92CF92DF92EF92FF928F
:1038F0000F931F93CF93DF931F921F92CDB7DEB725
:103900001A821982892B09F047C06115710509F4E3
:1039100043C04115510509F43FC02115310509F493
:103920003BC001151105C1F1809139058823B9F11A
:1039300079016A015B01F894BE016F5F7F4F8AE3F2
:1039400095E06EDE789489819A81009759F1DC01C7
:1039500012966D917C91A801049664D68C01E98140
:10396000FA81D501ED93FC93828193810496F6014F
:10397000918380834FDFD7018D939C93C8010F9073
:103980000F90DF91CF911F910F91FF90EF90DF90FB
:10399000CF90BF90AF9008950FEF1FEFEFCF07EFDD
:1039A0001FEFECCF0EEF1FEFE9CFCF93DF93EC01CA
:1039B000672B71F4B2D68C179D0760F0A5D62496BC
:1039C000C80FD91FA4D68C0F9D1FDF91CF910895EA
:1039D000A1D6F1CF90E080E0F8CF0F931F93CF9363
:1039E000DF932091390521112BC08B01EC018EE36F
:1039F00095E001DE82E495E0FEDD8AE395E0FBDD03
:103A000086D00097C1F489D670E060E0CEDF4EEE3C
:103A100052E062E070E07BD1009769F48091EE02A1
:103A20009091EF028CD6B801CE01C1D4009719F461
:103A300021E020933905DF91CF911F910F910895D7
:103A400084EF9FEFF8CF66C668C6CF93DF9368D642
:103A5000EC01892B11F40ADE36DECE01DF91CF9125
:103A60000895CF93DF935CD6EC01892B09F4FEDD3A
:103A7000CE01DF91CF9108958091EE029091EF02F7
:103A80000895CF93DF9380913905D0E0C0E088237B
:103A9000D1F05AD6EC01892BB1F4E8DD14DE809127
:103AA000EE029091EF02DDD1ECD2EC01892B59F4BA
:103AB0008EE395E0D5DD82E495E0D2DD8AE395E002
:103AC000CFDD10923905CE01DF91CF910895CF93CC
:103AD000DF930097A1F4DF91CF910895EC011A8252
:103AE0001982A883309711F0928381832F5F3F4F13
:103AF000FC01860F971F4217530781F7ECCF30E088
:103B000020E0F0E0E0E0AFEF6F5F7F4FF4CFCF92C7
:103B1000DF92EF92FF920F931F93CF93DF930BE40B
:103B200016E00C7F8AE4E82E84E0F82E90E5C92E9A
:103B300094E0D92ECAE8D6E0D7014D915D917D0180
:103B4000F601619171916F01198308835D834C8344
:103B50005B834A837F836E839B012F5F3F4F249F4C
:103B6000C001259F900D349F900D1124998788875F
:103B7000C801ADDF88859985080F191F2A96F0E5E1
:103B8000EF16F4E0FF06C1F6E8E4F5E080E091E02E
:103B9000DF019C011D9221503040E1F71092470552
:103BA000109246051092A9061092A8061092AD0632
:103BB0001092AC061092AB061092AA061092AF06B5
:103BC0001092AE061092B1061092B0061092B30693
:103BD0001092B2061092B7061092B6061092B50671
:103BE0001092B4061092B9061092B8061092BB0655
:103BF0001092BA06109287061092860610928906D5
:103C00001092880690E080E0DF91CF911F910F9194
:103C1000FF90EF90DF90CF900895009799F1F8947E
:103C20008930910550F480918C0690918D06892BF6
:103C300039F020E090E080E018C08131910550F427
:103C40008091960690919706892B31F021E081E0D2
:103C500090E00BC08197A8F48091A0069091A106F6
:103C6000892B79F022E082E090E0EAE0E89FD00141
:103C7000E99FB00D1124A657B94F8D919C910097E3
:103C800021F4789490E080E00895E29FF0011124FF
:103C9000E657F94FDC0111964D915C9151834083B9
:103CA000428153814150510953834283FC01219346
:103CB000CF0178940895009749F1DC018E91853009
:103CC00041F4E0918806F09189063097F9F0CD0132
:103CD00019948530D8F4282F30E0F8948FEF8C9326
:103CE0008AE0829FF001839FF00D1124E657F94F7F
:103CF0008081918112969C938E931197B183A083BA
:103D00008281938101969383828378940895CF92E0
:103D1000DF92EF92FF920F931F93CF93DF939C015B
:103D20008BE495E08C7F4115510509F497C021156E
:103D3000310509F493C06115710509F48FC07A014A
:103D4000AB01B9016D5F7F4F6C7F9B012F5F3F4FD0
:103D5000249F8001259F100D349F100D1124F8948D
:103D60002091A8063091A906232B59F42091B00682
:103D70003091B1062115310569F12017310708F09E
:103D800056C02091B2063091B306232B91F42091B6
:103D9000B0063091B106820F931F2091BA06309180
:103DA000BB062115310509F43FC02017310708F083
:103DB00052C07894CFEFDFEF86EF9FEFF701D1830A
:103DC000C083DF91CF911F910F91FF90EF90DF9013
:103DD000CF900895C3E0D0E0C0904605D09047054D
:103DE0002DEF30E02C193D092017310710F32AE0A0
:103DF0002C9FF0012D9FF00D1124E657F94F918370
:103E000080835583448353834283778366831187FA
:103E100000875DDE0C0D1D1D1093470500934605C0
:103E2000789490E080E0CACFC4E0D0E0D5CFC3E082
:103E3000D0E02AE02C9FF0012D9FF00D1124E657D1
:103E4000F94F9183808355834483538342837783DF
:103E500066833DDEE5CFC4E0D0E0EBCF8FEF9FEF90
:103E6000B0CFFF920F931F93CF93DF939C0123500A
:103E700031092230310508F070C0EC01F89484E07B
:103E80009AE09C9FD0019D9FB00D1124AE56B94F72
:103E9000082F10E0909FF001919FF00D1124E6573C
:103EA000F94F20813181C017D10714F1FF24F39419
:103EB000232B41F52AE0209FF001219FF00D1124D2
:103EC000E657F94F80914605909147054085518509
:103ED000841B950B90934705809346052C9FF0011A
:103EE0002D9FF00D1124E657F94F118610861CC046
:103EF000232B39F42D913C911197232BA9F4815058
:103F0000C7CFF12C8AE08C9FF0018D9FF00D11241A
:103F1000E657F94F4085518570E060E080819181DE
:103F20000E944E2FF110C6CF8AE08C9FF0018D9F2A
:103F3000F00D1124E657F94F118210821582148278
:103F40001382128217821682789490E080E0DF91CB
:103F5000CF911F910F91FF9008958FEF9FEFF7CFB3
:103F60004115510549F1009739F16115710521F1AC
:103F7000F8942091860630918706232BB9F420917E
:103F8000880630918906232B89F4909387068093C5
:103F900086067093890660938806789425E030E061
:103FA00090E080E0FA0131832083089578942FEF28
:103FB0003FEF86EF9FEFF6CF8FEF9FEF08950597C6
:103FC00069F4F8941092870610928606109289067A
:103FD00010928806789490E080E008958FEF9FEF2C
:103FE00008956115710519F4F0E0E0E011C0853025
:103FF000910581F4E0918606F09187063097A1F350
:10400000CB0101961995009779F3FC0185E0819326
:10401000CF0108959C01235031092230310520F74A
:104020002AE0289FD001299FB00D1124A657B94F2F
:104030002D913C911197232BB9F216962D913C911D
:1040400017972617370780F2F89412962D913C9116
:1040500013972115310529F0ED91FC9111973097B7
:1040600011F47894C1CF4181528111965C934E93A3
:104070002150310913963C932E9312978193789493
:10408000C7CFE8E4F6E08EE3DF011D928A95E9F7F9
:10409000E8E4F5E080E091E0DF019C011D92215011
:1040A0003040E1F71092470510924605EAE8F6E045
:1040B00082E3DF011D928A95E9F7E6E8F6E084E005
:1040C000DF011D928A95E9F790E080E00895CF9393
:1040D000DF93C091F002D091F102CF3FDC0759F499
:1040E000DFD39093F1028093F00297FF09C0D09341
:1040F000F102C093F00284EF9FEFDF91CF9108951A
:1041000090E080E0FACF8230910528F48093BC06DD
:1041100090E080E008958FEF9FEF08954F925F92B7
:104120006F927F92AF92BF92CF92DF92EF92FF9207
:104130000F931F93CF93DF931F921F92CDB7DEB7DC
:104140001A821982009709F479C06115710509F482
:1041500075C02091F0023091F10207EF1FEF2F3F61
:104160003F4F09F445C06B015C01412C512C3201D9
:10417000F12CE12C10E000E09E012F5F3F4FA601E3
:104180004E195F09B5016E0D7F1D8091F00290916F
:10419000F102E4D3892B09F04BC089819A81009701
:1041A00041F4E114F10429F42091BC06222309F41E
:1041B00042C0E80EF91EEC14FD04D0F480E8481665
:1041C00084E858068EE16806710420F560E070E02E
:1041D000CB010E94E22A2AE0420E511C611C711C94
:1041E0000A3F4FEF140721F0043F8FEF1807A1F4A7
:1041F000C8010F900F90DF91CF911F910F91FF9009
:10420000EF90DF90CF90BF90AF907F906F905F90D6
:104210004F90089501EF1FEF81E090E0013F2FEFF5
:10422000120711F090E080E0892B09F4A5CFE0CFD0
:1042300004EF1FEFDDCF0AEF1FEFDACF0FEF1FEF15
:10424000D7CF4F925F926F927F92AF92BF92CF92F1
:10425000DF92EF92FF920F931F93CF93DF931F9202
:104260001F92CDB7DEB71A821982009709F479C080
:104270006115710509F475C02091F0023091F102C9
:1042800007EF1FEF2F3F3F4F09F445C06B015C0163
:10429000412C512C3201F12CE12C10E000E09E0168
:1042A0002F5F3F4FA6014E195F09B5016E0D7F1DAF
:1042B0008091F0029091F10207D3892B09F04BC055
:1042C00089819A81009741F4E114F10429F4209145
:1042D000BC06222309F442C0E80EF91EEC14FD04CA
:1042E000D0F480E8481686E9580688E96806710423
:1042F00020F560E070E0CB010E94E22A2AE0420E45
:10430000511C611C711C0E3F4FEF140721F0043F3C
:104310008FEF1807A1F4C8010F900F90DF91CF9194
:104320001F910F91FF90EF90DF90CF90BF90AF90D3
:104330007F906F905F904F90089502EF1FEF81E0A4
:1043400090E0023F2FEF120711F090E080E0892B00
:1043500009F4A5CFE0CF04EF1FEFDDCF0EEF1FEF85
:10436000DACF0FEF1FEFD7CF8091F0029091F102DB
:104370008F3F980749F08CD2892B49F48FEF9FEF3C
:104380009093F1028093F00290E080E0089584EF32
:104390009FEF0895FC01680F791F90E080E0E61719
:1043A000F70709F408952191820F911DF8CF20910C
:1043B000BD06211113C08BDE009791F41092C30645
:1043C0001092C2061092C1061092C0061092BF064B
:1043D0001092BE0621E02093BD06089584EF9FEF62
:1043E0000895AF92BF92CF92DF92EF92FF920F9318
:1043F0001F93CF93DF93009709F460C046305105B7
:1044000008F45CC02091BD06C7EFDFEF222309F45A
:1044100049C08C01060F171FF801C080D180C1145C
:10442000D10409F44EC096012A5F3F4F421753074B
:1044300008F447C07C018091C2069091C306938323
:104440008283B6016C5F7F4F5801A60EB71EC8016C
:10445000A1DFF5019183808364E070E0C8015EDE36
:10446000EC01892BF9F481E090E04DDEB601C80142
:10447000049654DEEC01892B91F462E070E0C501F2
:104480004DDEEC01892B59F4C70115DC8091C20681
:104490009091C30601969093C3068093C20690E064
:1044A00080E031DECE01DF91CF911F910F91FF901F
:1044B000EF90DF90CF90BF90AF900895CFEFDFEFF8
:1044C000F1CFC9EFDFEFEECF6F927F928F929F9285
:1044D000AF92BF92CF92DF92EF92FF920F931F9312
:1044E000CF93DF9300D01F92CDB7DEB7009709F4CA
:1044F0007AC04115510509F476C02091BD0607EF39
:104500001FEF222309F44DC03A017B015C0164E0F6
:1045100070E0CE01019695DE8C01892B09F041C037
:1045200009811A810115110509F45AC0480186E074
:10453000880E911CB701680D791D8091F20290914F
:10454000F3024FDD6C01009709F450C0A70170E041
:1045500060E00E944E2F89819A81AB81BC81EC0C76
:10456000FD1CF70181939193A193B1937F0181E0A9
:1045700090E0C9DDB801C70164DE892B31F562E046
:1045800070E0C701800F911F5CDE8C01892BE9F47C
:1045900090E080E0B8DDF501D182C082F301918224
:1045A0008082C8010F900F900F900F90DF91CF91F4
:1045B0001F910F91FF90EF90DF90CF90BF90AF9041
:1045C0009F908F907F906F90089590E080E09BDDAA
:1045D000F50111821082F30111821082C6016BDB9A
:1045E00009EF1FEFDECF0FEF1FEFDBCF06EF1FEF5F
:1045F000D8CF0097A1F04115510589F0211531055B
:1046000071F0F90136966E177F0748F0DC012D93A3
:104610003C93DA01ED93FC9390E080E008958FEFF6
:104620009FEF0895AF92BF92CF92DF92EF92FF92E9
:104630000F931F93CF93DF93009709F45FC0411549
:10464000510509F45BC06530710508F457C020912D
:10465000BD06C7EFDFEF222391F1DC01CD90DC90A6
:1046600011971296ED91FC9196012A5F3F4FC9EF89
:10467000DFEF2617370719F5C091BE06D091BF06A8
:10468000209749F521E030E03093BF062093BE0625
:104690007A018C01F093C106E093C0065601B4E0A4
:1046A000AB0EB11CB50176DE0A0D1B1DF801208191
:1046B00031818217930729F5D701CD92DC92CE0183
:1046C000DF91CF911F910F91FF90EF90DF90CF90EE
:1046D000BF90AF9008952091C0063091C1062F5F22
:1046E0003F4FCCEFDFEFE217F30790F2CBEFDFEFB6
:1046F0002E173F0768F2D0E0C0E0CACFCFEFDFEF60
:10470000DECFC3EFDFEFDBCF84E090E0089582E0FF
:1047100090E008958CEF9FEF089580E290E0089577
:104720001092C3061092C2061092C1061092C006E3
:104730001092BF061092BE0690E080E0089590931C
:10474000F3028093F20208958091BD06882391F0D0
:104750000BDE009789F41092C3061092C2061092E5
:10476000C1061092C0061092BF061092BE061092AB
:10477000BD06089590E080E00895009749F0611526
:10478000710531F0FC0111821082FB01118210824F
:104790000895F3CF40E855E260E070E090E080E0FB
:1047A00000C08130910579F01CF4892B39F008950F
:1047B0008230910561F0039771F0089526E081ED54
:1047C00096E00C94442C26E08EE697E0FACF26E0A3
:1047D0008BE098E0F6CF26E088EA98E0F2CF1F92CF
:1047E0000F920FB60F9211240BB60F922F933F9397
:1047F0004F935F936F937F938F939F93AF93BF93E9
:10480000EF93FF938AE591EF909325018093240124
:10481000B9D0FF91EF91BF91AF919F918F917F910F
:104820006F915F914F913F912F910F900BBE0F9021
:104830000FBE0F901F9018958AE591EF9093250178
:1048400080932401A3E7B0E08C918E7F8C93E0E20B
:10485000F1E080818C7F8083E1E2F1E08081877EDE
:10486000808380818360808380818B7F80838C9133
:1048700081608C930895E3E7F0E0808190819E7FD2
:1048800090838170089581E008951092C406089580
:1048900068EE73E080E090E095D690E080E00895C7
:1048A00026E040E050E16EE070E081ED96E0ECD76C
:1048B00081ED96E01FD7892B21F081ED96E034D76A
:1048C000F7CF90E080E00895CF92DF92EF92FF92D1
:1048D0000F931F93CF93DF936B017A01E901198244
:1048E000188281ED96E006D7892B69F18601CC24E8
:1048F000C39482E0D82E8091C406811110C081ED4E
:1049000096E012D70297B9F7C092C406F801D19287
:104910008F0188819981019699838883ECCF888162
:1049200099818E159F0578F481ED96E0FDD68F3F35
:104930009807A9F3F80181938F01888199810196E5
:1049400099838883ECCF90E080E0DF91CF911F9135
:104950000F91FF90EF90DF90CF9008950F931F93EA
:10496000CF93DF93EA01890181ED96E00E94D42E76
:10497000F801D183C08390E080E0DF91CF911F9157
:104980000F910895CF92DF92EF92FF928091C5062A
:1049900091E0980F9093C506882369F021E030E0FC
:1049A0003093C7062093C6068093C506FF90EF900C
:1049B000DF90CF9008957894E091F502F091F6029F
:1049C000C1A8D2A8E3A8F4A80E946502B701A60175
:1049D00090E080E00E94E301F8948091C506815048
:1049E000E3CFCF93DF931092D2091092D10920D652
:1049F000D1DEC091F502D091F602198218826FEFD4
:104A00007FEFCB010E945A0270E060E090E080E00E
:104A10000E94E9000097A9F50E948A07F89478940B
:104A2000BE01675C7F4F8A819B810E94EC00892BCD
:104A300059F46FEF7FEFCB010E9479010E9454027D
:104A4000882311F081E08DAFF894F6DE0E945702C2
:104A5000811104C00E94540291E0811190E0909372
:104A6000D10978940E94740EEC0178948091D10958
:104A700081110AC00E9446080E943C02F89490E00E
:104A800080E0DF91CF9108950E943A020E94570280
:104A900091E0811106C00E94540291E0811101C091
:104AA00090E09093D2099091D20981E0911180E039
:104AB0008093D1098091D2098111DDDE219729F4FB
:104AC0000E94740E892B09F4E0DE0E94740EEC0142
:104AD000DADECCCF4F925F926F927F928F929F924D
:104AE000AF92BF92CF92DF92EF92FF92CF93DF937C
:104AF00000D01F92CDB7DEB72B013C0169017A01CE
:104B000020E030E0A901C701B6013FD187FF57C0BF
:104B1000C701B60127D14B015C0121E02983A50122
:104B20009401C701B60131D1811101C0198281E020
:104B30003981382369F1A7019601C301B20129D156
:104B40004B015C01E894B7F820E030E040E05FE31F
:104B5000C501B401A3D024D29B01AC01C501B401AD
:104B60009CD09B01AC015F7729833A834B835C83A4
:104B700020E030E040E054E3C501B401C0D39B0124
:104B8000AC0169817A818B819C81FFD018166CF50C
:104B9000A7019601C301B2010F900F900F900F90E3
:104BA000DF91CF91FF90EF90DF90CF90BF90AF90CB
:104BB0009F908F907F906F905F904F900BC2C70136
:104BC000B601EED14B015C0120E030E0A901C70144
:104BD000B601DBD08111A1CFA5019401C701B601B7
:104BE000D4D08111D5CF1982A3CF60E070E0CB0182
:104BF0000F900F900F900F90DF91CF91FF90EF905B
:104C0000DF90CF90BF90AF909F908F907F906F90EC
:104C10005F904F900895CF92DF92EF92FF926B01D9
:104C20007C019F7720E030E040E859E5AED087FF77
:104C30002DC020E030E040E05FE3C701B601EBD2D9
:104C400087FD0CC020E030E040E05FE3C701B60123
:104C500025D0FF90EF90DF90CF90A2C120E030E010
:104C600040E05FEBC701B601D6D2181664F020E031
:104C700030E040E05FE3C701B6010FD0FF90EF9056
:104C8000DF90CF906FC0C12CD12C7601C701B60147
:104C9000FF90EF90DF90CF9008955058BB27AA2740
:104CA0000ED068C259D230F05ED220F031F49F3F6E
:104CB00011F41EF429C20EF4E095E7FBF6C1E92FCA
:104CC0006AD280F3BA17620773078407950718F052
:104CD00071F49EF599C20EF4E0950B2EBA2FA02D1B
:104CE0000B01B90190010C01CA01A0011124FF2799
:104CF000591B99F0593F50F4503E68F11A16F04094
:104D0000A22F232F342F4427585FF3CF4695379592
:104D10002795A795F0405395C9F77EF41F16BA0B57
:104D2000620B730B840BBAF09150A1F0FF0FBB1F05
:104D3000661F771F881FC2F70EC0BA0F621F731F4E
:104D4000841F48F4879577956795B795F7959E3FAB
:104D500008F0B3CF9395880F08F09927EE0F979539
:104D6000879508953AD280F09F3740F491110EF460
:104D70004CC260E070E080E89FE3089526F01B16C7
:104D8000611D711D811D97C1B1C16BD108F481E016
:104D900008950CD0EFC1E7D140F0DED130F021F41E
:104DA0005F3F19F082C1511130C2AEC1F4D198F306
:104DB0009923C9F35523B1F3951B550BBB27AA279C
:104DC00062177307840738F09F5F5F4F220F331F0E
:104DD000441FAA1FA9F333D00E2E3AF0E0E830D0DA
:104DE00091505040E695001CCAF729D0FE2F27D0DD
:104DF000660F771F881FBB1F261737074807AB07AB
:104E0000B0E809F0BB0B802DBF01FF2793585F4F1F
:104E10002AF09E3F510568F048C1F7C15F3FECF3AF
:104E2000983EDCF3869577956795B795F7959F5FE4
:104E3000C9F7880F911D9695879597F90895E1E038
:104E4000660F771F881FBB1F621773078407BA0797
:104E500020F0621B730B840BBA0BEE1F88F7E095F2
:104E6000089519F40EF021C1CFC14EC19CD1C8F3F1
:104E70009638C0F707F80F92E8942BE33AEA48EB2C
:104E80005FE74BD20F920F920F924DB75EB70F9222
:104E900003D2E4EEF0E03BD14F915F91EF91FF91AF
:104EA000E595EE1FFF1F49F0FE57E0684427EE0F1F
:104EB000441FFA95E1F74195550BBAD10F9007FEC3
:104EC000AEC1089504D06894B1119FC108956BD10B
:104ED00088F09F5790F0B92F9927B751A0F0D1F0E3
:104EE000660F771F881F991F1AF0BA95C9F712C06D
:104EF000B13081F089D1B1E0089586C1672F782F54
:104F00008827B85F39F0B93FCCF3869577956795D8
:104F1000B395D9F73EF490958095709561957F4F44
:104F20008F4F9F4F0895E89409C097FB3EF49095EA
:104F30008095709561957F4F8F4F9F4F9923A9F072
:104F4000F92F96E9BB279395F69587957795679501
:104F5000B795F111F8CFFAF4BB0F11F460FF1BC045
:104F60006F5F7F4F8F4F9F4F16C0882311F096E9D8
:104F700011C0772321F09EE8872F762F05C0662386
:104F800071F096E8862F70E060E02AF09A95660F3F
:104F9000771F881FDAF7880F9695879597F90895F8
:104FA0001CD180F09F3740F491110EF02EC160E0CB
:104FB00070E080E89FEB089526F41B16611D711DBB
:104FC000811D79C093C0C8D018F011F0CCD038F44E
:104FD0009BC01BC1E92FDFD0B0F35523C9F3E7FB1A
:104FE0006217730784079507A8F199F3E92FFF2744
:104FF00088232AF03197660F771F881FDAF7952FDD
:105000005527442332F091505040220F331F441F44
:10501000D2F7BB27E91BF50B621B730B840BB1099D
:10502000C1F222F4620F731F841FB11D31972AF061
:10503000660F771F881FBB1FEFCF915050405AF06B
:1050400041F0882332F0660F771F881F915050403F
:10505000C1F793954BC08695779567959F5FD9F774
:10506000F8CF990F0008550FAA0BE0E8FEEF1616CF
:105070001706E807F907C0F012161306E407F5074C
:1050800098F0621B730B840B950B39F40A2661F0C0
:10509000232B242B252B21F408950A2609F4A14063
:1050A000A6958FEF811D811D089597F99F6780E870
:1050B00070E060E00895882371F4772321F0985020
:1050C000872B762F07C0662311F499270DC09051C6
:1050D000862B70E060E02AF09A95660F771F881F94
:1050E000DAF7880F9695879597F908959F3F31F0E5
:1050F000915020F4879577956795B795880F911D06
:105100009695879597F908959FEF80EC0895DF9322
:10511000CF931F930F93FF92EF92DF927B018C014D
:10512000689405C0DA2EEF01F6D0FE01E894A5914F
:105130002591359145915591AEF3EF01C0DDFE010A
:105140009701A801DA9479F7DF90EF90FF900F9123
:105150001F91CF91DF91089500240A941616170627
:1051600018060906089500240A9412161306140658
:1051700005060895092E0394000C11F4882352F0BB
:10518000BB0F40F4BF2B11F460FF04C06F5F7F4F73
:105190008F4F9F4F089557FD9058440F551F59F05A
:1051A0005F3F71F04795880F97FB991F61F09F3F14
:1051B00079F087950895121613061406551FF2CF3D
:1051C0004695F1DF08C0161617061806991FF1CF8D
:1051D00086957105610508940895E5DFA0F0BEE7A6
:1051E000B91788F4BB279F3860F41616B11D672FD6
:1051F000782F8827985FF7CF869577956795B11DAB
:1052000093959639C8F30895E894BB2766277727C6
:10521000CB0197F9089525DF08F48FEF08959B01DE
:10522000AC0160E070E080E89FE3B3CD3ECF5ECF9D
:10523000BADFE8F39923D9F3940F511DBBF39150D2
:10524000504094F059F0882332F0660F771F881F82
:1052500091505040C1F79E3F510544F7880F911D72
:105260009695879597F908955F3FACF0983E9CF02E
:10527000BB27869577956795B79508F4B1609395A8
:10528000C1F7BB0F58F711F460FFE8CF6F5F7F4F96
:105290008F4F9F4FE3CFB9CFFA01DC01AA0FBB1F9D
:1052A0009B01AC01BF5728F42227332744275078AD
:1052B0001FC0B75188F4AB2F00244695379527952A
:1052C000011CA395D2F3002069F0220F331F441F65
:1052D000B395DAF30DD0E1CC61307105A0E88A070F
:1052E000B94630F49B01AC01662777278827907870
:1052F000309621F0208331834283538308950BD06D
:1053000039CF2ADF28F02FDF18F0952309F0CDCE12
:10531000FBCE11247ACF3FDFA0F3959FD1F3950FF9
:1053200050E0551F629FF001729FBB27F00DB11D29
:10533000639FAA27F00DB11DAA1F649F6627B00DB9
:10534000A11D661F829F2227B00DA11D621F739FA2
:10535000B00DA11D621F839FA00D611D221F749FB0
:105360003327A00D611D231F849F600D211D822FF7
:10537000762F6A2F11249F5750408AF0E1F088233E
:105380004AF0EE0FFF1FBB1F661F771F881F91504B
:105390005040A9F79E3F510570F087CE36CF5F3F52
:1053A000ECF3983EDCF3869577956795B795F7957E
:1053B000E7959F5FC1F7FE2B880F911D9695879506
:1053C00097F90895FA01EE0FFF1F30962105310578
:1053D00099F16115710561F48038BFE39B0749F1CC
:1053E00068949038810561F08038BFEF9B0741F0E9
:1053F000992342F5FF3FE1053105210511F1E894BC
:105400000894E795D901AA2329F4AB2FBE2FF85FA2
:10541000D0F310C0FF5F70F4A695E0F7F73950F0B5
:1054200019F0FF3A38F49F779F930CD00F9007FC48
:10543000905808953EF068CE60E070E080E89FE309
:1054400008954FE79F775F934F933F932F930BD030
:105450002F913F914F915F9152DF08CD0EF046CED4
:1054600053CE689422CE9FDEC8F39923D1F3C6F3BE
:10547000DF93CF931F930F93FF92C92FDD278823CC
:105480002AF02197660F771F881FDAF720E030E0B7
:1054900040E85FEB9FE3883920F0803E30F02196B2
:1054A0008F77FCDBECE0F1E003C0F8DBE9E3F1E04F
:1054B0002EDE8B01BE01EC01FB2E6F577109759535
:1054C000771F880B990B31DD28E132E741E35FE379
:1054D00022DFAF2D9801AE01FF900F911F91CF9168
:1054E000DF91EDDB47CE1F920F920FB60F92112482
:1054F0002F933F938F939F93AF93BF938091C90650
:105500009091CA06A091CB06B091CC063091C80606
:1055100023E0230F2D3758F50196A11DB11D2093CF
:10552000C8068093C9069093CA06A093CB06B09391
:10553000CC068091CD069091CE06A091CF06B09179
:10554000D0060196A11DB11D8093CD069093CE0685
:10555000A093CF06B093D006BF91AF919F918F914A
:105560003F912F910F900FBE0F901F90189526E836
:10557000230F0296A11DB11DD2CF3FB7F8948091A1
:10558000CD069091CE06A091CF06B091D00626B55B
:10559000A89B05C02F3F19F00196A11DB11D3FBF6B
:1055A000BA2FA92F982F8827BC01CD01620F711D3A
:1055B000811D911D42E0660F771F881F991F4A9534
:1055C000D1F708958F929F92AF92BF92CF92DF92C0
:1055D000EF92FF926B017C01D0DF4B015C01C114A3
:1055E000D104E104F104D9F00CD4C7DF68197909BA
:1055F0008A099B09683E73408105910580F321E08B
:10560000C21AD108E108F10888EE880E83E0981EDE
:10561000A11CB11CC114D104E104F10431F7FF90C5
:10562000EF90DF90CF90BF90AF909F908F900895B4
:10563000789484B5826084BD84B5816084BD85B56D
:10564000826085BD85B5816085BDEEE6F0E0808134
:1056500081608083E1E8F0E0108280818260808355
:10566000808181608083E0E8F0E0808181608083D8
:10567000E1EBF0E0808184608083E0EBF0E080810A
:1056800081608083E1E9F0E08081826080838081B5
:1056900081608083E0E9F0E0808181608083E1EADD
:1056A000F0E0808182608083808181608083E0EA95
:1056B000F0E0808181608083E1E2F1E080818260BE
:1056C0008083808181608083E0E2F1E0808181607D
:1056D0008083EAE7F0E0808184608083808182605B
:1056E0008083808181608083808180688083109244
:1056F000C1000895FC01918D228D892F90E0805C7E
:105700009F4F821B91098F7399270895FC01918DFA
:10571000828D981731F0828DE80FF11D858D90E014
:1057200008958FEF9FEF0895FC01918D828D98175A
:1057300061F0A28DAE0FBF2FB11D5D968C91928D41
:105740009F5F9F73928F90E008958FEF9FEF089572
:10575000FC01538D448D252F30E0842F90E0821B77
:10576000930B541710F0CF96089501970895FC01FC
:10577000A48DA80FB92FB11DA35ABF4F2C91848DB2
:1057800090E001968F739927848FA689B7892C930F
:10579000A089B1898C91837080648C93938D848D62
:1057A000981306C00288F389E02D80818F7D808365
:1057B0000895CF93DF93EC01888D8823B1F0AA89F7
:1057C000BB89E889F9898C9185FD03C0808186FDBC
:1057D0000CC00FB607FCF7CF8C9185FFF2CF80810C
:1057E00085FFEDCFCE01C3DFEACFDF91CF910895E2
:1057F000EF92FF920F931F93CF93DF93EC0181E021
:10580000888F9B8D8C8D98131AC0E889F9898081C7
:1058100085FF15C09FB7F894EE89FF896083E889FA
:10582000F98980818370806480839FBF81E090E0EC
:10583000DF91CF911F910F91FF90EF900895F62E79
:105840000B8D10E00F5F1F4F0F731127E02E8C8D13
:105850008E110BC00FB607FCFACFE889F989808159
:1058600085FFF5CFCE0183DFF2CFEB8DEC0FFD2F5F
:10587000F11DE35AFF4FF0829FB7F8940B8FEA892E
:10588000FB8980818062D0CFCF92DF92EF92FF922E
:105890001F93CF93DF93EC016A017B01122FE889FC
:1058A000F98982E08083C11481EED806E104F10415
:1058B00099F060E079E08DE390E0A7019601A2D233
:1058C000215031094109510956954795379527953A
:1058D000211580E1380790F0E889F989108260E8A5
:1058E00074E88EE190E0A70196018CD22150310935
:1058F000410951095695479537952795EC85FD85C2
:105900003083EE85FF852083188EEC89FD89108316
:10591000EA89FB89808180618083EA89FB898081B3
:1059200088608083EA89FB89808180688083EA8936
:10593000FB8980818F7D8083DF91CF911F91FF90C4
:10594000EF90DF90CF9008951F920F920FB60F92B5
:1059500011240BB60F922F938F939F93EF93FF9386
:10596000E091E106F091E2068081E091E706F09196
:10597000E80682FD1DC090818091EA068F5F8F73DB
:105980002091EB06821741F0E091EA06F0E0EF5239
:10599000F94F958F8093EA06FF91EF919F918F9138
:1059A0002F910F900BBE0F900FBE0F901F90189568
:1059B0008081F2CF1F920F920FB60F9211240BB677
:1059C0000F922F933F934F935F936F937F938F9398
:1059D0009F93AF93BF93EF93FF9381ED96E0C7DE64
:1059E000FF91EF91BF91AF919F918F917F916F91B7
:1059F0005F914F913F912F910F900BBE0F900FBE73
:105A00000F901F901895E1EDF6E01382128288EE58
:105A100093E0A0E0B0E084839583A683B7838AE512
:105A200094E09183808385EC90E09587848784EC73
:105A300090E09787868780EC90E0918B808B81EC5B
:105A400090E0938B828B82EC90E0958B848B86EC3C
:105A500090E0978B868B118E128E138E148E089584
:105A60001F920F920FB60F9211240BB60F922F9325
:105A70008F939F93EF93FF93E0917E07F0917F07C1
:105A80008081E0918407F091850782FD1DC090819F
:105A9000809187078F5F8F7320918807821741F06D
:105AA000E0918707F0E0E259F84F958F80938707E0
:105AB000FF91EF919F918F912F910F900BBE0F90BF
:105AC0000FBE0F901F9018958081F2CF1F920F92FA
:105AD0000FB60F9211240BB60F922F933F934F9353
