:100000005CC0000081C000007FC000007DC0000017
:100010007BC0000079C0000077C0000075C0000000
:1000200073C0000071C000006FC000006DC0000010
:100030006BC0000069C0000067C0000065C0000020
:100040000C94450961C000000C942D0C0C945F0CBD
:100050005BC0000059C0000057C0000055C0000040
:1000600053C0000051C00000000000080002010061
:100070000003040700000000000000000102040863
:100080001020408001020408102001020408102002
:10009000040404040404040402020202020203032E
:1000A0000303030300000000250028002B000000CC
:1000B0000000240027002A00840C11241FBECFEF6B
:1000C000D8E0DEBFCDBF11E0A0E0B1E0E2EBFFE1A0
:1000D00002C005900D92A633B107D9F722E0A6E33E
:1000E000B1E001C01D92A338B207E1F710E0CDE501
:1000F000D0E004C02197FE010E94650FCC35D107E6
:10010000C9F7DAD60C94D70F7BCFCF93DF93882330
:1001100049F0EB0181500E94FB0999838883DF91AC
:10012000CF910895FB0111821082F9CF0F931F9395
:100130008B019C0183E036952795179507958A9545
:10014000D1F7015C1E4F462F477021E030E0F901E6
:1001500002C0EE0FFF1F4A95E2F7AF01F8012081C0
:100160002423CB010196211102C090E080E01F9171
:100170000F9108950F931F938B019C0183E0369597
:100180002795179507958A95D1F7677081E090E0DC
:1001900001C0880F6A95EAF7F801E15CFE4F208103
:1001A000452B31F48095822380831F910F91089510
:1001B000822BFACFCF92DF92EF92FF92CF93DF9311
:1001C0006B017C0160E08EE0C816D104E104F1040B
:1001D00090F48EE08C0D0E949A0AE6012196AE0101
:1001E000C701B601C7DFCE01DF91CF91FF90EF903D
:1001F000DF90CF9008958C2DEECF882341F0815071
:10020000682F70E090E080E050E040E0B3CF0895C8
:10021000CF92DF92EF92FF92CF93882339F16A0158
:100220007B01CFEFC80F20E030E0A901CB01B60180
:10023000DED687FF10C0C701B6019058E1D69B01FA
:10024000AC016C2F70E090E080E0CF91FF90EF90D8
:10025000DF90CF90AEC0C701B601CDD68C2FCF9125
:10026000FF90EF90DF90CF900C94160ACF91FF9003
:10027000EF90DF90CF9008950F931F938B019C0117
:1002800083E036952795179507958A95D1F70A5CEF
:100290001E4F462F477021E030E0F90102C0EE0FFB
:1002A000FF1F4A95E2F7AF01F80120812423CB011B
:1002B0000196211102C090E080E01F910F910895F6
:1002C0000F931F938B019C0183E03695279517951B
:1002D00007958A95D1F7677081E090E001C0880F9B
:1002E0006A95EAF7F801EA5CFE4F2081452B31F46C
:1002F0008095822380831F910F910895822BFACFDE
:100300002F923F924F925F926F927F928F929F9225
:10031000AF92BF92CF92DF92EF92FF920F931F9313
:10032000CF93DF93D62EC72E782E692E49015A011E
:10033000280161E08D2D0E949A0ACD2DDC2D8E01C1
:100340000F5F1F4FA8016D2D7C2D872D962DB8DFD7
:1003500020E030E0A901C201B70130D7181654F4EB
:10036000C201B7014DD62B01C501B40149D6A20186
:10037000CE0123D0C801DF91CF911F910F91FF9043
:10038000EF90DF90CF90BF90AF909F908F907F9035
:100390006F905F904F903F902F900895882341F089
:1003A0008150682F70E090E080E050E040E088CF1E
:1003B0000895862FB9010C94160A9C01FC01E85996
:1003C000FF4FE491E33061F140F4E13011F1E230AC
:1003D00021F160E0822F0C94D60AE730C1F1E830B9
:1003E00009F441C0E430A9F7809180008C7F8260DD
:1003F0008093800090918100907E9061692B609342
:100400008100509387004093860080918000806235
:100410001BC084B5806884BDDCCF84B58062FBCF0F
:10042000809180008C7F8260809380009091810019
:10043000907E9061692B6093810050938700409378
:10044000860080918000806880938000C2CF809178
:10045000B00080688093B0008091B100887F682BE5
:100460006093B100B6CF8091B0008062F3CFAB0152
:10047000BC018EE591E00C94070F8F929F92AF9292
:10048000BF92CF92DF92EF92FF920F931F93CF9381
:10049000DF93CDB7DEB77B014A015901CDB6DEB699
:1004A0009B01220F331F4DB75EB7421B530B0FB694
:1004B000F8945EBF0FBE4DBF0DB71EB70F5F1F4F45
:1004C000E82FF0E0EE0FFF1FEE5FFE4F0190F0818E
:1004D000E02DC8010995F801D401E00EF11EEE15DA
:1004E000FF0519F081918D93FACF81E0F5018083AA
:1004F0000FB6F894DEBE0FBECDBEDF91CF911F9137
:100500000F91FF90EF90DF90CF90BF90AF909F90B2
:100510008F9008959F92AF92BF92CF92DF92EF9209
:10052000FF920F931F93CF93DF93CDB7DEB7C054E5
:10053000D1090FB6F894DEBF0FBECDBFB82E8B0128
:10054000942EA52E6901E82EF12CEE0CFF1CF7016C
:10055000E050FF4F0190F081E02D09958017910741
:10056000C9F49601492D5A2DBC018B2D86DFC05C44
:10057000DF4F0FB6F894DEBF0FBECDBFDF91CF9136
:100580001F910F91FF90EF90DF90CF90BF90AF90B1
:100590009F9008958017910748F4E92DFA2D0E0FCA
:1005A0001F1FE017F10719F11192FBCF9801220FDD
:1005B000331F2817390728F09601492D5A2DB80105
:1005C000D4CFB8010E942F0FCB010197809FB001BB
:1005D000819F700D909F700D1124F701EE5FFE4F0B
:1005E0000190F081E02DCE0101960995E5CFF6014D
:1005F0001082BDCF8EE591E00C94030B08954F92CD
:100600005F926F927F928F929F92AF92BF92CF92A2
:10061000EF92FF920F931F93CF93DF93CDB7DEB787
:100620002B013A01F02E9C2DB40130E02830310529
:1006300011F424E030E00AE010E0992351F000E1E9
:1006400010E0913031F008E010E0923011F002E05B
:1006500010E08111D0C0F1101BC0269DA001279D84
:10066000500D369D500D1124B2018EE591E0DF91C1
:10067000CF911F910F91FF90EF90CF90BF90AF90CF
:100680009F908F907F906F905F904F900C94B10CE3
:100690008EE591E00E94ED0CE11015C0640C751C14
:1006A0006414750409F4A7C0F20161912F01F1E00F
:1006B000A8018EE591E0FF1203C00E94BF0DF0CFAC
:1006C0000E94C50DEDCF81E0E81215C0E1E06E1A81
:1006D000710808F490C0F201619171912F01F1E06D
:1006E000A8018EE591E0FF1203C00E94D50DEECF68
:1006F0000E94DA0DEBCF82E0E81217C0E1E06E1A3B
:10070000710808F478C0F2014191519161917191A1
:100710002F01F1E098018EE591E0FF1203C00E94E5
:10072000B30DECCF0E94EA0DE9CF83E0E81218C0C8
:10073000640C751C4614570409F45DC0F201619104
:100740002F01062E000C770BF1E0A8018EE591E059
:10075000FF1203C00E948D0DEDCF0E94930DEACFD2
:1007600084E0E81215C0E1E06E1A710808F443C095
:10077000F201619171912F01F1E0A8018EE591E004
:10078000FF1203C00E948D0DEECF0E94930DEBCFA0
:1007900085E0E81216C0E1E06E1A710860F1F2011E
:1007A00041915191619171912F01F1E098018EE594
:1007B00091E0FF1203C00E94480DEDCF0E94A30DEF
:1007C000EACF86E0E81217C0B12CE1E06E1A71089A
:1007D00090F0F20141915191619171912F01F1E0FD
:1007E00095018EE591E0FF1203C00E94CA0EEDCF85
:1007F0000E94CB0EEACFDF91CF911F910F91FF9016
:10080000EF90CF90BF90AF909F908F907F906F9020
:100810005F904F9008958F929F92AF92CF92DF9208
:10082000EF92FF920F931F93CF93DF93CDB7DEB775
:1008300028970FB6F894DEBF0FBECDBFC09004015D
:10084000D0900501E0900601F0900701A701960104
:10085000609153027091540280915502909156021A
:10086000C6D3882341F0C0925302D0925402E09242
:100870005502F09256026EE070E080E090E056DCA7
:10088000909352028093510243E050E0BE016B5FAF
:100890007F4F3BDCC0900C01D0900D01E0900E0129
:1008A000F0900F01A7019601609121027091220240
:1008B00080912302909124029AD3882341F0C09220
:1008C0002102D0922202E0922302F092240280912F
:1008D000100189839D818E819A838B838091110180
:1008E0008C8360913502709136028091370290912D
:1008F000380286D3C62E60912D0270912E0280910F
:100900002F02909130027CD3E62E609131027091DB
:100910003202809133029091340272D3062F60919B
:10092000290270912A0280912B0290912C0268D3A7
:10093000162F6091250270912602809127029091D6
:1009400028025ED3862F912C812C32E0A32E212FFA
:1009500044E050E0BE016F5F7F4F51DEC090080160
:10096000D0900901E0900A01F0900B01A7019601D7
:100970006091410270914202809143029091440241
:1009800036D3882341F0C0924102D0924202E092D5
:100990004302F092440260914502709146029E012A
:1009A000295F3F4FAE01485F5F4F80E0B3DD8F812D
:1009B000813049F488858F57990B880F991F909340
:1009C000680280936702809167029091680218160E
:1009D00019060CF040C08F3F910519F014F08FEF0D
:1009E00090E088871F826BE070E080E090E044DC5C
:1009F0008C0190936602809365026F8170E090E0B5
:100A000080E02AD3AB01BC01C80102DC6AE070E0DF
:100A100080E090E031DC8C0190935E0280935D0277
:100A2000688570E090E080E017D3AB01BC01C8019D
:100A3000EFDB28960FB6F894DEBF0FBECDBFDF9177
:100A4000CF911F910F91FF90EF90DF90CF90AF90DB
:100A50009F908F900895188681302FEF92072CF089
:100A60009195819591098F83BECF8FEF90E0FBCF59
:100A70008F929F92AF92BF92DF92EF92FF920F936D
:100A80001F93CF93DF9384E090E06BD1CBEFD1E065
:100A900010924B0204E011E0F80180819181A28163
:100AA000B3818093530290935402A0935502B09364
:100AB000560280E5E82E82E0F82EF7011082812CA4
:100AC000912C5401839480924C0290924D02A092FA
:100AD0004E02B0924F026EE070E080E090E06ADB80
:100AE0009093520280935102DD24D394F701D08277
:100AF0001882F80180859185A285B3858EA39FA376
:100B0000A8A7B9A789829A82AB82BC821AA61BA623
:100B10001CA61DA680E090E0A0E8BFE38EA79FA7DB
:100B2000A8ABB9AB1AAA1BAA1CAA1DAA1EAA1FAA67
:100B300018AE19AE1AAE1BAE1CAE1DAE80E05EDD67
:100B4000DD8210923B02F80184819581A681B781F4
:100B50008093410290934202A0934302B0934402D7
:100B600080923C0290923D02A0923E02B0923F02DF
:100B700081E090E090934802809347029093460270
:100B80008093450280E03ADDD092400210925F02ED
:100B9000C4E6D2E018828092600290926102A09234
:100BA0006202B0926302E12CF12C8701A801970147
:100BB0006BE070E080E090E0A3DB909366028093AE
:100BC0006502D88210925702CCE5D2E0188280925A
:100BD000580290925902A0925A02B0925B02A80168
:100BE00097016AE070E080E090E08ADB90935E021B
:100BF00080935D02D882DF91CF911F910F91FF907A
:100C0000EF90DF90BF90AF909F908F90089580916C
:100C10004B0281111DC081E080934B0280914C02F8
:100C200090914D02A0914E02B0914F020197A10503
:100C3000B10571F480915002882351F06EE070E0AC
:100C400080E090E073DA9093520280935102D5DAFB
:100C50008091FB01811103C081E08093FB018091B1
:100C60003B02811103C081E080933B0280915F02CF
:100C700081112AC081E080935F028091600290918F
:100C80006102A0916202B09163020197A105B105D2
:100C9000D9F4809164028823B9F06BE070E080E0C1
:100CA00090E0EADA909366028093650240E050E0BB
:100CB000BA01AEDA6BE070E080E090E0DDDA9093AC
:100CC0006602809365026ADB8091570281112AC017
:100CD00081E0809357028091580290915902A0912F
:100CE0005A02B0915B020197A105B105D9F4809138
:100CF0005C028823B9F06AE070E080E090E0BCDA42
:100D000090935E0280935D0240E050E0BA0180DA89
:100D10006AE070E080E090E0AFDA90935E0280934A
:100D20005D023CCB089560E070E080E89FE70895A5
:100D300060E070E080E89FE7089560E070E080E8A0
:100D40009FEF089560E070E080E89FEF089560E015
:100D500070E080EC9FEF089560E070E080EC9FEF22
:100D60000895F5DF609375027093760280937702A1
:100D700090937802F1DF6093690270936A02809326
:100D80006B0290936C02CFDF6093710270937202DA
:100D90008093730290937402CBDF60936D02709323
:100DA0006E0280936F0290937002C7DF60937902A6
:100DB00070937A0280937B0290937C02C3DF6093EE
:100DC0007D0270937E0280937F029093800208954B
:100DD00040E855E260E070E090E080E000C026E08E
:100DE0008EE591E0DAC40895CF92DF92EF92FF9200
:100DF0000F931F93A0D260934A0170934B0180938D
:100E00004C0190934D0100914E0110914F012091A2
:100E10005001309151016B017C01C01AD10AE20AE4
:100E2000F30A97018601003117422105310508F1C7
:100E300060934E0170934F01809350019093510144
:100E400025D079D200914E0110914F01209150018F
:100E500030915101601B710B820B930B6031774213
:100E60008105910570F081E090E0909354018093AA
:100E7000530181E01F910F91FF90EF90DF90CF9091
:100E800008951092540110925301F3CF80915201B2
:100E900091E0980F90935201882349F021E030E0CF
:100EA0003093540120935301809352010895B3DC91
:100EB000809152018150F8CFCF93DF93109282023C
:100EC000109281025DD284DFC0911301D091140190
:100ED00019821882CDDDF89486DF2881398181E07E
:100EE000232B09F080E08093810278948091810225
:100EF000811107C08CDEF89490E080E0DF91CF9103
:100F000008952881398181E0232B09F480E08093C2
:100F100082029091820281E0911180E080938102AF
:100F200063DFE4CF5058BB27AA270ED00DC1FED0F7
:100F300030F003D120F031F49F3F11F41EF4F3C0E0
:100F40000EF4E095E7FBE9C0E92F0FD180F3BA1763
:100F5000620773078407950718F071F49EF527C19F
:100F60000EF4E0950B2EBA2FA02D0B01B9019001C4
:100F70000C01CA01A0011124FF27591B99F0593F08
:100F800050F4503E68F11A16F040A22F232F342F50
:100F90004427585FF3CF469537952795A795F0409E
:100FA0005395C9F77EF41F16BA0B620B730B840BB3
:100FB000BAF09150A1F0FF0FBB1F661F771F881F6B
:100FC000C2F70EC0BA0F621F731F841F48F48795C3
:100FD00077956795B795F7959E3F08F0B3CF9395B2
:100FE000880F08F09927EE0F97958795089571D08F
:100FF00008F481E0089504D06894B111D9C008952F
:10100000BCD088F09F5790F0B92F9927B751A0F026
:10101000D1F0660F771F881F991F1AF0BA95C9F78C
:1010200012C0B13081F0C3D0B1E00895C0C0672FC5
:10103000782F8827B85F39F0B93FCCF3869577953C
:101040006795B395D9F73EF4909580957095619525
:101050007F4F8F4F9F4F0895E89409C097FB3EF450
:1010600090958095709561957F4F8F4F9F4F9923F5
:10107000A9F0F92F96E9BB279395F6958795779573
:101080006795B795F111F8CFFAF4BB0F11F460FF33
:101090001BC06F5F7F4F8F4F9F4F16C0882311F08B
:1010A00096E911C0772321F09EE8872F762F05C09F
:1010B000662371F096E8862F70E060E02AF09A953A
:1010C000660F771F881FDAF7880F9695879597F92F
:1010D0000895990F0008550FAA0BE0E8FEEF1616C9
:1010E0001706E807F907C0F012161306E407F5071C
:1010F00098F0621B730B840B950B39F40A2661F090
:10110000232B242B252B21F408950A2609F4A14032
:10111000A6958FEF811D811D089597F99F6780E83F
:1011200070E060E008959FEF80EC089500240A9439
:101130001616170618060906089500240A941216B2
:101140001306140605060895092E0394000C11F4E5
:10115000882352F0BB0F40F4BF2B11F460FF04C092
:101160006F5F7F4F8F4F9F4F089557FD9058440FEB
:10117000551F59F05F3F71F04795880F97FB991FF6
:1011800061F09F3F79F087950895121613061406B3
:10119000551FF2CF4695F1DF08C016161706180640
:1011A000991FF1CF86957105610508940895E8941B
:1011B000BB2766277727CB0197F908958ADF08F4C4
:1011C0008FEF08950BD0C0CFB1DF28F0B6DF18F055
:1011D000952309F0A2CFA7CF1124EACFC6DFA0F351
:1011E000959FD1F3950F50E0551F629FF001729FBC
:1011F000BB27F00DB11D639FAA27F00DB11DAA1FDB
:10120000649F6627B00DA11D661F829F2227B00D27
:10121000A11D621F739FB00DA11D621F839FA00DB2
:10122000611D221F749F3327A00D611D231F849F02
:10123000600D211D822F762F6A2F11249F57504059
:101240008AF0E1F088234AF0EE0FFF1FBB1F661FF4
:10125000771F881F91505040A9F79E3F510570F0AD
:101260005CCFA6CF5F3FECF3983EDCF38695779595
:101270006795B795F795E7959F5FC1F7FE2B880FA8
:10128000911D9695879597F908951F920F920FB625
:101290000F9211242F933F938F939F93AF93BF93FC
:1012A0008091560190915701A0915801B091590138
:1012B0003091550123E0230F2D3758F50196A11DDC
:1012C000B11D209355018093560190935701A0932F
:1012D0005801B093590180915A0190915B01A091FE
:1012E0005C01B0915D010196A11DB11D80935A0171
:1012F00090935B01A0935C01B0935D01BF91AF91AE
:101300009F918F913F912F910F900FBE0F901F9043
:10131000189526E8230F0296A11DB11DD2CF2FB735
:10132000F894609156017091570180915801909105
:1013300059012FBF08953FB7F89480915A019091B9
:101340005B01A0915C01B0915D0126B5A89B05C031
:101350002F3F19F00196A11DB11D3FBFBA2FA92F34
:10136000982F8827BC01CD01620F711D811D911D31
:1013700042E0660F771F881F991F4A95D1F708959D
:10138000789484B5826084BD84B5816084BD85B560
:10139000826085BD85B5816085BDEEE6F0E0808127
:1013A00081608083E1E8F0E0108280818260808348
:1013B000808181608083E0E8F0E0808181608083CB
:1013C000E1EBF0E0808184608083E0EBF0E08081FD
:1013D00081608083EAE7F0E080818460808380819F
:1013E0008260808380818160808380818068808347
:1013F0001092C10008958E3008F08E502091120195
:1014000090E4299F900111248770822B80937C00A7
:1014100080917A00806480937A0080917A0086FDC2
:10142000FCCF809178009091790008951F93CF931D
:10143000DF93182FEB0161E07DD0209731F460E05D
:10144000812FDF91CF911F91B1C0CF3FD10511F412
:1014500061E0F6CFE12FF0E0E859FF4FE491E3308F
:1014600031F140F4E130B1F0E230E1F0C038D105C3
:101470007CF7E5CFE73029F1E83059F1E430B1F7F6
:1014800080918000806280938000D0938B00C09315
:101490008A0004C084B5806884BDC7BDDF91CF9148
:1014A0001F91089584B5806284BDC8BDF7CF809137
:1014B0008000806880938000D0938900C09388006A
:1014C000EDCF8091B00080688093B000C093B300EE
:1014D000E5CF8091B00080628093B000C093B400EB
:1014E000DDCF833081F028F4813099F08230A9F08B
:1014F00008958730A9F08830C9F08430B1F4809124
:1015000080008F7D03C0809180008F778093800062
:10151000089584B58F7784BD089584B58F7DFBCF02
:101520008091B0008F778093B00008958091B000D3
:101530008F7DF9CFCF93DF9390E0FC01E458FF4F0C
:10154000249180579F4FFC0184918823C9F090E03B
:10155000880F991FFC01E255FF4FA591B491FC0142
:10156000EC55FF4FC591D49161110DC09FB7F89410
:101570008C91209582238C938881282328839FBF78
:10158000DF91CF910895623051F49FB7F8943C9168
:10159000822F809583238C93E8812E2BEFCF8FB7FA
:1015A000F894EC912E2B2C938FBFEACF1F93CF93FF
:1015B000DF93282F30E0F901E859FF4F8491F901BA
:1015C000E458FF4FD491F901E057FF4FC491CC2369
:1015D000A1F0162F811185DFEC2FF0E0EE0FFF1F39
:1015E000EC55FF4FA591B4918FB7F894EC91111180
:1015F00008C0D095DE23DC938FBFDF91CF911F9180
:101600000895DE2BF8CFFC01918D228D892F90E07B
:10161000805C9F4F821B91098F7399270895FC016D
:10162000918D828D981731F0828DE80FF11D858D97
:1016300090E008958FEF9FEF0895FC01918D828DCA
:10164000981761F0A28DAE0FBF2FB11D5D968C91E2
:10165000928D9F5F9F73928F90E008958FEF9FEF21
:101660000895FC01538D448D252F30E0842F90E0A8
:10167000821B930B541710F0CF960895019708958D
:10168000FC01A48DA80FB92FB11DA35ABF4F2C91F7
:10169000848D90E001968F739927848FA689B789EE
:1016A0002C93A089B1898C91837080648C93938DE5
:1016B000848D981306C00288F389E02D80818F7D88
:1016C00080830895CF93DF93EC01888D8823B1F058
:1016D000AA89BB89E889F9898C9185FD03C080813D
:1016E00086FD0CC00FB607FCF7CF8C9185FFF2CFBB
:1016F000808185FFEDCFCE01C3DFEACFDF91CF91AF
:101700000895EF92FF920F931F93CF93DF93EC0115
:1017100081E0888F9B8D8C8D98131AC0E889F98998
:10172000808185FF15C09FB7F894EE89FF8960839B
:10173000E889F98980818370806480839FBF81E01C
:1017400090E0DF91CF911F910F91FF90EF9008955E
:10175000F62E0B8D10E00F5F1F4F0F731127E02E39
:101760008C8D8E110BC00FB607FCFACFE889F98972
:10177000808185FFF5CFCE0183DFF2CFEB8DEC0FBB
:10178000FD2FF11DE35AFF4FF0829FB7F8940B8FA6
:10179000EA89FB8980818062D0CFCF92DF92EF927D
:1017A000FF921F93CF93DF93EC016A017B01122F0D
:1017B000E889F98982E08083C11481EED806E104CA
:1017C000F10499F060E079E08DE390E0A7019601E3
:1017D0005AD32150310941095109569547953795FA
:1017E0002795211580E1380790F0E889F989108262
:1017F00060E874E88EE190E0A701960144D321509F
:101800003109410951095695479537952795EC853A
:10181000FD853083EE85FF852083188EEC89FD8958
:101820001083EA89FB89808180618083EA89FB8952
:10183000808188608083EA89FB89808180688083D9
:10184000EA89FB8980818F7D8083DF91CF911F9111
:10185000FF90EF90DF90CF9008951F920F920FB6F8
:101860000F9211242F938F939F93EF93FF93E09107
:101870006E01F0916F018081E0917401F09175012A
:1018800082FD1BC09081809177018F5F8F732091C3
:101890007801821741F0E0917701F0E0E25AFE4FC3
:1018A000958F80937701FF91EF919F918F912F9169
:1018B0000F900FBE0F901F9018958081F4CF1F924C
:1018C0000F920FB60F9211242F933F934F935F9374
:1018D0006F937F938F939F93AF93BF93EF93FF93F8
:1018E0008EE591E0CDDEFF91EF91BF91AF919F9199
:1018F0008F917F916F915F914F913F912F910F90B9
:101900000FBE0F901F901895EEE5F1E01382128242
:1019100088EE93E0A0E0B0E084839583A683B7834C
:1019200089E191E09183808385EC90E095878487BD
:1019300084EC90E09787868780EC90E0918B808B99
:1019400081EC90E0938B828B82EC90E0958B848B82
:1019500086EC90E0978B868B118E128E138E148EF0
:101960000895AF92BF92CF92DF92EF92FF920F93C2
:101970001F93CF93DF936C017B018B01040F151F25
:10198000EB015E01AE18BF08C017D10759F069918D
:10199000D601ED91FC910190F081E02DC6010995F1
:1019A000892B79F7C501DF91CF911F910F91FF909E
:1019B000EF90DF90CF90BF90AF900895FB01019022
:1019C0000020E9F73197AF01461B570BDC01ED9181
:1019D000FC910280F381E02D09946115710509F0F5
:1019E000EDCF90E080E00895DC01ED91FC91019055
:1019F000F081E02D099467E271E0E0CF8F929F9231
:101A0000AF92BF92EF92FF920F931F93CF93DF930A
:101A1000CDB7DEB7A1970FB6F894DEBF0FBECDBF2E
:101A20007C01FA01CB0119A2223008F42AE08E01D0
:101A30000F5D1F4F822E912CB12CA12CBF01A5014F
:101A4000940121D2F901CA016A3004F5605DD80120
:101A50006E938D01232B242B252B81F790E080E0C2
:101A6000109719F0BD01C701A9DFA1960FB6F89430
:101A7000DEBF0FBECDBFDF91CF911F910F91FF90C1
:101A8000EF90BF90AF909F908F900895695CDFCFEB
:101A9000CF92DF92EF92FF920F931F93CF93DF933A
:101AA0002115310581F4DC01ED91FC910190F0816B
:101AB000E02D642FDF91CF911F910F91FF90EF9058
:101AC000DF90CF9009942A303105F1F42AE077FFB6
:101AD0001BC06A017B01EC016DE286DF8C014427AB
:101AE0005527BA014C195D096E097F092AE0CE011C
:101AF00085DF800F911FDF91CF911F910F91FF9094
:101B0000EF90DF90CF900895DF91CF911F910F91CB
:101B1000FF90EF90DF90CF9071CF9A01AB01770FDC
:101B2000660B770BB5CF0F931F93CF93DF93EC0129
:101B3000F4DF8C01CE015FDF800F911FDF91CF9129
:101B40001F910F9108950F931F93CF93DF93EC0193
:101B50009FDF8C01CE014FDF800F911FDF91CF916E
:101B60001F910F9108952115310541F4DC01ED918C
:101B7000FC910190F081E02D642F09943FCF9A01F0
:101B8000462F50E070E060E0EECF0F931F93CF93AD
:101B9000DF93EC01F4DF8C01CE012DDF800F911F6C
:101BA000DF91CF911F910F9108959A01AB0170E0E1
:101BB00060E0D9CF0F931F93CF93DF93EC01F5DF54
:101BC0008C01CE0118DF800F911FDF91CF911F9103
:101BD0000F9108950F931F93CF93DF93EC01C3DF11
:101BE0008C01CE0108DF800F911FDF91CF911F91F3
:101BF0000F9108952F923F924F925F926F927F9232
:101C00008F929F92AF92BF92CF92DF92EF92FF920C
:101C10001F93CF93DF93EC016A017B01722EAB011E
:101C20009601CB01B601BFD16AE271E0811123C0F8
:101C300046015701E894B7F82FEF3FEF4FE75FE712
:101C4000C501B401B0D181110BC02FEF3FEF4FE7B9
:101C50005FE7C501B401CBD96EE271E018165CF004
:101C60002FEF3FEF4FE75FE4C701B601A7DA181681
:101C7000ACF462E371E0CE01DF91CF911F91FF9050
:101C8000EF90DF90CF90BF90AF909F908F907F901C
:101C90006F905F904F903F902F9090CE2FEF3FEF3F
:101CA0004FE75FECC701B601A2D987FDE2CF20E084
:101CB00030E0A901C701B6019AD9312C212C87FF48
:101CC00008C06DE2CE0190DE1C01F7FAF094F7F83F
:101CD000F09410E060E070E080E09FE3711639F06E
:101CE00020E030E040E251E4F6D01F5FF7CFA701DB
:101CF000960119D92B013C0183D94B015C012AE0E3
:101D0000BC01A401CE017ADE7C01E20CF31C11239C
:101D100071F1C501B401A0D99B01AC01C301B201AD
:101D200001D94B015C016EE2CE015EDEE80EF91EC8
:101D30001150E8F020E030E040E251E4C501B40188
:101D400041DA2B013C015CD94B014AE050E0CE0165
:101D50002CDFE80EF91EB40190E080E07DD99B01F4
:101D6000AC01C301B201DED84B015C01E1CFC70178
:101D7000DF91CF911F91FF90EF90DF90CF90BF90B8
:101D8000AF909F908F907F906F905F904F903F901B
:101D90002F9008952FCF0F931F93CF93DF93EC01D4
:101DA00029DF8C01CE0127DE800F911FDF91CF91BB
:101DB0001F910F9108950F931F93CF93DF93EC0121
:101DC000AEDA688779878A879B87E881F981028400
:101DD000F385E02DCE01099597FF14C0A0DA0885A0
:101DE00019852A853B85601B710B820B930B0C8137
:101DF0001D812E813F81601771078207930728F3A9
:101E00008FEF9FEFDF91CF911F910F910895AF92C8
:101E1000BF92CF92DF92EF92FF920F931F93CF93D7
:101E2000DF935C017B018B01040F151FEB016E0139
:101E3000CE18DF08C017D10731F0C501BCDF97FD10
:101E400002C08993F4CFC601DF91CF911F910F910A
:101E5000FF90EF90DF90CF90BF90AF900895AA1BB6
:101E6000BB1B51E107C0AA1FBB1FA617B70710F085
:101E7000A61BB70B881F991F5A95A9F780959095B7
:101E8000BC01CD010895A1E21A2EAA1BBB1BFD01C6
:101E90000DC0AA1FBB1FEE1FFF1FA217B307E40749
:101EA000F50720F0A21BB30BE40BF50B661F771FA1
:101EB000881F991F1A9469F7609570958095909581
:101EC0009B01AC01BD01CF010895EE0FFF1F0590EE
:101ED000F491E02D09940CD037C92FD940F026D9C0
:101EE00030F021F45F3F19F018C9511161C91BC9C5
:101EF0003CD998F39923C9F35523B1F3951B550B9E
:101F0000BB27AA2762177307840738F09F5F5F4FCC
:101F1000220F331F441FAA1FA9F333D00E2E3AF00D
:101F2000E0E830D091505040E695001CCAF729D027
:101F3000FE2F27D0660F771F881FBB1F2617370776
:101F40004807AB07B0E809F0BB0B802DBF01FF27A6
:101F500093585F4F2AF09E3F510568F0DEC828C9AC
:101F60005F3FECF3983EDCF3869577956795B795E0
:101F7000F7959F5FC9F7880F911D9695879597F9FB
:101F80000895E1E0660F771F881FBB1F6217730774
:101F90008407BA0720F0621B730B840BBA0BEE1F89
:101FA00088F7E095089595D8880B990B0895F894D3
:021FB000FFCF61
:101FB200FA0237020AD7233C0000000000000000AA
:101FC200410001480100000000810BB10C310B629D
:101FD2000B030B1D0B0F0B0D0A006E616E00696E79
:061FE20066006F76660048
:00000001FF
