:100000005CC0000082C0000080C000007EC0000014
:100010007CC000007AC0000078C0000076C00000FC
:1000200074C0000072C0000070C000006EC000000C
:100030006CC000000C94BD1E68C0000066C00000CB
:100040000C94452262C000000C94E1240C9413250A
:100050005CC000005AC0000058C0000056C000003C
:1000600054C0000052C0000000000008000201005F
:100070000003040700000000000000000102040863
:100080001020408001020408102001020408102002
:10009000040404040404040402020202020203032E
:1000A0000303030300000000250028002B000000CC
:1000B0000000240027002A00382511241FBECFEF9E
:1000C000D8E0DEBFCDBF11E0A0E0B1E0EAEEFBE496
:1000D00002C005900D92AE3BB107D9F724E0AEEB1C
:1000E000B1E001C01D92AA3AB207E1F710E0CDE5F8
:1000F000D0E004C02197FE010E94C425CC35D10771
:10010000C9F70E94BA1F0C94F3257ACF611102C07F
:100110000C944E236130E1F362E0FACF662319F0CC
:1001200061E00C948A2360E0FCCF90E080E00895C9
:100130000F931F93009709F483C06115710509F4AB
:100140007FC0009108011091090120910A013091AE
:100150000B010E3F1F4F2F4F3F4F09F062C04FEF73
:100160005FEFBA01409308015093090160930A01BF
:1001700070930B01409108015091090160910A01AF
:1001800070910B01DC011296ED91FC9180819181BF
:10019000A281B3818093220290932302A093240230
:1001A000B093250284819581A681B78180931E0238
:1001B00090931F02A0932002B09321028085918525
:1001C000A285B38580931A0290931B02A0931C0210
:1001D000B0931D0284859585A685B7858093160208
:1001E00090931702A0931802B09319021092120272
:1001F0001092130210921402109215025ED482E83B
:1002000095E09093BF018093BE0156D3009731F4DF
:1002100021E030E030932702209326021F910F91B6
:100220000895009108011091090120910A0130916F
:100230000B01DB010D931D932D933C9313979ACFE4
:100240008FEF9FEFEBCF8F929F92AF92BF92CF92A3
:10025000DF92EF92FF921F93CF93DF934B015C01EC
:100260001091290282E090E0909327028093260269
:1002700081149104A104B10441F4809129028111F7
:1002800004C080912802C1E08111C0E0C12CD12CB2
:10029000760180912902811106C080912802811186
:1002A00002C0CC23D1F083E090E0909327028093AA
:1002B0002602CC2371F1CCE9DFEF111101C086D702
:1002C000CE01DF91CF911F91FF90EF90DF90CF9003
:1002D000BF90AF909F908F9008956AE070E080E0AB
:1002E00090E00E94B42280E1C80E87E2D81EE11C93
:1002F000F11C8FEF88169806A806B80631F0C1E009
:100300008C149D04AE04BF0408F0C0E080E000D36C
:10031000C0CFD0E0C0E0D1CFCF92DF92EF92FF927A
:100320001F93CF93DF938F3F910511F008F041C0E9
:1003300020912602309127022330310539F0209197
:100340002602309127022130310531F424E030E0DB
:1003500030932702209326026A017B01EC01892B4E
:10036000A9F011E0AE01C701B601A5D2AB01BC01F5
:1003700090E080E01123F9F0CE01DF91CF911F9141
:10038000FF90EF90DF90CF900C94FB0A8091BE011C
:100390009091BF01892B29F30E94020B029709F764
:1003A000E091BE01F091BF0190E080E00995182F27
:1003B000D9CF8FEF9FEFDF91CF911F91FF90EF90FB
:1003C000DF90CF90089580E0A3C2CF93DF9386E0C3
:1003D00090E09093270280932602F3D2EC011092D2
:1003E000BF011092BE018AD61092270210922602F7
:1003F000CE01DF91CF9108958091280208958091D8
:1004000011020895609308017093090180930A0115
:1004100090930B0190E080E00895CF92DF92EF92ED
:10042000FF926B017C019F7720E030E040E859E5C6
:100430000E94A92087FF2BC020E030E040E05FE36E
:10044000C701B6010E94DE2187FD0EC020E030E02A
:1004500040E05FE3C701B6010E943220FF90EF90B9
:10046000DF90CF900C94162120E030E040E05FEB6D
:10047000C701B6010E94DE21181684F420E030E0A6
:10048000A901C701B6010E94E2216B017C01C701ED
:10049000B601FF90EF90DF90CF90089520E030E01C
:1004A00040E05FE3C701B6010E943120FF90EF906A
:1004B000DF90CF900C949620CF92DF92EF92FF9234
:1004C00060910001709101018091020190910301FE
:1004D000A4DF6B017C0120E030E040E853E40E949F
:1004E000A9206FEF87FF0EC020E030E0A901C7010F
:1004F000B6010E94DE2160E087FD04C0C701B6019D
:100500000E94AD2086E00ADE609104017091050131
:10051000809106019091070180DF6B017C0120E052
:1005200030E040E853E40E94A9206FEF87FF0EC03F
:1005300020E030E0A901C701B6010E94DE2160E0A1
:1005400087FD04C0C701B6010E94AD2087E0E6DD4B
:100550006091EC017091ED018091EE019091EF01BD
:100560006F5F7F4F8F4F9F4F6093EC017093ED0152
:100570008093EE019093EF010E94D9209B01AC0182
:100580006091F0017091F1018091F2019091F3017D
:100590000E94E2216093E8017093E9018093EA01EF
:1005A0009093EB01FF90EF90DF90CF900895CF9262
:1005B000DF92EF92FF921F93CF93DF93E2EDF1E092
:1005C00080E090E0A0E8BFEB82A393A3A4A3B5A32F
:1005D0008DEC9CECACE4BEE3868F978FA0A3B1A317
:1005E0008DE091EEAEEFB1E884839583A683B78367
:1005F00081E79EEBA2E9B0EB80879187A287B38762
:1006000088E299E2ABEFB0EF84879587A687B7873A
:1006100084E49CEAACE8B8EA808B918BA28BB38B24
:10062000A6ECB1E0B383A283E0ECF1E01196FC9379
:10063000EE9385E291E09183808393838283958317
:10064000848386EE91E015969C938E93149786EDA5
:1006500091E013969C938E93129788EE91E01796F3
:100660009C938E931697C8E9D4E01886C12CD12CA0
:100670007601C394C986DA86EB86FC8661E086E063
:1006800045DD11E01D871882C982DA82EB82FC8287
:1006900061E087E03BDD1D83DF91CF911F91FF90EB
:1006A000EF90DF90CF9008954F925F926F927F927C
:1006B0008F929F92AF92BF92CF92DF92EF92FF9272
:1006C0000F931F93F894409005025090060260909B
:1006D000070270900802C090F901D090FA01E090F2
:1006E000FB01F090FC01452B09F0A6C09B01AC0179
:1006F000241935094609570929013A0100910102D7
:100700001091020220910302309104024801590124
:10071000840C951CA61CB71C80169106A206B30675
:10072000A0F40091FD011091FE012091FF01309194
:1007300000020F5F1F4F2F4F3F4F0093FD0110939B
:10074000FE012093FF0130930002809201029092FB
:100750000202A0920302B09204020091FD011091E6
:10076000FE012091FF0130910002809209029092D7
:100770000A02A0920B02B0920C0200930D02109399
:100780000E0220930F0230931002609305027093C3
:1007900006028093070290930802A301920160E48D
:1007A0007DE083E090E00E9493256C0D7D1D8E1D01
:1007B0009F1D6093F9017093FA018093FB01909360
:1007C000FC01009108011091090120910A0130916A
:1007D0000B010F3F1F4F2F4F3F4FF1F000910801CA
:1007E0001091090120910A0130910B010E3F1F4F1A
:1007F0002F4F3F4F89F0C0900801D0900901E09041
:100800000A01F0900B0121E08C149D04AE04BF049A
:1008100008F420E02093110278941F910F91FF902B
:10082000EF90DF90CF90BF90AF909F908F907F9090
:100830006F905F904F9008954B015C01841895086C
:10084000A608B708A3019201261B370B480B590BCA
:100850006415750586059705E0F082169306A406D3
:10086000B50640F420E030E0A90181149104A10410
:10087000B104A1F460E47DE083E090E00E94932560
:10088000A7019601261B370B480B590BCA01B9016A
:10089000C3CF82169306A406B50660F7A50194019E
:1008A00060E47DE083E090E00E9493256C0D7D1D67
:1008B0008E1D9F1DB1CFF8CECF93DF9300D000D017
:1008C000CDB7DEB71C821B821A821982BE016F5F10
:1008D0007F4FCE0103960E94A51E69817A818B818C
:1008E0009C810E94DF17009761F4BE016F5F7F4F0C
:1008F000CE0103960E94B11E69817A818B819C8111
:1009000024D50F900F900F900F90DF91CF91089505
:10091000FF920F931F93CF93DF93082F60E070E057
:10092000CB010E94B422FF24F3940E94CA16EC016A
:10093000892B89F010E0CE3F8FEFD80769F00023B4
:1009400061F160E070E0CB010E94B42281E090E0B0
:10095000892B59F322C011E01BD5EC01892B21F022
:10096000CE3F8FEFD80759F711111EC011E0229624
:1009700009F410E00E947B16EC01892B21F0CE3F98
:100980008FEFD807E1F6111111C011E0CE3F8FEFC4
:10099000D80709F410E001110BC0CE01DF91CF910F
:1009A0001F910F91FF90089511E0E4CF11E0F3CF74
:1009B00060E070E0CB010E94B4221F25812F90E0FF
:1009C000C7CFCF93DF931ED6D0E0C0E0892B71F064
:1009D0006AE070E080E090E00E94B42281E098DF5D
:1009E00011D62196C03D27E0D20781F710D60E948C
:1009F00033181092290210922802109222021092AB
:100A00002302109224021092250210921E021092CC
:100A10001F02109220021092210210921A021092CC
:100A20001B0210921C0210921D02109216021092CC
:100A300017021092180210921902109212021092CC
:100A4000130210921402109215024EEF5FEF6FEF37
:100A50007FEF409308015093090160930A0170935E
:100A60000B0110921102E9E0F2E028E0DF011D9293
:100A70002A95E9F7109205021092060210920702D9
:100A800010920802109201021092020210920302C8
:100A9000109204021092FD011092FE011092FF01CB
:100AA000109200021092F9011092FA011092FB01CB
:100AB0001092FC01DF91CF910895109235021092AF
:100AC000360210923702109238021092340280914E
:100AD0003D0290913E029093330280933202109235
:100AE00031021092300210922C0210922D021092BC
:100AF0002E0210922F0210923A021092390290E0C8
:100B000080E00895CF92DF92EF92FF920F931F93B0
:100B1000CF938C01892B09F055C020913D02309173
:100B20003E02809132029091330240913D025091F9
:100B30003E0250933302409332022817390781F066
:100B4000109231021092300210922C0210922D025B
:100B500010922E0210922F0210923A021092390235
:100B600080913D0290913E02019761F5809139029A
:100B700090913A02892B21F480910C01811112C0CD
:100B80008091390290913A020197E1F480912C0210
:100B900090912D02A0912E02B0912F020197A105F4
:100BA000B10581F410922C0210922D0210922E02A7
:100BB00010922F0210920C0182E090E090933A0282
:100BC0008093390280913D0290913E02019709F095
:100BD0001CC180915302909154028017910709F033
:100BE00014C180914F0290915002A0915102B09196
:100BF0005202009709F409C120914E0221110DC043
:100C000040914F02509150026091510270915202F6
:100C1000452B462B472B09F4F8C02091390230911F
:100C20003A022230310509F0F0C020913002211142
:100C3000ECC0FC01C080D180E280F380809134025E
:100C4000882309F4D3C08091400290914102892BFE
:100C500009F4FDC0209140023091410281E0223030
:100C6000310509F080E02091400230914102C1E05D
:100C70002130310549F02091400230914102C1E01C
:100C80002230310509F0C0E0882309F456C02091D4
:100C90004A0230914B0240914C0250914D02C701E3
:100CA000B6010E94DE2187FD14C020914A023091D6
:100CB0004B0240914C0250914D026091350270916F
:100CC000360280913702909138020E94A92087FD58
:100CD00022C020914A0230914B0240914C02509127
:100CE0004D02C701B6010E94DE21181634F520918D
:100CF0004A0230914B0240914C0250914D0260915A
:100D000035027091360280913702909138020E942C
:100D1000A920811112C08091420290914302A091BA
:100D20004402B0914502892B8A2B8B2B19F481E068
:100D30008093310281E080933002CC2309F456C0C5
:100D400020914A0230914B0240914C0250914D0249
:100D5000C701B6010E94A92087FF14C020914A0252
:100D600030914B0240914C0250914D0260913502FE
:100D70007091360280913702909138020E94DE21F4
:100D800087FF22C020914A0230914B0240914C02D1
:100D900050914D02C701B6010E94A920811126C0C1
:100DA00020914A0230914B0240914C0250914D02E9
:100DB000609135027091360280913702909138022D
:100DC0000E94DE21181694F4809142029091430211
:100DD000A0914402B0914502892B8A2B8B2B19F4E8
:100DE00081E08093310281E08093300281E0909134
:100DF0003002911180E080933402C0923502D0928B
:100E00003602E0923702F0923802012B09F067C1F6
:100E10008091390290913A02892BD9F410923F02C5
:100E20001092300280910C01882379F082E090E0EA
:100E300090933A028093390210920C0120913D0266
:100E400030913E0281E0232BE9F080E01BC081E07D
:100E50000ACF10920C0180913F02882349F0109232
:100E6000310210923A021092390210923F02EDCFF5
:100E700080913D0290913E02892BE1F080913002F9
:100E8000109230022091390230913A02223031051D
:100E900009F45EC088F42115310509F448C02130F9
:100EA000310509F4F3C01092310210923002109211
:100EB0003F0238C081E0E6CF2330310509F4B1C0EC
:100EC0002430310581F740912C0250912D02609120
:100ED0002E0270912F02411551056105710561F0D7
:100EE000415051096109710940932C0250932D0220
:100EF00060932E0270932F0240912C0250912D028C
:100F000060912E0270912F02452B462B472BD9F46E
:100F100020913B0230913C022130310509F046C05E
:100F20001092310210923A02109239020CC0809154
:100F30000C01882341F082E090E090933A02809384
:100F4000390210920C0110922A0280913102CEC017
:100F50008823C9F38091420290914302A0914402F8
:100F6000B0914502181619061A061B060CF07DC032
:100F700080913D0290913E02019709F076C08091E8
:100F8000420290914302A0914402B09145028093A5
:100F90002C0290932D02A0932E02B0932F0283E097
:100FA00090E090933A0280933902CDCF409146026F
:100FB000509147026091480270914902452B462B9F
:100FC000472BA9F01092310280914602909147027E
:100FD000A0914802B091490280932C0290932D0277
:100FE000A0932E02B0932F0281E090E0DACF882305
:100FF00099F080910D0190910E01A0910F01B09197
:10100000100180932C0290932D02A0932E02B09396
:101010002F0284E090E0C5CF1092310282E090E090
:10102000C0CF80912C0290912D02A0912E02B09100
:101030002F020097A105B10559F00197A109B10947
:1010400080932C0290932D02A0932E02B0932F0236
:1010500080912C0290912D02A0912E02B0912F022E
:10106000892B8A2B8B2B09F06ECF80910D019091EB
:101070000E01A0910F01B0911001892B8A2B8B2BAF
:1010800009F44ECF81E080933102B3CF40912C021E
:1010900050912D0260912E0270912F024115510541
:1010A0006105710561F04150510961097109409371
:1010B0002C0250932D0260932E0270932F024091C8
:1010C0002C0250912D0260912E0270912F02452B1F
:1010D000462B472B09F037CF8111C7CF9FCF809187
:1010E0002A02882309F431CF80912B02CF911F91DE
:1010F0000F91FF90EF90DF90CF90089510923502FE
:101100001092360210923702109238021092340276
:1011100010923A0210923902109233021092320267
:101120001092540210925302109231021092300227
:1011300010922C0210922D0210922E0210922F0269
:1011400010922B0210922A0210924F02109250021B
:10115000109251021092520210924E0210924A02C4
:1011600010924B0210924C0210924D0288EE93E0C6
:10117000A0E0B0E080930D0190930E01A0930F01C9
:10118000B09310011092460210924702109248024A
:1011900010924902109242021092430210924402AD
:1011A00010924502109241021092400281E0809319
:1011B0000C0110923F0210923E0210923D021092DA
:1011C0003C0210923B0290E080E0089580913D0245
:1011D00090913E02892B19F580910C01882351F0E2
:1011E00080913F02811106C081E080932B028093A1
:1011F0002A02089520913F0230910C0181E090E095
:10120000332311F090E080E030E082239323892B98
:1012100021F010922B0281E0EACF10922A02089569
:1012200082E090E0FA01918380838FEF9FEF089531
:10123000CF93DF93EA01009711F00E944A191982B7
:10124000188290E080E0DF91CF910895DB01009754
:1012500019F48FEF8C9308952EEF2C930F968F3007
:10126000910508F033C0FC01E85CF64F0C94C425EE
:101270006409620960095E095C0958095A0956093E
:10128000540952094F094B0947094D09660980E382
:1012900011968C93089589E2FBCF82E2F9CF1196E3
:1012A0001C92089583E2F4CF81E2F2CF81E1F0CF86
:1012B00087E2EECF8AE2ECCF80E1EACF84E2E8CFAA
:1012C00088E2E6CF86E2E4CF81E3E2CF80E2E0CFBE
:1012D00080916102909162020895909362028093DE
:1012E0006102089580916002089590916002892BB7
:1012F000809360020895982F9095809160028923D1
:1013000080936002089580915F02089580915D024C
:1013100090915E0208956115710559F0FB0130E06E
:1013200020E070E060E02417350719F061157105C1
:1013300011F0CB010895A081B181A817B90709F474
:10134000BF012F5F3F4F3696EECF80916302811130
:101350001CC043D249D290935602809355020E94FA
:10136000BF120E94D11290935A02809359020E9498
:10137000E5150E94EC15909358028093570281E086
:101380008093630290E080E0089584EF9FEF0895DA
:101390008F929F92AF92BF92CF92DF92EF92FF9285
:1013A0000F931F93CF93DF93CDB7DEB72A970FB676
:1013B000F894DEBF0FBECDBF1A86198618861F822D
:1013C0001E821D821C821B821A82198280916302F6
:1013D00007EF1FEF882309F48BC08E010D5F1F4FAD
:1013E0009E012B5F3F4FAE01495F5F4FBE01675FBC
:1013F0007F4F90E080E00E9465178C01009721F0FC
:101400000596029708F0C7C089859A85009709F468
:10141000EFC0ED80FE802B813C812E0D3F1D4F8162
:1014200058854217530708F4E3C0E80EF91ED701A8
:101430004C912091610230916202232B09F494C0F7
:10144000413F08F069C08CE1840F8D3008F483C0FF
:101450008DE2840F803108F481C088E3840F8B30E3
:1014600008F47FC096E2C92E99E0D92EE0E1F9E0B8
:101470006D817E81AE014F5F5F4F89859A850995A9
:101480005C01C114D104A1F189809A808114910476
:1014900079F18B819C818815990508F484C010E04E
:1014A00000E04B815C8170E060E0C7010E94EC25A8
:1014B00001151105E9F449815A8169857A858D8183
:1014C0009E81680F791FC501F6010995E980FA80B0
:1014D0000D811E812F81388549855A856FEF7FEFF9
:1014E00081E090E00E9401178C01892B09F053C024
:1014F000C8012A960FB6F894DEBF0FBECDBFDF91AC
:10150000CF911F910F91FF90EF90DF90CF90BF9000
:10151000AF909F908F90089530E020E0220F331F0E
:10152000F901EB5AFD4F0190F081E02D309709F45D
:1015300099CF842F90E00995009709F493CFDC01AF
:101540001296ED91FC9113971496CD90DC90309704
:1015500009F08ECF1EC021E030E0E0CF22E030E085
:10156000DDCF23E030E0DACFD12CC12CE8E1F9E087
:101570004F3F09F07DCFE0915502F0915602309730
:1015800019F404EF1FEF0CC08FEF90E0099500975E
:10159000B1F604EF1FEF89859A85009709F4A8CF6B
:1015A0000E944A19A5CF0E942E188C0189859A8520
:1015B0000E944A1970E060E0C4010E94C717988732
:1015C0008F830E94FE169E838D836F8178856115BF
:1015D000710559F0C8010E94E01A9A87898706EFC1
:1015E0001FEF892B09F05BCF5CCF08EF1FEF59CFBE
:1015F00008EF1FEFD0CF209163022111D7C787EFEB
:101600009FEF0895809161029091620208950E9477
:10161000F1150E944B15EDD0E5E5F2E088E0DF0121
:101620001D928A95E9F71092630290E080E0089598
:1016300086E090E0FA019183808390E080E0089555
:1016400047E050E068E271E066CEDF92EF92FF92F1
:101650000F931F93CF93DF938A01EC01C60FD71F1F
:10166000E0906702F0906802D9800E941618D816A0
:10167000190678F082E090E0F801918380838EEF84
:101680009FEFDF91CF911F910F91FF90EF90DF902F
:101690000895EF2841F482E090E0F801918380837F
:1016A00084EF9FEFEECF89818093660290E00196F0
:1016B000F8019183808390E080E0E3CFCF93DF93C4
:1016C000EA010E945E14882321F00E9423180E94E0
:1016D0005F1482E090E0998388838BEF9FEFDF9126
:1016E000CF910895CF93DF93EB0186E0FB01119238
:1016F0008A95E9F78FEF8883F5DD898304DE8A8395
:1017000005DE9D838C83DF91CF910895CF93DF9386
:10171000EA010E946114811109C082E090E099837E
:10172000888385EF9FEFDF91CF91089590E080E06F
:10173000D4DD81E090E09983888390E080E0F3CF6E
:101740000F931F93CF93DF93EA018C01060F171FAE
:101750000E94611481110BC082E090E0998388831C
:1017600085EF9FEFDF91CF911F910F910895F801C1
:101770008181823038F082E090E0998388838EEF17
:101780009FEFF0CF81E090E0A8DD88E090E09983C2
:10179000888390E080E0E6CFCF93DF930097D1F489
:1017A000EB01FB01329686E0DF011D928A95E9F795
:1017B0008FEF888385E089831A820E9416188B83B5
:1017C0000E9415189D838C8381E08E838F83DF9127
:1017D000CF910895DF91CF9139CD80E29BE0909336
:1017E000650280936402089580916402909165027D
:1017F0000895109265021092640208958091670224
:10180000909168020895411105C061157105810527
:10181000910561F06093670270936802809369029A
:1018200090936A0240936B0281E0089580E00895EE
:10183000FF920F931F93CF93DF938A01EC01C60FA2
:10184000D71FF9800E941618F816190668F082E072
:1018500090E0F801918380838EEF9FEFDF91CF912D
:101860001F910F91FF9008956C817D818E819F81E2
:101870004B81C9DF811108C082E090E0F8019183BB
:10188000808384EF9FEFEACF89818093660290E0A6
:101890000196F8019183808390E080E0DFCFCF93C1
:1018A000DF93EA01FC01E60FF71F648175818681F1
:1018B00097814381A8DF811109C082E090E099837C
:1018C000888384EF9FEFDF91CF91089581E090E0CE
:1018D0009983888390E080E0F6CFE7E6F2E04081EC
:1018E000518162817381480F511D611D711D4083BB
:1018F0005183628373830895CF93C09166024C2F06
:1019000050E0609167027091680201960E94E325A1
:101910008C2FE3DF10926602CF910895009799F41F
:1019200080916702909168022FEFFB012083892B41
:1019300059F02091660230E02F5F3F4F24173507A2
:1019400019F4CB01D9CF82CC0895009799F48091F6
:101950006702909168022FEFFB012083892B59F0D9
:101960002091660230E02F5F3F4F2417350719F4AE
:10197000CB01C2CF6BCC08952DE0AC01249FC001F8
:10198000259F900D1124E0917002F0917102E80FF3
:10199000F91F238134812250310981E02230310541
:1019A00008F080E008950F931F93CF93DF93009189
:1019B000720210917302D0E0C0E080E00C171D07A6
:1019C00049F491E0811190E0892FDF91CF911F912F
:1019D0000F9108958111F5CFCE01CEDF2196EECF84
:1019E000A0917002B0917102109729F120917202BA
:1019F0003091730282179307F0F45DE0589F9001D5
:101A0000599F300D1124A20FB31FED91FC91119736
:101A1000309789F012968C91681768F485E0689F7A
:101A2000E00DF11D112480819181892B21F081E04D
:101A30009281491708F080E00895EF92FF920F938A
:101A40001F93CF93DF93EA01FC01E60FF71F02819A
:101A50001381E480F5804F2D6E2DC801C1DF811107
:101A60000DC082E090E0998388838EEF9FEFDF9135
:101A7000CF911F910F91FF90EF900895C8017CDFE7
:101A8000882339F082E090E09983888388EF9FEF84
:101A9000EECF1093180100931701E0921901F09214
:101AA0001A0181E090E09983888390E080E0DFCFA5
:101AB000CF92DF92EF92FF920F931F93CF93DF931A
:101AC0007A01EC01C60FD71FC0901701D090180102
:101AD0000091190110911A01412F602FC60180DF7A
:101AE000811110C082E090E0F701918380838AEF3A
:101AF0009FEFDF91CF911F910F91FF90EF90DF90BB
:101B0000CF900895C60138DF882341F082E090E04D
:101B1000F7019183808388EF9FEFEBCF4C815D814C
:101B20006E817F819A8189818F3F41F082E090E0D0
:101B3000F701918380838EEF9FEFDBCFEDE0EC9D8B
:101B40009001ED9D300D1124E0917002F091710231
:101B5000E20FF31F0190F081E02D25E0029FE00DE0
:101B6000F11D11240190F081E02D27E0129FE00D7E
:101B7000F11D1124808391838B818283438354835D
:101B8000658376831F5F10931A0181E090E0F7016F
:101B90009183808390E080E0ACCFEF92FF920F932F
:101BA0001F93CF93DF937A018C01060F171FC0910B
:101BB0007002D0917102209781F021E030E0F801AD
:101BC000828193814091720250917302841795072C
:101BD00010F030E020E0232B71F482E090E0F70178
:101BE000918380838EEF9FEFDF91CF911F910F91B3
:101BF000FF90EF9008954DE0489F9001499F300D70
:101C00001124C20FD31FB8DE882341F082E090E098
:101C1000F7019183808388EF9FEFE6CFF80124815D
:101C2000358120383105C8F687818111D6CF4181B1
:101C3000842F90E08F7E009741F082E090E0F701E2
:101C40009183808386EF9FEFCFCF4F833E832D8399
:101C5000268128871986223010F421E0288721E088
:101C600030E0F70131832083BFCF88E090E0FA01B4
:101C70009183808390E080E00895FB018FEF808363
:101C800081E181838FEF9FEF9383828380E890E0EF
:101C900095838483168217820895FB018FEF8083DA
:101CA00091E0918382839383848384E3858381E0BD
:101CB00090E09783868308954BE050E062E571E001
:101CC0002ACB8F929F92BF92CF92DF92EF92FF9298
:101CD0000F931F93CF93DF93EA01FC01E60FF71FE9
:101CE000828193810481B580E0917002F09171024C
:101CF000309791F482E090E0998388838CEF9FEF96
:101D0000DF91CF911F910F91FF90EF90DF90CF90D7
:101D1000BF909F908F90089520917202309173022E
:101D20008217930738F082E090E0998388838EEFE2
:101D30009FEFE6CF2DE0289F6001299FD00C112452
:101D4000EC0DFD1DE080F180E114F10499F2828137
:101D5000081748F785E0089F80011124E00EF11E66
:101D6000F70180819181892B29F6BB20E1F2F7E010
:101D7000BF9E40011124C4010E94FC18F701918309
:101D80008083E0917002F0917102EC0DFD1D0190D5
:101D9000F081E02DE00FF11F80819181009739F4EF
:101DA00082E090E0998388838DEF9FEFA9CFA40113
:101DB00070E060E00E94EC258091700290917102C9
:101DC000C80ED91EF60180819181080F191FF801F4
:101DD000B28281E090E09983888390E080E090CFA8
:101DE000AF92BF92CF92DF92FF920F931F93CF9348
:101DF000DF93EA01FC01E60FF71F82819381F480F3
:101E000000917002109171020115110581F482E0B8
:101E100090E0998388838CEF9FEFDF91CF911F91A2
:101E20000F91FF90DF90CF90BF90AF9008952091D9
:101E30007202309173028217930738F082E090E0CB
:101E4000998388838EEF9FEFE8CF2FEF2F0D2C3FE4
:101E5000A8F72DE0289F6001299FD00C11240C0DBC
:101E60001D1DF80180819181892B89F6F5E0FF9E87
:101E700050011124C5010E94FC18F8019183808350
:101E8000E0917002F0917102EC0DFD1D8081918155
:101E9000009739F482E090E0998388838DEF9FEF7B
:101EA000BCCFA50170E060E00E94EC25E0917002DB
:101EB000F0917102EC0DFD1DF28281E090E09983BA
:101EC000888390E080E0A9CFCF92DF92EF92FF92DB
:101ED0000F931F93CF93DF93860F971FFC0102810F
:101EE00013818091700290917102892B81F082E0C0
:101EF00090E0FA01918380838CEF9FEFDF91CF9187
:101F00001F910F91FF90EF90DF90CF900895C8013F
:101F1000B0E0A0E00197A109B1098F3F9F4FA10553
:101F2000B10540F082E090E0FA01918380838EEF6A
:101F30009FEFE4CF7A018DE0809F6001819FD00CFC
:101F40001124C6010E94FC18EC01009741F482E0C4
:101F500090E0F701918380838DEF9FEFCFCFA601B3
:101F600070E060E00E94EC25D0937102C093700293
:101F7000109373020093720290E080E02FEF3FEF26
:101F80008017910741F481E090E0F701918380830D
:101F900090E080E0B3CF3C872B8701962D96F0CF61
:101FA000CF92DF92EF92FF920F931F93CF93DF9325
:101FB000EC01D12CC12C10E000E0F12CE12C8A8145
:101FC0008017110609F0BCF4AE01455F5F4F63E076
:101FD00070E0C7010E947619009721F02FEF3FEFC4
:101FE0003C872B87DF91CF911F910F91FF90EF904E
:101FF000DF90CF900895E881F981EC0DFD1D2381DC
:102000003481C90101960115110519F44F8144FD70
:10201000049661E070E0BBD7E816F90608F47C018D
:102020000F5F1F4F85E0C80ED11CC9CFF8942091D7
:102030006E0230916F0281E02115310509F080E0D8
:10204000232B09F0789408954F925F926F927F92BC
:102050008F929F92AF92BF92CF92DF92EF92FF92B8
:102060000F931F93CF93DF933C01660E771EF3010E
:10207000828193814C01B12CA12CC0917002D0912E
:102080007102209769F021E030E060917202709156
:1020900073028617970710F030E020E0232BC1F47D
:1020A00082E090E0FA01918380838EEF9FEFDF91D1
:1020B000CF911F910F91FF90EF90DF90CF90BF9045
:1020C000AF909F908F907F906F905F904F9008950A
:1020D00080921B0190921C01A0921D01B0921E01E2
:1020E0006DE0689F9001699F300D1124C20FD31FCE
:1020F000F3018181833040F082E090E0FA01918326
:10210000808386EF9FEFD3CF2A012B813C81232B45
:10211000F1F4288139819F8191FF2EC0232B09F48E
:1021200064C0209175029A81422F490F5527551F8F
:10213000BA0141E050E06138710514F050E040E030
:10214000452B09F452C02A87920F90937502815053
:10215000823008F476C06ADF882309F4C5C0F30131
:102160008181813009F480C008F470C0823009F4A4
:10217000B3C090E080E08EC0232BB9F120917402AF
:102180009A81E22FE90FFF27FF1F41E050E0ED3F6A
:10219000F10514F050E040E0452B39F12A87920F09
:1021A00090937402D4CFA081B181A20FB31F119676
:1021B0006C91060F111D0196295F3F4F84179507FB
:1021C00094F3C114D104C9F48F8184FF16C02DD7B4
:1021D00021E0A8014B5F5F4F8417950708F420E0CA
:1021E000A7014B5F5F4F21110EC082E090E0F2012A
:1021F0009183808387EF9FEF5ACF17D721E0A80103
:102200004F5F5F4FE9CF88819981E80EF91EF70192
:1022100014830383FFEFCF1ADF0A7A018A818C15BA
:102220001D0409F00CF497CFE881F981EE0DFF1D34
:10223000428150E030E020E010E000E090E080E0FB
:10224000BDCFF12CE12CD12CC12CE8CF81E090E066
:102250009C838B83A8DB882309F48BCF81E090E0FB
:102260003CD880E448D885CF8B859C85019651F079
:1022700083E090E09C838B8382E090E02ED880E422
:1022800034D877CF89288A288B2879F4CE0188DE44
:10229000009771F3789422E030E0F20131832083DB
:1022A000892BF9F08DEF9FEF02CF2D813E81809138
:1022B00011019091120128173907D1F6609115018B
:1022C00070911601AE01455F5F4F809113019091AF
:1022D00014010E949F1ADCCF82E090E09C838B83E4
:1022E00048CF90E080E0E3CE82E090E0F20191837D
:1022F000808385EF9FEFDBCE8F929F92AF92BF924C
:10230000CF92DF92EF92FF920F931F93CF93DF93C1
:10231000EA018C01060F171FF8018181833098F0C4
:1023200082E090E09983888386EF9FEFDF91CF91E1
:102330001F910F91FF90EF90DF90CF90BF90AF90E3
:102340009F908F9008958091700290917102892BD7
:1023500061F081E090E02091720230917302232BB2
:1023600011F490E080E0892B39F482E090E09983C9
:1023700088838EEF9FEFDACF59DE882309F4D5C02A
:10238000F8018181813009F48BC0E8F0823099F442
:102390002091720230917302E0917002F09171020B
:1023A00090E080E041E050E02817390709F0B3C021
:1023B000FADA811117C0789481E090E099838883DC
:1023C00090E080E0B3CF2091720230917302E091EF
:1023D0007002F091710290E080E041E050E0281737
:1023E000390741F481E090E00E946D0980E40E9489
:1023F0007B09E1CF63817481672B11F054834383A0
:1024000001963D96ECCFE0917002F0917102E00FE1
:10241000F11F238134812230310561F42385348515
:102420002F3F3F4F39F4C114D104E104F10409F501
:10243000CF01B6DDEFEFCE1ADE0AEE0AFE0A035F29
:102440001F4F409172025091730270E060E0C41619
:10245000D506E606F70664F50097A9F27894892B6D
:1024600009F4AACF82E090E0998388838DEF9FEFF3
:102470005DCF4581568120911101309112014217A3
:102480005307C1F6AF01455F5F4F60911501709131
:10249000160180911301909114010E949F1ACACFD6
:1024A00010E000E090E080E0C12CD12C7601C9CF93
:1024B0000097A1F610E000E0812C912C540183E0FC
:1024C000E82EF12C1AC0E0917002F0917102E00F39
:1024D000F11F83819481029749F4F482E38282E0C0
:1024E00090E00E946D0980E40E947509FFEF8F1A49
:1024F0009F0AAF0ABF0A035F1F4F8091720290913B
:102500007302B0E0A0E088169906AA06BB06DCF2CA
:1025100090E080E0A3CF638174816230710511F493
:102520005483438301963D963FCF82E090E09983A8
:10253000888385EF9FEFFACE0097B9F48FEFFB0108
:10254000808320911B0130911C014DE0429FC0010E
:10255000439F900D1124E0917002F0917102E80FF9
:10256000F91F8285FB01818308950C94260988E078
:1025700090E0FA019183808390E080E008951092CA
:102580006F0210926E02E0E7F2E086E0DF011D923A
:102590008A95E9F78CE59EE090936D0280936C023A
:1025A000089580916C0290916D0208952F923F9250
:1025B0004F925F926F927F928F929F92AF92BF9253
:1025C000CF92DF92EF92FF920F931F93CF93DF93FF
:1025D000CDB7DEB762970FB6F894DEBF0FBECDBFA2
:1025E000F89420916E0230916F022F5F3F4F30932D
:1025F0006F0220936E0278942091700230917102E4
:102600003B832A83232B09F456C120917202309117
:102610007302232B09F44FC14D875E876F87788B38
:102620009C878B878A819B819A8B898BD12CC12C2B
:10263000198210E000E08091720290917302C81636
:10264000D90618F43981332329F1F89480916E0268
:1026500090916F02019790936F0280936E0278942D
:10266000C80162960FB6F894DEBF0FBECDBFDF91F2
:10267000CF911F910F91FF90EF90DF90CF90BF907F
:10268000AF909F908F907F906F905F904F903F9012
:102690002F900895B60190E080E028D38887A9891B
:1026A000BA8917968C91179781FD8DC013968D91DD
:1026B0009C911497039709F086C01596ED91FC91B3
:1026C000FF83EE832B853C85E217F30709F07BC07F
:1026D000712C612C512C412C63C090D39A8789872F
:1026E00010E04114510431F4A989BA8917961C915C
:1026F00012951170A989BA89ED91FC91E60DF71D2B
:1027000023803480111169C0BFEF2B1A3B0A61E0AE
:1027100070E0C1013CD45C01A989BA891B968D91F6
:102720009C918F3F980709F45CC0B50149D74C01D3
:10273000009709F4BBC0E985FA85E80FF91FA9895C
:10274000BA891A968C91840D808311114DC08F0126
:102750000F5F1F4F8091110190911201AE81BF81D7
:10276000A817B90709F09DC081E090E0B885BB23A8
:1027700011F090E080E0710109851A859501A401AE
:10278000B6019195819591093CD38C01892B11F06B
:10279000C40180D58FEF481A580A95E0690E711C64
:1027A000A989BA8912968C918415150429F024F010
:1027B000B981BB2309F491CFE885EE2321F0B6015E
:1027C00090E080E095D2FFEFCF1ADF0A29893A899D
:1027D000235F3F4F3A8B298B2ECFE5E02E0E311C25
:1027E00096CFC50109D5A3CF8D859E85AF85B889C4
:1027F00081839283A383B4838F010B5F1F4FAACF82
:10280000E080F180EC81FD81EE0EFF1ED701139672
:102810006D917C9114978C918F3FE1F1E1E0F0E0B4
:1028200002C0EE0FFF1F8A95E2F7CF01092E000CC0
:10283000AA0BBB0BFB014081518162817381842310
:102840009523A623B72321E0892B8A2B8B2B09F410
:1028500020E0D8012C93D70111968C91080F111DFF
:10286000EA81FB813196FB83EA832C813D81295FDC
:102870003F4F3D832C83A989BA89ED91FC91E60DE8
:10288000F71D82812A813B818217130611F00CF01B
:10289000B7CF6ACFF701418150E0C8010E94E3251C
:1028A000DACF1D821C821B821A82E5CF31E0398388
:1028B00006EF1FEF6FCF10E000E0C7CEB7CB7894E4
:1028C00008952F923F924F925F926F927F929F92C4
:1028D000AF92BF92CF92DF92EF92FF920F931F932E
:1028E000CF93DF9300D000D000D0CDB7DEB70091FA
:1028F000700210917102992493940115110509F445
:102900003EC0A0907202B090730290DB982E882394
:10291000B1F1109271021092700210927302109233
:10292000720210927402109275028FEF9FEFDC0119
:1029300080931B0190931C01A0931D01B0931E0175
:10294000789475D31E830D83C12CD12C7601C501DB
:10295000B0E0A0E089839A83AB83BC8322242A94CD
:10296000322C89819A81AB81BC81C816D906EA06CE
:10297000FB06F4F0C8018ED480E40E947B09892D07
:1029800026960FB6F894DEBF0FBECDBFDF91CF9174
:102990001F910F91FF90EF90DF90CF90BF90AF907D
:1029A0009F907F906F905F904F903F902F900895F1
:1029B000C114D104E104F10409F5D8011B968D91ED
:1029C0009C918F3F980709F03BD5F8013486238608
:1029D000ED81FE8180819181B12CA12C412C512C63
:1029E0003201892B69F5BFEFCB1ADB0AEB0AFB0A30
:1029F000ED81FE813D96FE83ED83B3CFAD81BE8137
:102A000015962D913C91169780911101909112018C
:102A100028173907E9F61B968D919C91BFD5D8CF21
:102A20008A0D9B1DDC018D919C91009709F032D499
:102A3000BFEF4B1A5B0A6B0A7B0AE5E0AE0EB11CD6
:102A4000AD81BE818D919C91119712964C9150E071
:102A500070E060E044165506660677060CF31AD45B
:102A6000C2CFCF93DF93EA012CDF811109C082E04E
:102A700090E09983888385EF9FEFDF91CF91089550
:102A800081E090E00E946D0981E090E09983888365
:102A900090E080E0F2CF15DF10926D0210926C0290
:102AA000089542E050E064E971E00C948B09FF92D4
:102AB0000F931F93CF93DF938A01EC01C60FD71FAB
:102AC000F980B4D20897F816190671F068F082E020
:102AD00090E0F801918380838EEF9FEFDF91CF919B
:102AE0001F910F91FF9008956C817D818E819F8150
:102AF0004B810E94030C811108C082E090E0F80134
:102B00009183808384EF9FEFE9CFF9800E94FE0BD1
:102B10004F2D50E0BE01685F7F4F0E94E325898101
:102B20000E946D0C81E090E0F8019183808390E039
:102B300080E0D4CFDF92EF92FF920F931F93CF9359
:102B4000DF938A01EC01C60FD71F0E94FE0B7C01A8
:102B5000D9806CD2DD2059F0029721E030E0D81600
:102B6000190619F010F030E020E0232B79F482E010
:102B700090E0F801918380838EEF9FEFDF91CF91FA
:102B80001F910F91FF90EF90DF900895EF2841F48F
:102B900082E090E0F8019183808384EF9FEFEECF95
:102BA000F9800E94FE0B4F2D50E0BE016E5F7F4FFB
:102BB0000E94E32589810E946D0C81E090E0F8017C
:102BC0009183808390E080E0D9CF81E595E1909377
:102BD0007702809376020895809176029091770231
:102BE00008950895FC0111821082938382830895D1
:102BF000DB011D921C92DC011296ED91FC91139762
:102C00007183608313967C936E9312970895FC01F1
:102C100080819181DB018D939C93A081B18110977C
:102C200041F08D919C9191838083892B11F4F383E2
:102C3000E2830895FC0180819181DB018D939C9357
:102C4000892B11F473836283718360830895FC017F
:102C500011821082938382830895CF93DF9300D0F3
:102C6000CDB7DEB71A821982F894BE016F5F7F4F2D
:102C70008DE792E0CCDF89819A81009709F00AD331
:102C800089819A81892B89F7BE016F5F7F4F81E827
:102C900092E0BDDF89819A81009709F0FBD289819A
:102CA0009A81892B89F778940F900F90DF91CF91BB
:102CB0000895CF93DF9300D0CDB7DEB71A82198283
:102CC000F894BE016F5F7F4F89E792E0A0DF8981B2
:102CD0009A81009709F0DED289819A81892B89F740
:102CE00078940F900F90DF91CF91089581E008952F
:102CF00090E080E00895EF92FF920F931F93CF939F
:102D0000DF9300D0CDB7DEB71A82198280917802A6
:102D100007EF1FEF8823A1F1F894BE016F5F7F4F8B
:102D200081E892E074DF789489819A81EE24E394BB
:102D3000F12C892B51F4F894BE016F5F7F4F8DE722
:102D400092E065DF7894F12CE12C89819A810EEF75
:102D50001FEF0097A9F0FC014281538164E070E00D
:102D600028D68C01892B61F0F89469817A81C7019A
:102D7000880F991F880F991F83589D4F5BDF7894A8
:102D8000C8010F900F90DF91CF911F910F91FF908D
:102D9000EF9008950F931F93CF93DF9300D000D04F
:102DA000CDB7DEB71C821B821A821982809178020D
:102DB00007EF1FEF8823C1F0AE014D5F5F4F64E066
:102DC00070E0CE01019668D68C01892B69F4E98107
:102DD000FA818B819C8193838283F89469817A81C3
:102DE00089E792E005DF7894C8010F900F900F906B
:102DF0000F90DF91CF911F910F9108956DD7049699
:102E000008958F929F92AF92BF92CF92DF92EF92EE
:102E1000FF920F931F93CF93DF9300D0CDB7DEB710
:102E20001A821982BC016F5F7F4F6330710598F081
:102E3000AA24AA94BA2CC5010F900F90DF91CF91CC
:102E40001F910F91FF90EF90DF90CF90BF90AF90C8
:102E50009F908F9008954115510551F348015901F4
:102E60008A016C01CBDF8815990511F7E114F10493
:102E7000F9F28E0D9F1DA816B906D0F28091780246
:102E80008823F1F0F894B501645071099701AE01FF
:102E90004F5F5F4FC801049694D65C01892B71F493
:102EA00089819A81F80193838283C601880F991FD3
:102EB000880F991FB80183589D4F9ADE7894BBCF35
:102EC00087EFA82EBB24BA94B6CFAF92BF92CF9211
:102ED000DF92EF92FF920F931F93CF93DF9300D077
:102EE000CDB7DEB71A821982892B09F047C0611568
:102EF000710509F443C04115510509F43FC021157E
:102F0000310509F43BC001151105C1F1809178022A
:102F10008823B9F179016A015B01F894BE016F5F02
:102F20007F4F89E792E073DE789489819A810097D8
:102F300059F1DC0112966D917C91A80104965AD644
:102F40008C01E981FA81D501ED93FC938281938113
:102F50000496F6019183808351DFD7018D939C9372
:102F6000C8010F900F90DF91CF911F910F91FF90AB
:102F7000EF90DF90CF90BF90AF9008950FEF1FEFCD
:102F8000EFCF07EF1FEFECCF0EEF1FEFE9CFCF939F
:102F9000DF93EC01672B71F4A8D68C179D0760F0C6
:102FA0009BD62496C80FD91F9AD68C0F9D1FDF91F0
:102FB000CF91089597D6F1CF90E080E0F8CF0F93AE
:102FC0001F93CF93DF932091780221112BC08B01A7
:102FD000EC018DE792E006DE81E892E003DE89E70E
:102FE00092E000DE86D00097C1F47FD670E060E00A
:102FF000CEDF4FE151E062E070E078D1009769F4F4
:1030000080911F019091200182D6B801CE01B7D4E2
:10301000009719F421E020937802DF91CF911F915E
:103020000F91089584EF9FEFF8CF5CC65EC6CF93F3
:10303000DF935ED6EC01892B11F40FDE3ADECE0170
:10304000DF91CF910895CF93DF9352D6EC01892B76
:1030500009F403DECE01DF91CF91089580911F0125
:10306000909120010895CF93DF9380917802D0E072
:10307000C0E08823D1F050D6EC01892BB1F4EDDD0E
:1030800018DE80911F0190912001DAD1E9D2EC0184
:10309000892B59F48DE792E0DADD81E892E0D7DD03
:1030A00089E792E0D4DD10927802CE01DF91CF91D2
:1030B0000895CF93DF930097A1F4DF91CF91089506
:1030C000EC011A821982A883309711F092838183D0
:1030D0002F5F3F4FFC01860F971F4217530781F761
:1030E000ECCF30E020E0F0E0E0E0AFEF6F5F7F4F4B
:1030F000F4CFCF92DF92EF92FF920F931F93CF9373
:10310000DF9305E713E00C7F80EAE82E81E0F82EDC
:1031100096EAC92E91E0D92EC4EBD3E0D7014D91A8
:103120005D917D01F601619171916F0119830883B1
:103130005D834C835B834A837F836E839B012F5F18
:103140003F4F249FC001259F900D349F900D112467
:1031500099878887C801ADDF88859985080F191F71
:103160002A96F6EAEF16F1E0FF06C1F6E7E8F2E08C
:103170008BEEDF011D928A95E9F71092860210927C
:1031800085021092D3031092D2031092D7031092AB
:10319000D6031092D5031092D4031092D903109243
:1031A000D8031092DB031092DA031092DD03109221
:1031B000DC031092E1031092E0031092DF031092FF
:1031C000DE031092E3031092E2031092E5031092E3
:1031D000E4031092B1031092B0031092B303109263
:1031E000B20390E080E0DF91CF911F910F91FF90AB
:1031F000EF90DF90CF900895009799F1F89489307F
:10320000910550F48091B6039091B703892B39F062
:1032100020E090E080E018C08131910550F4809169
:10322000C0039091C103892B31F021E081E090E04F
:103230000BC08197A8F48091CA039091CB03892B8E
:1032400079F022E082E090E0EAE0E89FD001E99F97
:10325000B00D1124AC54BC4F8D919C91009721F47A
:10326000789490E080E00895E29FF0011124EC54FE
:10327000FC4FDC0111964D915C915183408342815A
:1032800053814150510953834283FC012193CF0163
:1032900078940895009749F1DC018E91853041F4CE
:1032A000E091B203F091B3033097F9F0CD010994A6
:1032B0008530D8F4282F30E0F8948FEF8C938AE093
:1032C000829FF001839FF00D1124EC54FC4F80810C
:1032D000918112969C938E931197B183A0838281E2
:1032E000938101969383828378940895CF92DF929D
:1032F000EF92FF920F931F93CF93DF939C018AE885
:1033000092E08C7F4115510509F497C021153105D4
:1033100009F493C06115710509F48FC07A01AB01FE
:10332000B9016D5F7F4F6C7F9B012F5F3F4F249FE3
:103330008001259F100D349F100D1124F8942091C9
:10334000D2033091D303232B59F42091DA03309127
:10335000DB032115310569F12017310708F056C04C
:103360002091DC033091DD03232B91F42091DA03CB
:103370003091DB03820F931F2091E4033091E5032A
:103380002115310509F43FC02017310708F052C05C
:103390007894CFEFDFEF86EF9FEFF701D183C08303
:1033A000DF91CF911F910F91FF90EF90DF90CF9021
:1033B0000895C3E0D0E0C0908502D090860228EE48
:1033C00030E02C193D092017310710F32AE02C9F1B
:1033D000F0012D9FF00D1124EC54FC4F918380835C
:1033E00055834483538342837783668311870087A1
:1033F00060DE0C0D1D1D10938602009385027894EB
:1034000090E080E0CACFC4E0D0E0D5CFC3E0D0E008
:103410002AE02C9FF0012D9FF00D1124EC54FC4F5D
:103420009183808355834483538342837783668368
:1034300040DEE5CFC4E0D0E0EBCF8FEF9FEFB0CF21
:10344000FF920F931F93CF93DF939C012350310979
:103450002230310508F070C0EC01F89484E09AE065
:103460009C9FD0019D9FB00D1124A454BC4F082FE8
:1034700010E0909FF001919FF00D1124EC54FC4F4F
:1034800020813181C017D10714F1FF24F394232B3D
:1034900041F52AE0209FF001219FF00D1124EC540A
:1034A000FC4F809185029091860240855185841B56
:1034B000950B90938602809385022C9FF0012D9F9F
:1034C000F00D1124EC54FC4F118610861CC0232BE8
:1034D00039F42D913C911197232BA9F48150C7CF3A
:1034E000F12C8AE08C9FF0018D9FF00D1124EC549B
:1034F000FC4F4085518570E060E0808191810E94A1
:10350000EC25F110C6CF8AE08C9FF0018D9FF00D65
:103510001124EC54FC4F1182108215821482138204
:10352000128217821682789490E080E0DF91CF912A
:103530001F910F91FF9008958FEF9FEFF7CF4115E7
:10354000510549F1009739F16115710521F1F894A0
:103550002091B0033091B103232BB9F42091B20331
:103560003091B303232B89F49093B1038093B0037C
:103570007093B3036093B203789425E030E090E059
:1035800080E0FA0131832083089578942FEF3FEF94
:1035900086EF9FEFF6CF8FEF9FEF0895059769F4C1
:1035A000F8941092B1031092B0031092B3031092EA
:1035B000B203789490E080E008958FEF9FEF089534
:1035C0006115710519F4F0E0E0E011C08530910556
:1035D00081F4E091B003F091B1033097A1F3CB01F6
:1035E00001960995009779F3FC0185E08193CF015D
:1035F00008959C01235031092230310520F72AE03B
:10360000289FD001299FB00D1124AC54BC4F2D919F
:103610003C911197232BB9F216962D913C91179757
:103620002617370780F2F89412962D913C91139744
:103630002115310529F0ED91FC911197309711F486
:103640007894C1CF4181528111965C934E93215061
:10365000310913963C932E93129781937894C7CF98
:10366000E2E7F3E08EE3DF011D928A95E9F7E7E8F0
:10367000F2E08BEEDF011D928A95E9F71092860247
:1036800010928502E4EBF3E082E3DF011D928A955C
:10369000E9F7E0EBF3E084E0DF011D928A95E9F7BA
:1036A00090E080E00895CF93DF93C0912101D09105
:1036B0002201CF3FDC0759F4BDD3909322018093C0
:1036C000210197FF09C0D0932201C093210184EF0B
:1036D0009FEFDF91CF91089590E080E0FACF8230A4
:1036E000910528F48093E60390E080E008958FEF41
:1036F0009FEF08954F925F926F927F92AF92BF9229
:10370000CF92DF92EF92FF920F931F93CF93DF93AD
:1037100000D0CDB7DEB71A821982009709F478C0BD
:103720006115710509F474C02091210130912201C5
:1037300007EF1FEF2F3F3F4F09F444C06B015C01BF
:10374000412C512C3201F12CE12C10E000E09E01C3
:103750002F5F3F4FA6014E195F09B5016E0D7F1D0A
:103760008091210190912201C3D3892B09F04AC095
:1037700089819A81009741F4E114F10429F42091A0
:10378000E603222309F441C0E80EF91EEC14FD04FF
:10379000C8F480E8481684E858068EE1680671048B
:1037A00018F560E070E0CB01DFD62AE0420E511C34
:1037B000611C711C0A3F4FEF140721F0043F8FEF8B
:1037C0001807A1F4C8010F900F90DF91CF911F91BE
:1037D0000F91FF90EF90DF90CF90BF90AF907F90D0
:1037E0006F905F904F90089501EF1FEF81E090E0A0
:1037F000013F2FEF120711F090E080E0892B09F4D0
:10380000A6CFE0CF04EF1FEFDDCF0AEF1FEFDACF37
:103810000FEF1FEFD7CF4F925F926F927F92AF92D1
:10382000BF92CF92DF92EF92FF920F931F93CF93AD
:10383000DF9300D0CDB7DEB71A821982009709F462
:1038400078C06115710509F474C02091210130918F
:10385000220107EF1FEF2F3F3F4F09F444C06B01D8
:103860005C01412C512C3201F12CE12C10E000E0E4
:103870009E012F5F3F4FA6014E195F09B5016E0DE6
:103880007F1D8091210190912201E8D2892B09F0BE
:103890004AC089819A81009741F4E114F10429F426
:1038A0002091E603222309F441C0E80EF91EEC142E
:1038B000FD04C8F480E8481686E9580688E96806D9
:1038C000710418F560E070E0CB014ED62AE0420E9C
:1038D000511C611C711C0E3F4FEF140721F0043F77
:1038E0008FEF1807A1F4C8010F900F90DF91CF91CF
:1038F0001F910F91FF90EF90DF90CF90BF90AF900E
:103900007F906F905F904F90089502EF1FEF81E0DE
:1039100090E0023F2FEF120711F090E080E0892B3A
:1039200009F4A6CFE0CF04EF1FEFDDCF0EEF1FEFBE
:10393000DACF0FEF1FEFD7CF8091210190912201B5
:103940008F3F980749F06ED2892B49F48FEF9FEF94
:10395000909322018093210190E080E0089584EF0C
:103960009FEF0895FC01680F791F90E080E0E61753
:10397000F70709F408952191820F911DF8CF209146
:10398000E703211113C08FDE009791F41092ED032D
:103990001092EC031092EB031092EA031092E903E9
:1039A0001092E80321E02093E703089584EF9FEF4E
:1039B0000895AF92BF92CF92DF92EF92FF920F9352
:1039C0001F93CF93DF93009709F460C046305105F1
:1039D00008F45CC02091E703C7EFDFEF222309F46E
:1039E00049C08C01060F171FF801C080D180C11497
:1039F000D10409F44EC096012A5F3F4F4217530786
:103A000008F447C07C018091EC039091ED0393830F
:103A10008283B6016C5F7F4F5801A60EB71EC801A6
:103A2000A1DFF5019183808364E070E0C80162DE6C
:103A3000EC01892BF9F481E090E051DEB601C80178
:103A4000049658DEEC01892B91F462E070E0C50128
:103A500051DEEC01892B59F4C7011CDC8091EC0389
:103A60009091ED0301969093ED038093EC0390E029
:103A700080E035DECE01DF91CF911F910F91FF9055
:103A8000EF90DF90CF90BF90AF900895CFEFDFEF32
:103A9000F1CFC9EFDFEFEECF6F927F928F929F92BF
:103AA000AF92BF92CF92DF92EF92FF920F931F934C
:103AB000CF93DF9300D000D0CDB7DEB7009709F4E5
:103AC0007AC04115510509F476C02091E70307EF4C
:103AD0001FEF222309F44DC03A017B015C0164E031
:103AE00070E0CE01019697DE8C01892B09F041C070
:103AF00009811A810115110509F45AC0480186E0AF
:103B0000880E911CB701680D791D80912301909159
:103B1000240156DD6C01009709F450C0A70170E044
:103B200060E00E94EC2589819A81AB81BC81EC0C1C
:103B3000FD1CF70181939193A193B1937F0181E0E3
:103B400090E0CDDDB801C70166DE892B31F562E07A
:103B500070E0C701800F911F5EDE8C01892BE9F4B4
:103B600090E080E0BCDDF501D182C082F30191825A
:103B70008082C8010F900F900F900F90DF91CF912E
:103B80001F910F91FF90EF90DF90CF90BF90AF907B
:103B90009F908F907F906F90089590E080E09FDDE0
:103BA000F50111821082F30111821082C60172DBCD
:103BB00009EF1FEFDECF0FEF1FEFDBCF06EF1FEF99
:103BC000D8CF0097A1F04115510589F02115310595
:103BD00071F0F90136966E177F0748F0DC012D93DE
:103BE0003C93DA01ED93FC9390E080E008958FEF31
:103BF0009FEF0895AF92BF92CF92DF92EF92FF9224
:103C00000F931F93CF93DF93009709F45FC0411583
:103C1000510509F45BC06530710508F457C0209167
:103C2000E703C7EFDFEF222391F1DC01CD90DC90B9
:103C300011971296ED91FC9196012A5F3F4FC9EFC3
:103C4000DFEF2617370719F5C091E803D091E90394
:103C5000209749F521E030E03093E9032093E80311
:103C60007A018C01F093EB03E093EA035601B4E090
:103C7000AB0EB11CB50176DE0A0D1B1DF8012081CB
:103C800031818217930729F5D701CD92DC92CE01BD
:103C9000DF91CF911F910F91FF90EF90DF90CF9028
:103CA000BF90AF9008952091EA033091EB032F5F0E
:103CB0003F4FCCEFDFEFE217F30790F2CBEFDFEFF0
:103CC0002E173F0768F2D0E0C0E0CACFCFEFDFEF9A
:103CD000DECFC3EFDFEFDBCF84E090E0089582E03A
:103CE00090E008958CEF9FEF089580E290E00895B2
:103CF0001092ED031092EC031092EB031092EA0382
:103D00001092E9031092E80390E080E00895909308
:103D100024018093230108958091E703882391F083
:103D20000BDE009789F41092ED031092EC031092D1
:103D3000EB031092EA031092E9031092E803109249
:103D4000E703089590E080E00895009749F0611539
:103D5000710531F0FC0111821082FB011182108289
:103D60000895F3CF40E855E260E070E090E080E035
:103D700000C026E08BEF93E0C4C51F920F920FB6F0
:103D80000F9211242F933F934F935F936F937F93E1
:103D90008F939F93AF93BF93EF93FF938BEC93EF2E
:103DA0009093850080938400B6D0FF91EF91BF91EE
:103DB000AF919F918F917F916F915F914F913F91C3
:103DC0002F910F900FBE0F901F9018958BEC93EFD3
:103DD0009093850080938400AFE6B0E08C918E7F55
:103DE0008C93E0E8F0E080818C7F8083E1E8F0E074
:103DF0008081877E808380818560808380818D7FC4
:103E000080838C9181608C930895EFE6F0E080814F
:103E100090819E7F90838170089581E00895109233
:103E2000EE03089568EE73E080E090E09DD390E0AB
:103E300080E0089526E040E050E16EE070E08BEF16
:103E400093E05FD58BEF93E092D4892B21F08BEF39
:103E500093E0A7D4F7CF90E080E00895CF92DF926F
:103E6000EF92FF920F931F93CF93DF936B017A0131
:103E7000E901198218828BEF93E079D4892B69F1DB
:103E80008601CC24C39482E0D82E8091EE03811168
:103E900010C08BEF93E085D40297B9F7C092EE0380
:103EA000F801D1928F018881998101969983888345
:103EB000ECCF888199818E159F0578F48BEF93E084
:103EC00070D48F3F9807A9F3F80181938F018881FF
:103ED0009981019699838883ECCF90E080E0DF910F
:103EE000CF911F910F91FF90EF90DF90CF900895A9
:103EF0000F931F93CF93DF93EA0189018BEF93E038
:103F0000E4D5F801D183C08390E080E0DF91CF91C8
:103F10001F910F910895CF92DF92EF92FF928091BF
:103F2000EF0391E0980F9093EF03882369F021E06D
:103F300030E03093F1032093F0038093EF03FF9080
:103F4000EF90DF90CF9008957894E0912601F09162
:103F50002701C28CD38CE48CF58C0E945C02B701E3
:103F6000A60190E080E00E948C01F8948091EF031C
:103F70008150E3CFCF93DF931092A9041092A8044D
:103F800029D3F0DEC0912601D09127011982188231
:103F90006FEF7FEFCB010E94020270E060E090E0E3
:103FA00080E00E949500009799F50E94D702F8944E
:103FB0007894BE016E5D7F4F8A819B810E9498003C
:103FC000892B59F46FEF7FEFCB010E9423010E94F0
:103FD000FC01882311F081E08EA3F894F7DE0E94A3
:103FE000FF01811104C00E94FC0191E0811190E069
:103FF0009093A80478940E946809EC0178948091C9
:10400000A804811108C00E94E501F89490E080E0C6
:10401000DF91CF9108950E94E3010E94FF0191E09A
:10402000811106C00E94FC0191E0811101C090E065
:104030009093A9049091A90481E0911180E080936C
:10404000A8048091A9048111E0DE219729F40E943F
:104050006809892B09F4E3DE0E946809EC01DDDEC2
:10406000CECF5058BB27AA270ED057C148D130F029
:104070004DD120F031F49F3F11F41EF43DC10EF4F8
:10408000E095E7FB0AC1E92F59D180F3BA1762071F
:1040900073078407950718F071F49EF588C10EF434
:1040A000E0950B2EBA2FA02D0B01B90190010C0148
:1040B000CA01A0011124FF27591B99F0593F50F460
:1040C000503E68F11A16F040A22F232F342F4427B8
:1040D000585FF3CF469537952795A795F0405395B0
:1040E000C9F77EF41F16BA0B620B730B840BBAF080
:1040F0009150A1F0FF0FBB1F661F771F881FC2F7EB
:104100000EC0BA0F621F731F841F48F487957795FE
:104110006795B795F7959E3F08F0B3CF9395880FB5
:1041200008F09927EE0F97958795089529D180F08B
:104130009F3740F491110EF43BC160E070E080E8DD
:104140009FE3089526F01B16611D711D811DABC0F4
:10415000C5C07FD008F481E00895F8D088F09F575B
:1041600090F0B92F9927B751A0F0D1F0660F771FC3
:10417000881F991F1AF0BA95C9F712C0B13081F0A3
:1041800016D1B1E0089513C1672F782F8827B85F43
:1041900039F0B93FCCF3869577956795B395D9F704
:1041A0003EF490958095709561957F4F8F4F9F4F0E
:1041B0000895E89409C097FB3EF49095809570951A
:1041C00061957F4F8F4F9F4F9923A9F0F92F96E963
:1041D000BB279395F695879577956795B795F111D8
:1041E000F8CFFAF4BB0F11F460FF1BC06F5F7F4F75
:1041F0008F4F9F4F16C0882311F096E911C0772387
:1042000021F09EE8872F762F05C0662371F096E88F
:10421000862F70E060E02AF09A95660F771F881F5E
:10422000DAF7880F9695879597F90895A9D080F0C9
:104230009F3740F491110EF0BBC060E070E080E861
:104240009FEB089526F41B16611D711D811D2BC067
:1042500045C0990F0008550FAA0BE0E8FEEF1616AF
:104260001706E807F907C0F012161306E407F5076A
:1042700098F0621B730B840B950B39F40A2661F0DE
:10428000232B242B252B21F408950A2609F4A14081
:10429000A6958FEF811D811D089597F99F6780E88E
:1042A00070E060E00895882371F4772321F098503E
:1042B000872B762F07C0662311F499270DC09051E4
:1042C000862B70E060E02AF09A95660F771F881FB2
:1042D000DAF7880F9695879597F908959F3F31F003
:1042E000915020F4879577956795B795880F911D24
:1042F0009695879597F908959FEF80EC089500248F
:104300000A941616170618060906089500240A943A
:1043100012161306140605060895092E0394000CC0
:1043200011F4882352F0BB0F40F4BF2B11F460FF4F
:1043300004C06F5F7F4F8F4F9F4F089557FD905878
:10434000440F551F59F05F3F71F04795880F97FB59
:10435000991F61F09F3F79F0879508951216130613
:104360001406551FF2CF4695F1DF08C01616170642
:104370001806991FF1CF8695710561050894089577
:10438000E5DFA0F0BEE7B91788F4BB279F3860F4DB
:104390001616B11D672F782F8827985FF7CF86955F
:1043A00077956795B11D93959639C8F30895E8946C
:1043B000BB2766277727CB0197F908954ADF08F4D2
:1043C0008FEF08950BD0A9CF9ADF28F09FDF18F068
:1043D000952309F062CF90CF1124EACFAFDFA0F38D
:1043E000959FD1F3950F50E0551F629FF001729F8A
:1043F000BB27F00DB11D639FAA27F00DB11DAA1FA9
:10440000649F6627B00DA11D661F829F2227B00DF5
:10441000A11D621F739FB00DA11D621F839FA00D80
:10442000611D221F749F3327A00D611D231F849FD0
:10443000600D211D822F762F6A2F11249F57504027
:104440008AF0E1F088234AF0EE0FFF1FBB1F661FC2
:10445000771F881F91505040A9F79E3F510570F07B
:104460001CCFA6CF5F3FECF3983EDCF386957795A3
:104470006795B795F795E7959F5FC1F7FE2B880F76
:10448000911D9695879597F908951F920F920FB6F3
:104490000F9211242F933F938F939F93AF93BF93CA
:1044A0008091F3039091F403A091F503B091F6038A
:1044B0003091F20323E0230F2D3758F50196A11D0B
:1044C000B11D2093F2038093F3039093F403A09320
:1044D000F503B093F6038091F7039091F803A09150
:1044E000F903B091FA030196A11DB11D8093F70362
:1044F0009093F803A093F903B093FA03BF91AF919F
:104500009F918F913F912F910F900FBE0F901F9011
:10451000189526E8230F0296A11DB11DD2CF3FB7F3
:10452000F8948091F7039091F803A091F903B0916A
:10453000FA0326B5A89B05C02F3F19F00196A11DCF
:10454000B11D3FBFBA2FA92F982F8827BC01CD01DD
:10455000620F711D811D911D42E0660F771F881F3C
:10456000991F4A95D1F708958F929F92AF92BF926B
:10457000CF92DF92EF92FF926B017C01D0DF4B0173
:104580005C01C114D104E104F104D9F0CBD2C7DF3E
:10459000681979098A099B09683E7340810591056C
:1045A00080F321E0C21AD108E108F10888EE880EF4
:1045B00083E0981EA11CB11CC114D104E104F104D4
:1045C00031F7FF90EF90DF90CF90BF90AF909F902A
:1045D0008F900895789484B5826084BD84B581609D
:1045E00084BD85B5826085BD85B5816085BDEEE6FB
:1045F000F0E0808181608083E1E8F0E010828081DA
:1046000082608083808181608083E0E8F0E0808147
:1046100081608083E1EBF0E0808184608083E0EB67
:10462000F0E0808181608083EAE7F0E0808184604F
:1046300080838081826080838081816080838081AB
:10464000806880831092C1000895833081F028F43F
:10465000813099F08230A9F008958730A9F0883030
:10466000C9F08430B1F4809180008F7D03C08091C7
:1046700080008F7780938000089584B58F7784BD04
:10468000089584B58F7DFBCF8091B0008F778093A4
:10469000B00008958091B0008F7DF9CFCF93DF9364
:1046A00090E0FC01E458FF4F249180579F4FFC019C
:1046B00084918823C9F090E0880F991FFC01E2558E
:1046C000FF4FA591B491FC01EC55FF4FC591D491DA
:1046D00061110DC09FB7F8948C91209582238C9323
:1046E0008881282328839FBFDF91CF91089562306E
:1046F00051F49FB7F8943C91822F809583238C933B
:10470000E8812E2BEFCF8FB7F894EC912E2B2C93C2
:104710008FBFEACF1F93CF93DF93282F30E0F901AB
:10472000E859FF4F8491F901E458FF4FD491F90102
:10473000E057FF4FC491CC23A1F0162F811185DFE4
:10474000EC2FF0E0EE0FFF1FEC55FF4FA591B49159
:104750008FB7F894EC91111108C0D095DE23DC934B
:104760008FBFDF91CF911F910895DE2BF8CFFC0111
:10477000918D228D892F90E0805C9F4F821B910943
:104780008F7399270895FC01918D828D981731F0D0
:10479000828DE80FF11D858D90E008958FEF9FEFDA
:1047A0000895FC01918D828D981761F0A28DAE0F56
:1047B000BF2FB11D5D968C91928D9F5F9F73928FDD
:1047C00090E008958FEF9FEF0895FC01538D448D85
:1047D000252F30E0842F90E0821B930B541710F0AC
:1047E000CF96089501970895FC01A48DA80FB92FC5
:1047F000B11DA35ABF4F2C91848D90E001968F7309
:104800009927848FA689B7892C93A089B1898C9127
:10481000837080648C93938D848D981306C0028876
:10482000F389E02D80818F7D80830895CF93DF937E
:10483000EC01888D8823B1F0AA89BB89E889F989C0
:104840008C9185FD03C0808186FD0CC00FB607FCEE
:10485000F7CF8C9185FFF2CF808185FFEDCFCE0120
:10486000C3DFEACFDF91CF910895EF92FF920F93CC
:104870001F93CF93DF93EC0181E0888F9B8D8C8D0C
:1048800098131AC0E889F989808185FF15C09FB700
:10489000F894EE89FF896083E889F98980818370C3
:1048A000806480839FBF81E090E0DF91CF911F9172
:1048B0000F91FF90EF900895F62E0B8D10E00F5F93
:1048C0001F4F0F731127E02E8C8D8E110BC00FB66A
:1048D00007FCFACFE889F989808185FFF5CFCE0101
:1048E00083DFF2CFEB8DEC0FFD2FF11DE35AFF4F6D
:1048F000F0829FB7F8940B8FEA89FB8980818062F0
:10490000D0CFCF92DF92EF92FF921F93CF93DF939E
:10491000EC016A017B01122FE889F98982E080832A
:10492000C11481EED806E104F10499F060E079E069
:104930008DE390E0A701960105D12150310941098D
:1049400051095695479537952795211580E13807E8
:1049500090F0E889F989108260E874E88EE190E0CF
:10496000A7019601EFD0215031094109510956950F
:10497000479537952795EC85FD853083EE85FF8536
:104980002083188EEC89FD891083EA89FB89808158
:1049900080618083EA89FB89808188608083EA89DD
:1049A000FB89808180688083EA89FB8980818F7D93
:1049B0008083DF91CF911F91FF90EF90DF90CF9098
:1049C00008951F920F920FB60F9211242F938F9379
:1049D0009F93EF93FF93E0910B04F0910C0480817F
:1049E000E0911104F091120482FD1BC0908180912E
:1049F00014048F5F8F7320911504821741F0E091AA
:104A00001404F0E0E550FC4F958F80931404FF915F
:104A1000EF919F918F912F910F900FBE0F901F904C
:104A200018958081F4CF1F920F920FB60F92112428
:104A30002F933F934F935F936F937F938F939F93A6
:104A4000AF93BF93EF93FF938BEF93E0CDDEFF9196
:104A5000EF91BF91AF919F918F917F916F915F91F6
:104A60004F913F912F910F900FBE0F901F9018956F
:104A7000EBEFF3E01382128288EE93E0A0E0B0E067
:104A800084839583A683B78380EB91E091838083B1
:104A900085EC90E09587848784EC90E09787868703
:104AA00080EC90E0918B808B81EC90E0938B828BFB
:104AB00082EC90E0958B848B86EC90E0978B868BD4
:104AC000118E128E138E148E0895AF92BF92CF92D4
:104AD000DF92EF92FF920F931F93CF93DF936C01BE
:104AE0007B018B01040F151FEB015E01AE18BF089F
:104AF000C017D10759F06991D601ED91FC91019051
:104B0000F081E02DC6010995892B79F7C501DF9168
:104B1000CF911F910F91FF90EF90DF90CF90BF90BA
:104B2000AF9008950895DB018F939F9333D0BF9189
:104B3000AF91A29F800D911DA39F900DB29F900DEC
:104B400011240895A1E21A2EAA1BBB1BFD010DC062
:104B5000AA1FBB1FEE1FFF1FA217B307E407F5072D
:104B600020F0A21BB30BE40BF50B661F771F881F09
:104B7000991F1A9469F760957095809590959B019F
:104B8000AC01BD01CF010895EE0FFF1F0590F49118
:104B9000E02D099409D0A59F900DB49F900DA49F7E
:104BA000800D911D11240895A29FB001B39FC001F3
:104BB000A39F700D811D1124911DB29F700D811D49
:104BC0001124911D0895FB01DC0102C001900D929A
:104BD00041505040D8F70895DC0101C06D93415019
:0A4BE0005040E0F70895F894FFCF6D
:104BEA00000000000000803FFEFFFFFF01E8030015
:104BFA0000FFFF00000000FFFFFFFFFFFFFFFFFFB6
:104C0A00FFFFFFFFFF01D201FF00A00BCC0BFE004C
:104C1A00860B2609FD00180B720BFC005E0B260999
:104C2A00F6004F0C2609F500250B8E0CF400180C23
:104C3A00A50CDE0024109C12DD007C112609DA0086
:104C4A00350E3D0ED900B7124D0EE2001D0D260994
:104C5A00E100580D2609E000CD0D2609D6003115D0
:104C6A002609D500640F2609D400F00E2609D300C0
:104C7A00610E2609F0009A152609ED005715260936
:104C8A0001000100010008001000200000000000DF
:0E4C9A0035246525E5231624B723D123C32333
:00000001FF
